{
	"contracts/ERC20/LinkDaoPresale.sol": {
		"LINKDAO_Token": {
			"abi": [
				{
					"anonymous": false,
					"inputs": [
						{
							"indexed": true,
							"internalType": "address",
							"name": "owner",
							"type": "address"
						},
						{
							"indexed": true,
							"internalType": "address",
							"name": "spender",
							"type": "address"
						},
						{
							"indexed": false,
							"internalType": "uint256",
							"name": "value",
							"type": "uint256"
						}
					],
					"name": "Approval",
					"type": "event"
				},
				{
					"anonymous": false,
					"inputs": [
						{
							"indexed": true,
							"internalType": "address",
							"name": "delegator",
							"type": "address"
						},
						{
							"indexed": true,
							"internalType": "address",
							"name": "fromDelegate",
							"type": "address"
						},
						{
							"indexed": true,
							"internalType": "address",
							"name": "toDelegate",
							"type": "address"
						}
					],
					"name": "DelegateChanged",
					"type": "event"
				},
				{
					"anonymous": false,
					"inputs": [
						{
							"indexed": true,
							"internalType": "address",
							"name": "delegate",
							"type": "address"
						},
						{
							"indexed": false,
							"internalType": "uint256",
							"name": "previousBalance",
							"type": "uint256"
						},
						{
							"indexed": false,
							"internalType": "uint256",
							"name": "newBalance",
							"type": "uint256"
						}
					],
					"name": "DelegateVotesChanged",
					"type": "event"
				},
				{
					"anonymous": false,
					"inputs": [
						{
							"indexed": true,
							"internalType": "address",
							"name": "previousOwner",
							"type": "address"
						},
						{
							"indexed": true,
							"internalType": "address",
							"name": "newOwner",
							"type": "address"
						}
					],
					"name": "OwnershipTransferred",
					"type": "event"
				},
				{
					"anonymous": false,
					"inputs": [
						{
							"indexed": true,
							"internalType": "address",
							"name": "from",
							"type": "address"
						},
						{
							"indexed": true,
							"internalType": "address",
							"name": "to",
							"type": "address"
						},
						{
							"indexed": false,
							"internalType": "uint256",
							"name": "value",
							"type": "uint256"
						}
					],
					"name": "Transfer",
					"type": "event"
				},
				{
					"inputs": [],
					"name": "DELEGATION_TYPEHASH",
					"outputs": [
						{
							"internalType": "bytes32",
							"name": "",
							"type": "bytes32"
						}
					],
					"stateMutability": "view",
					"type": "function"
				},
				{
					"inputs": [],
					"name": "DOMAIN_TYPEHASH",
					"outputs": [
						{
							"internalType": "bytes32",
							"name": "",
							"type": "bytes32"
						}
					],
					"stateMutability": "view",
					"type": "function"
				},
				{
					"inputs": [
						{
							"internalType": "address",
							"name": "owner",
							"type": "address"
						},
						{
							"internalType": "address",
							"name": "spender",
							"type": "address"
						}
					],
					"name": "allowance",
					"outputs": [
						{
							"internalType": "uint256",
							"name": "",
							"type": "uint256"
						}
					],
					"stateMutability": "view",
					"type": "function"
				},
				{
					"inputs": [
						{
							"internalType": "address",
							"name": "spender",
							"type": "address"
						},
						{
							"internalType": "uint256",
							"name": "amount",
							"type": "uint256"
						}
					],
					"name": "approve",
					"outputs": [
						{
							"internalType": "bool",
							"name": "",
							"type": "bool"
						}
					],
					"stateMutability": "nonpayable",
					"type": "function"
				},
				{
					"inputs": [
						{
							"internalType": "address",
							"name": "account",
							"type": "address"
						}
					],
					"name": "balanceOf",
					"outputs": [
						{
							"internalType": "uint256",
							"name": "",
							"type": "uint256"
						}
					],
					"stateMutability": "view",
					"type": "function"
				},
				{
					"inputs": [
						{
							"internalType": "address",
							"name": "",
							"type": "address"
						},
						{
							"internalType": "uint32",
							"name": "",
							"type": "uint32"
						}
					],
					"name": "checkpoints",
					"outputs": [
						{
							"internalType": "uint32",
							"name": "fromBlock",
							"type": "uint32"
						},
						{
							"internalType": "uint256",
							"name": "votes",
							"type": "uint256"
						}
					],
					"stateMutability": "view",
					"type": "function"
				},
				{
					"inputs": [],
					"name": "decimals",
					"outputs": [
						{
							"internalType": "uint8",
							"name": "",
							"type": "uint8"
						}
					],
					"stateMutability": "view",
					"type": "function"
				},
				{
					"inputs": [
						{
							"internalType": "address",
							"name": "spender",
							"type": "address"
						},
						{
							"internalType": "uint256",
							"name": "subtractedValue",
							"type": "uint256"
						}
					],
					"name": "decreaseAllowance",
					"outputs": [
						{
							"internalType": "bool",
							"name": "",
							"type": "bool"
						}
					],
					"stateMutability": "nonpayable",
					"type": "function"
				},
				{
					"inputs": [
						{
							"internalType": "address",
							"name": "delegatee",
							"type": "address"
						}
					],
					"name": "delegate",
					"outputs": [],
					"stateMutability": "nonpayable",
					"type": "function"
				},
				{
					"inputs": [
						{
							"internalType": "address",
							"name": "delegatee",
							"type": "address"
						},
						{
							"internalType": "uint256",
							"name": "nonce",
							"type": "uint256"
						},
						{
							"internalType": "uint256",
							"name": "expiry",
							"type": "uint256"
						},
						{
							"internalType": "uint8",
							"name": "v",
							"type": "uint8"
						},
						{
							"internalType": "bytes32",
							"name": "r",
							"type": "bytes32"
						},
						{
							"internalType": "bytes32",
							"name": "s",
							"type": "bytes32"
						}
					],
					"name": "delegateBySig",
					"outputs": [],
					"stateMutability": "nonpayable",
					"type": "function"
				},
				{
					"inputs": [
						{
							"internalType": "address",
							"name": "delegator",
							"type": "address"
						}
					],
					"name": "delegates",
					"outputs": [
						{
							"internalType": "address",
							"name": "",
							"type": "address"
						}
					],
					"stateMutability": "view",
					"type": "function"
				},
				{
					"inputs": [
						{
							"internalType": "address",
							"name": "account",
							"type": "address"
						}
					],
					"name": "getCurrentVotes",
					"outputs": [
						{
							"internalType": "uint256",
							"name": "",
							"type": "uint256"
						}
					],
					"stateMutability": "view",
					"type": "function"
				},
				{
					"inputs": [],
					"name": "getOwner",
					"outputs": [
						{
							"internalType": "address",
							"name": "",
							"type": "address"
						}
					],
					"stateMutability": "view",
					"type": "function"
				},
				{
					"inputs": [
						{
							"internalType": "address",
							"name": "account",
							"type": "address"
						},
						{
							"internalType": "uint256",
							"name": "blockNumber",
							"type": "uint256"
						}
					],
					"name": "getPriorVotes",
					"outputs": [
						{
							"internalType": "uint256",
							"name": "",
							"type": "uint256"
						}
					],
					"stateMutability": "view",
					"type": "function"
				},
				{
					"inputs": [
						{
							"internalType": "address",
							"name": "spender",
							"type": "address"
						},
						{
							"internalType": "uint256",
							"name": "addedValue",
							"type": "uint256"
						}
					],
					"name": "increaseAllowance",
					"outputs": [
						{
							"internalType": "bool",
							"name": "",
							"type": "bool"
						}
					],
					"stateMutability": "nonpayable",
					"type": "function"
				},
				{
					"inputs": [],
					"name": "maxSupply",
					"outputs": [
						{
							"internalType": "uint256",
							"name": "",
							"type": "uint256"
						}
					],
					"stateMutability": "view",
					"type": "function"
				},
				{
					"inputs": [
						{
							"internalType": "address",
							"name": "_to",
							"type": "address"
						},
						{
							"internalType": "uint256",
							"name": "_amount",
							"type": "uint256"
						}
					],
					"name": "mint",
					"outputs": [],
					"stateMutability": "nonpayable",
					"type": "function"
				},
				{
					"inputs": [
						{
							"internalType": "uint256",
							"name": "amount",
							"type": "uint256"
						}
					],
					"name": "mint",
					"outputs": [
						{
							"internalType": "bool",
							"name": "",
							"type": "bool"
						}
					],
					"stateMutability": "nonpayable",
					"type": "function"
				},
				{
					"inputs": [],
					"name": "name",
					"outputs": [
						{
							"internalType": "string",
							"name": "",
							"type": "string"
						}
					],
					"stateMutability": "view",
					"type": "function"
				},
				{
					"inputs": [
						{
							"internalType": "address",
							"name": "",
							"type": "address"
						}
					],
					"name": "nonces",
					"outputs": [
						{
							"internalType": "uint256",
							"name": "",
							"type": "uint256"
						}
					],
					"stateMutability": "view",
					"type": "function"
				},
				{
					"inputs": [
						{
							"internalType": "address",
							"name": "",
							"type": "address"
						}
					],
					"name": "numCheckpoints",
					"outputs": [
						{
							"internalType": "uint32",
							"name": "",
							"type": "uint32"
						}
					],
					"stateMutability": "view",
					"type": "function"
				},
				{
					"inputs": [],
					"name": "owner",
					"outputs": [
						{
							"internalType": "address",
							"name": "",
							"type": "address"
						}
					],
					"stateMutability": "view",
					"type": "function"
				},
				{
					"inputs": [],
					"name": "preMineSupply",
					"outputs": [
						{
							"internalType": "uint256",
							"name": "",
							"type": "uint256"
						}
					],
					"stateMutability": "view",
					"type": "function"
				},
				{
					"inputs": [],
					"name": "renounceOwnership",
					"outputs": [],
					"stateMutability": "nonpayable",
					"type": "function"
				},
				{
					"inputs": [],
					"name": "symbol",
					"outputs": [
						{
							"internalType": "string",
							"name": "",
							"type": "string"
						}
					],
					"stateMutability": "view",
					"type": "function"
				},
				{
					"inputs": [],
					"name": "totalSupply",
					"outputs": [
						{
							"internalType": "uint256",
							"name": "",
							"type": "uint256"
						}
					],
					"stateMutability": "view",
					"type": "function"
				},
				{
					"inputs": [
						{
							"internalType": "address",
							"name": "recipient",
							"type": "address"
						},
						{
							"internalType": "uint256",
							"name": "amount",
							"type": "uint256"
						}
					],
					"name": "transfer",
					"outputs": [
						{
							"internalType": "bool",
							"name": "",
							"type": "bool"
						}
					],
					"stateMutability": "nonpayable",
					"type": "function"
				},
				{
					"inputs": [
						{
							"internalType": "address",
							"name": "sender",
							"type": "address"
						},
						{
							"internalType": "address",
							"name": "recipient",
							"type": "address"
						},
						{
							"internalType": "uint256",
							"name": "amount",
							"type": "uint256"
						}
					],
					"name": "transferFrom",
					"outputs": [
						{
							"internalType": "bool",
							"name": "",
							"type": "bool"
						}
					],
					"stateMutability": "nonpayable",
					"type": "function"
				},
				{
					"inputs": [
						{
							"internalType": "address",
							"name": "newOwner",
							"type": "address"
						}
					],
					"name": "transferOwnership",
					"outputs": [],
					"stateMutability": "nonpayable",
					"type": "function"
				}
			],
			"devdoc": {
				"kind": "dev",
				"methods": {
					"allowance(address,address)": {
						"details": "See {BEP20-allowance}."
					},
					"approve(address,uint256)": {
						"details": "See {BEP20-approve}. Requirements: - `spender` cannot be the zero address."
					},
					"balanceOf(address)": {
						"details": "See {BEP20-balanceOf}."
					},
					"decimals()": {
						"details": "Returns the token decimals."
					},
					"decreaseAllowance(address,uint256)": {
						"details": "Atomically decreases the allowance granted to `spender` by the caller. This is an alternative to {approve} that can be used as a mitigation for problems described in {BEP20-approve}. Emits an {Approval} event indicating the updated allowance. Requirements: - `spender` cannot be the zero address. - `spender` must have allowance for the caller of at least `subtractedValue`."
					},
					"delegate(address)": {
						"params": {
							"delegatee": "The address to delegate votes to"
						}
					},
					"delegateBySig(address,uint256,uint256,uint8,bytes32,bytes32)": {
						"params": {
							"delegatee": "The address to delegate votes to",
							"expiry": "The time at which to expire the signature",
							"nonce": "The contract state required to match the signature",
							"r": "Half of the ECDSA signature pair",
							"s": "Half of the ECDSA signature pair",
							"v": "The recovery byte of the signature"
						}
					},
					"delegates(address)": {
						"params": {
							"delegator": "The address to get delegatee for"
						}
					},
					"getCurrentVotes(address)": {
						"params": {
							"account": "The address to get votes balance"
						},
						"returns": {
							"_0": "The number of current votes for `account`"
						}
					},
					"getOwner()": {
						"details": "Returns the bep token owner."
					},
					"getPriorVotes(address,uint256)": {
						"details": "Block number must be a finalized block or else this function will revert to prevent misinformation.",
						"params": {
							"account": "The address of the account to check",
							"blockNumber": "The block number to get the vote balance at"
						},
						"returns": {
							"_0": "The number of votes the account had as of the given block"
						}
					},
					"increaseAllowance(address,uint256)": {
						"details": "Atomically increases the allowance granted to `spender` by the caller. This is an alternative to {approve} that can be used as a mitigation for problems described in {BEP20-approve}. Emits an {Approval} event indicating the updated allowance. Requirements: - `spender` cannot be the zero address."
					},
					"mint(uint256)": {
						"details": "Creates `amount` tokens and assigns them to `msg.sender`, increasing the total supply. Requirements - `msg.sender` must be the token owner"
					},
					"name()": {
						"details": "Returns the token name."
					},
					"owner()": {
						"details": "Returns the address of the current owner."
					},
					"renounceOwnership()": {
						"details": "Leaves the contract without owner. It will not be possible to call `onlyOwner` functions anymore. Can only be called by the current owner. NOTE: Renouncing ownership will leave the contract without an owner, thereby removing any functionality that is only available to the owner."
					},
					"symbol()": {
						"details": "Returns the token symbol."
					},
					"totalSupply()": {
						"details": "See {BEP20-totalSupply}."
					},
					"transfer(address,uint256)": {
						"details": "See {BEP20-transfer}. Requirements: - `recipient` cannot be the zero address. - the caller must have a balance of at least `amount`."
					},
					"transferFrom(address,address,uint256)": {
						"details": "See {BEP20-transferFrom}. Emits an {Approval} event indicating the updated allowance. This is not required by the EIP. See the note at the beginning of {BEP20}; Requirements: - `sender` and `recipient` cannot be the zero address. - `sender` must have a balance of at least `amount`. - the caller must have allowance for `sender`'s tokens of at least `amount`."
					},
					"transferOwnership(address)": {
						"details": "Transfers ownership of the contract to a new account (`newOwner`). Can only be called by the current owner."
					}
				},
				"version": 1
			},
			"evm": {
				"assembly": "    /* \"contracts/ERC20/LinkDaoPresale.sol\":30605:39755  contract LINKDAO_Token is BEP20(\"LinkDao\", \"LKD\") {\r... */\n  mstore(0x40, 0x80)\n  callvalue\n  dup1\n  iszero\n  tag_1\n  jumpi\n  0x00\n  dup1\n  revert\ntag_1:\n  pop\n    /* \"contracts/ERC20/LinkDaoPresale.sol\":21570:21760  constructor(string memory name, string memory symbol) public {\r... */\n  mload(0x40)\n  dup1\n  0x40\n  add\n  0x40\n  mstore\n  dup1\n  0x07\n  dup2\n  mstore\n  0x20\n  add\n  0x4c696e6b44616f00000000000000000000000000000000000000000000000000\n  dup2\n  mstore\n  pop\n  mload(0x40)\n  dup1\n  0x40\n  add\n  0x40\n  mstore\n  dup1\n  0x03\n  dup2\n  mstore\n  0x20\n  add\n  0x4c4b440000000000000000000000000000000000000000000000000000000000\n  dup2\n  mstore\n  pop\n    /* \"contracts/ERC20/LinkDaoPresale.sol\":2026:2043  address msgSender */\n  0x00\n    /* \"contracts/ERC20/LinkDaoPresale.sol\":2046:2058  _msgSender() */\n  tag_7\n    /* \"contracts/ERC20/LinkDaoPresale.sol\":2046:2056  _msgSender */\n  shl(0x20, tag_8)\n    /* \"contracts/ERC20/LinkDaoPresale.sol\":2046:2058  _msgSender() */\n  0x20\n  shr\n  jump\t// in\ntag_7:\n    /* \"contracts/ERC20/LinkDaoPresale.sol\":2026:2058  address msgSender = _msgSender() */\n  swap1\n  pop\n    /* \"contracts/ERC20/LinkDaoPresale.sol\":2078:2087  msgSender */\n  dup1\n    /* \"contracts/ERC20/LinkDaoPresale.sol\":2069:2075  _owner */\n  0x00\n  dup1\n    /* \"contracts/ERC20/LinkDaoPresale.sol\":2069:2087  _owner = msgSender */\n  0x0100\n  exp\n  dup2\n  sload\n  dup2\n  0xffffffffffffffffffffffffffffffffffffffff\n  mul\n  not\n  and\n  swap1\n  dup4\n  0xffffffffffffffffffffffffffffffffffffffff\n  and\n  mul\n  or\n  swap1\n  sstore\n  pop\n    /* \"contracts/ERC20/LinkDaoPresale.sol\":2136:2145  msgSender */\n  dup1\n    /* \"contracts/ERC20/LinkDaoPresale.sol\":2103:2146  OwnershipTransferred(address(0), msgSender) */\n  0xffffffffffffffffffffffffffffffffffffffff\n  and\n    /* \"contracts/ERC20/LinkDaoPresale.sol\":2132:2133  0 */\n  0x00\n    /* \"contracts/ERC20/LinkDaoPresale.sol\":2103:2146  OwnershipTransferred(address(0), msgSender) */\n  0xffffffffffffffffffffffffffffffffffffffff\n  and\n  0x8be0079c531659141344cd1fd0a4f28419497f9722a3daafe3b4186f6b6457e0\n  mload(0x40)\n  mload(0x40)\n  dup1\n  swap2\n  sub\n  swap1\n  log3\n    /* \"contracts/ERC20/LinkDaoPresale.sol\":1992:2154  constructor() internal {\r... */\n  pop\n    /* \"contracts/ERC20/LinkDaoPresale.sol\":21650:21654  name */\n  dup2\n    /* \"contracts/ERC20/LinkDaoPresale.sol\":21642:21647  _name */\n  0x04\n    /* \"contracts/ERC20/LinkDaoPresale.sol\":21642:21654  _name = name */\n  swap1\n  dup1\n  mload\n  swap1\n  0x20\n  add\n  swap1\n  tag_10\n  swap3\n  swap2\n  swap1\n  tag_11\n  jump\t// in\ntag_10:\n  pop\n    /* \"contracts/ERC20/LinkDaoPresale.sol\":21675:21681  symbol */\n  dup1\n    /* \"contracts/ERC20/LinkDaoPresale.sol\":21665:21672  _symbol */\n  0x05\n    /* \"contracts/ERC20/LinkDaoPresale.sol\":21665:21681  _symbol = symbol */\n  swap1\n  dup1\n  mload\n  swap1\n  0x20\n  add\n  swap1\n  tag_12\n  swap3\n  swap2\n  swap1\n  tag_11\n  jump\t// in\ntag_12:\n  pop\n    /* \"contracts/ERC20/LinkDaoPresale.sol\":21704:21706  18 */\n  0x12\n    /* \"contracts/ERC20/LinkDaoPresale.sol\":21692:21701  _decimals */\n  0x06\n  0x00\n    /* \"contracts/ERC20/LinkDaoPresale.sol\":21692:21706  _decimals = 18 */\n  0x0100\n  exp\n  dup2\n  sload\n  dup2\n  0xff\n  mul\n  not\n  and\n  swap1\n  dup4\n  0xff\n  and\n  mul\n  or\n  swap1\n  sstore\n  pop\n    /* \"contracts/ERC20/LinkDaoPresale.sol\":21719:21752  _mint(msg.sender, _preMineSupply) */\n  tag_13\n    /* \"contracts/ERC20/LinkDaoPresale.sol\":21725:21735  msg.sender */\n  caller\n    /* \"contracts/ERC20/LinkDaoPresale.sol\":20841:20856  10000000 * 1e18 */\n  0x084595161401484a000000\n    /* \"contracts/ERC20/LinkDaoPresale.sol\":21719:21724  _mint */\n  shl(0x20, tag_14)\n    /* \"contracts/ERC20/LinkDaoPresale.sol\":21719:21752  _mint(msg.sender, _preMineSupply) */\n  0x20\n  shr\n  jump\t// in\ntag_13:\n  pop\n    /* \"contracts/ERC20/LinkDaoPresale.sol\":21570:21760  constructor(string memory name, string memory symbol) public {\r... */\n  pop\n  pop\n    /* \"contracts/ERC20/LinkDaoPresale.sol\":30605:39755  contract LINKDAO_Token is BEP20(\"LinkDao\", \"LKD\") {\r... */\n  jump(tag_15)\n    /* \"contracts/ERC20/LinkDaoPresale.sol\":861:959  function _msgSender() internal view returns (address payable) {\r... */\ntag_8:\n    /* \"contracts/ERC20/LinkDaoPresale.sol\":906:921  address payable */\n  0x00\n    /* \"contracts/ERC20/LinkDaoPresale.sol\":941:951  msg.sender */\n  caller\n    /* \"contracts/ERC20/LinkDaoPresale.sol\":934:951  return msg.sender */\n  swap1\n  pop\n    /* \"contracts/ERC20/LinkDaoPresale.sol\":861:959  function _msgSender() internal view returns (address payable) {\r... */\n  swap1\n  jump\t// out\n    /* \"contracts/ERC20/LinkDaoPresale.sol\":28108:28523  function _mint(address account, uint256 amount) internal returns (bool) {\r... */\ntag_14:\n    /* \"contracts/ERC20/LinkDaoPresale.sol\":28174:28178  bool */\n  0x00\n    /* \"contracts/ERC20/LinkDaoPresale.sol\":28218:28219  0 */\n  dup1\n    /* \"contracts/ERC20/LinkDaoPresale.sol\":28199:28220  account != address(0) */\n  0xffffffffffffffffffffffffffffffffffffffff\n  and\n    /* \"contracts/ERC20/LinkDaoPresale.sol\":28199:28206  account */\n  dup4\n    /* \"contracts/ERC20/LinkDaoPresale.sol\":28199:28220  account != address(0) */\n  0xffffffffffffffffffffffffffffffffffffffff\n  and\n  eq\n  iszero\n    /* \"contracts/ERC20/LinkDaoPresale.sol\":28191:28256  require(account != address(0), \"BEP20: mint to the zero address\") */\n  tag_18\n  jumpi\n  mload(0x40)\n  0x08c379a000000000000000000000000000000000000000000000000000000000\n  dup2\n  mstore\n  0x04\n  add\n  dup1\n  dup1\n  0x20\n  add\n  dup3\n  dup2\n  sub\n  dup3\n  mstore\n  0x1f\n  dup2\n  mstore\n  0x20\n  add\n  dup1\n  0x42455032303a206d696e7420746f20746865207a65726f206164647265737300\n  dup2\n  mstore\n  pop\n  0x20\n  add\n  swap2\n  pop\n  pop\n  mload(0x40)\n  dup1\n  swap2\n  sub\n  swap1\n  revert\ntag_18:\n    /* \"contracts/ERC20/LinkDaoPresale.sol\":20901:20916  10000000 * 1e18 */\n  0x084595161401484a000000\n    /* \"contracts/ERC20/LinkDaoPresale.sol\":28271:28295  amount.add(_totalSupply) */\n  tag_19\n    /* \"contracts/ERC20/LinkDaoPresale.sol\":28282:28294  _totalSupply */\n  sload(0x03)\n    /* \"contracts/ERC20/LinkDaoPresale.sol\":28271:28277  amount */\n  dup5\n    /* \"contracts/ERC20/LinkDaoPresale.sol\":28271:28281  amount.add */\n  or(tag_0_123, shl(0x20, tag_20))\n  swap1\n    /* \"contracts/ERC20/LinkDaoPresale.sol\":28271:28295  amount.add(_totalSupply) */\n  swap2\n  swap1\n  0x20\n  shr\n  jump\t// in\ntag_19:\n    /* \"contracts/ERC20/LinkDaoPresale.sol\":28271:28308  amount.add(_totalSupply) > _maxSupply */\n  gt\n    /* \"contracts/ERC20/LinkDaoPresale.sol\":28267:28349  if (amount.add(_totalSupply) > _maxSupply) {\r... */\n  iszero\n  tag_21\n  jumpi\n    /* \"contracts/ERC20/LinkDaoPresale.sol\":28332:28337  false */\n  0x00\n    /* \"contracts/ERC20/LinkDaoPresale.sol\":28325:28337  return false */\n  swap1\n  pop\n  jump(tag_17)\n    /* \"contracts/ERC20/LinkDaoPresale.sol\":28267:28349  if (amount.add(_totalSupply) > _maxSupply) {\r... */\ntag_21:\n    /* \"contracts/ERC20/LinkDaoPresale.sol\":28376:28400  _totalSupply.add(amount) */\n  tag_22\n    /* \"contracts/ERC20/LinkDaoPresale.sol\":28393:28399  amount */\n  dup3\n    /* \"contracts/ERC20/LinkDaoPresale.sol\":28376:28388  _totalSupply */\n  sload(0x03)\n    /* \"contracts/ERC20/LinkDaoPresale.sol\":28376:28392  _totalSupply.add */\n  or(tag_0_123, shl(0x20, tag_20))\n  swap1\n    /* \"contracts/ERC20/LinkDaoPresale.sol\":28376:28400  _totalSupply.add(amount) */\n  swap2\n  swap1\n  0x20\n  shr\n  jump\t// in\ntag_22:\n    /* \"contracts/ERC20/LinkDaoPresale.sol\":28361:28373  _totalSupply */\n  0x03\n    /* \"contracts/ERC20/LinkDaoPresale.sol\":28361:28400  _totalSupply = _totalSupply.add(amount) */\n  dup2\n  swap1\n  sstore\n  pop\n    /* \"contracts/ERC20/LinkDaoPresale.sol\":28432:28462  _balances[account].add(amount) */\n  tag_23\n    /* \"contracts/ERC20/LinkDaoPresale.sol\":28455:28461  amount */\n  dup3\n    /* \"contracts/ERC20/LinkDaoPresale.sol\":28432:28441  _balances */\n  0x01\n    /* \"contracts/ERC20/LinkDaoPresale.sol\":28432:28450  _balances[account] */\n  0x00\n    /* \"contracts/ERC20/LinkDaoPresale.sol\":28442:28449  account */\n  dup7\n    /* \"contracts/ERC20/LinkDaoPresale.sol\":28432:28450  _balances[account] */\n  0xffffffffffffffffffffffffffffffffffffffff\n  and\n  0xffffffffffffffffffffffffffffffffffffffff\n  and\n  dup2\n  mstore\n  0x20\n  add\n  swap1\n  dup2\n  mstore\n  0x20\n  add\n  0x00\n  keccak256\n  sload\n    /* \"contracts/ERC20/LinkDaoPresale.sol\":28432:28454  _balances[account].add */\n  or(tag_0_123, shl(0x20, tag_20))\n  swap1\n    /* \"contracts/ERC20/LinkDaoPresale.sol\":28432:28462  _balances[account].add(amount) */\n  swap2\n  swap1\n  0x20\n  shr\n  jump\t// in\ntag_23:\n    /* \"contracts/ERC20/LinkDaoPresale.sol\":28411:28420  _balances */\n  0x01\n    /* \"contracts/ERC20/LinkDaoPresale.sol\":28411:28429  _balances[account] */\n  0x00\n    /* \"contracts/ERC20/LinkDaoPresale.sol\":28421:28428  account */\n  dup6\n    /* \"contracts/ERC20/LinkDaoPresale.sol\":28411:28429  _balances[account] */\n  0xffffffffffffffffffffffffffffffffffffffff\n  and\n  0xffffffffffffffffffffffffffffffffffffffff\n  and\n  dup2\n  mstore\n  0x20\n  add\n  swap1\n  dup2\n  mstore\n  0x20\n  add\n  0x00\n  keccak256\n    /* \"contracts/ERC20/LinkDaoPresale.sol\":28411:28462  _balances[account] = _balances[account].add(amount) */\n  dup2\n  swap1\n  sstore\n  pop\n    /* \"contracts/ERC20/LinkDaoPresale.sol\":28499:28506  account */\n  dup3\n    /* \"contracts/ERC20/LinkDaoPresale.sol\":28478:28515  Transfer(address(0), account, amount) */\n  0xffffffffffffffffffffffffffffffffffffffff\n  and\n    /* \"contracts/ERC20/LinkDaoPresale.sol\":28495:28496  0 */\n  0x00\n    /* \"contracts/ERC20/LinkDaoPresale.sol\":28478:28515  Transfer(address(0), account, amount) */\n  0xffffffffffffffffffffffffffffffffffffffff\n  and\n  0xddf252ad1be2c89b69c2b068fc378daa952ba7f163c4a11628f55a4df523b3ef\n    /* \"contracts/ERC20/LinkDaoPresale.sol\":28508:28514  amount */\n  dup5\n    /* \"contracts/ERC20/LinkDaoPresale.sol\":28478:28515  Transfer(address(0), account, amount) */\n  mload(0x40)\n  dup1\n  dup3\n  dup2\n  mstore\n  0x20\n  add\n  swap2\n  pop\n  pop\n  mload(0x40)\n  dup1\n  swap2\n  sub\n  swap1\n  log3\n    /* \"contracts/ERC20/LinkDaoPresale.sol\":28108:28523  function _mint(address account, uint256 amount) internal returns (bool) {\r... */\ntag_17:\n  swap3\n  swap2\n  pop\n  pop\n  jump\t// out\n    /* \"contracts/ERC20/LinkDaoPresale.sol\":7862:8043  function add(uint256 a, uint256 b) internal pure returns (uint256) {\r... */\ntag_20:\n    /* \"contracts/ERC20/LinkDaoPresale.sol\":7920:7927  uint256 */\n  0x00\n    /* \"contracts/ERC20/LinkDaoPresale.sol\":7940:7949  uint256 c */\n  dup1\n    /* \"contracts/ERC20/LinkDaoPresale.sol\":7956:7957  b */\n  dup3\n    /* \"contracts/ERC20/LinkDaoPresale.sol\":7952:7953  a */\n  dup5\n    /* \"contracts/ERC20/LinkDaoPresale.sol\":7952:7957  a + b */\n  add\n    /* \"contracts/ERC20/LinkDaoPresale.sol\":7940:7957  uint256 c = a + b */\n  swap1\n  pop\n    /* \"contracts/ERC20/LinkDaoPresale.sol\":7981:7982  a */\n  dup4\n    /* \"contracts/ERC20/LinkDaoPresale.sol\":7976:7977  c */\n  dup2\n    /* \"contracts/ERC20/LinkDaoPresale.sol\":7976:7982  c >= a */\n  lt\n  iszero\n    /* \"contracts/ERC20/LinkDaoPresale.sol\":7968:8014  require(c >= a, \"SafeMath: addition overflow\") */\n  tag_25\n  jumpi\n  mload(0x40)\n  0x08c379a000000000000000000000000000000000000000000000000000000000\n  dup2\n  mstore\n  0x04\n  add\n  dup1\n  dup1\n  0x20\n  add\n  dup3\n  dup2\n  sub\n  dup3\n  mstore\n  0x1b\n  dup2\n  mstore\n  0x20\n  add\n  dup1\n  0x536166654d6174683a206164646974696f6e206f766572666c6f770000000000\n  dup2\n  mstore\n  pop\n  0x20\n  add\n  swap2\n  pop\n  pop\n  mload(0x40)\n  dup1\n  swap2\n  sub\n  swap1\n  revert\ntag_25:\n    /* \"contracts/ERC20/LinkDaoPresale.sol\":8034:8035  c */\n  dup1\n    /* \"contracts/ERC20/LinkDaoPresale.sol\":8027:8035  return c */\n  swap2\n  pop\n  pop\n    /* \"contracts/ERC20/LinkDaoPresale.sol\":7862:8043  function add(uint256 a, uint256 b) internal pure returns (uint256) {\r... */\n  swap3\n  swap2\n  pop\n  pop\n  jump\t// out\n    /* \"contracts/ERC20/LinkDaoPresale.sol\":30605:39755  contract LINKDAO_Token is BEP20(\"LinkDao\", \"LKD\") {\r... */\ntag_11:\n  dup3\n  dup1\n  sload\n  0x01\n  dup2\n  0x01\n  and\n  iszero\n  0x0100\n  mul\n  sub\n  and\n  0x02\n  swap1\n  div\n  swap1\n  0x00\n  mstore\n  keccak256(0x00, 0x20)\n  swap1\n  0x1f\n  add\n  0x20\n  swap1\n  div\n  dup2\n  add\n  swap3\n  dup3\n  0x1f\n  lt\n  tag_27\n  jumpi\n  dup1\n  mload\n  not(0xff)\n  and\n  dup4\n  dup1\n  add\n  or\n  dup6\n  sstore\n  jump(tag_26)\ntag_27:\n  dup3\n  dup1\n  add\n  0x01\n  add\n  dup6\n  sstore\n  dup3\n  iszero\n  tag_26\n  jumpi\n  swap2\n  dup3\n  add\ntag_28:\n  dup3\n  dup2\n  gt\n  iszero\n  tag_29\n  jumpi\n  dup3\n  mload\n  dup3\n  sstore\n  swap2\n  0x20\n  add\n  swap2\n  swap1\n  0x01\n  add\n  swap1\n  jump(tag_28)\ntag_29:\ntag_26:\n  pop\n  swap1\n  pop\n  tag_30\n  swap2\n  swap1\n  tag_31\n  jump\t// in\ntag_30:\n  pop\n  swap1\n  jump\t// out\ntag_31:\ntag_32:\n  dup1\n  dup3\n  gt\n  iszero\n  tag_33\n  jumpi\n  0x00\n  dup2\n  0x00\n  swap1\n  sstore\n  pop\n  0x01\n  add\n  jump(tag_32)\ntag_33:\n  pop\n  swap1\n  jump\t// out\ntag_15:\n  dataSize(sub_0)\n  dup1\n  dataOffset(sub_0)\n  0x00\n  codecopy\n  0x00\n  return\nstop\n\nsub_0: assembly {\n        /* \"contracts/ERC20/LinkDaoPresale.sol\":30605:39755  contract LINKDAO_Token is BEP20(\"LinkDao\", \"LKD\") {\r... */\n      mstore(0x40, 0x80)\n      callvalue\n      dup1\n      iszero\n      tag_1\n      jumpi\n      0x00\n      dup1\n      revert\n    tag_1:\n      pop\n      jumpi(tag_2, lt(calldatasize, 0x04))\n      shr(0xe0, calldataload(0x00))\n      dup1\n      0x782d6fe1\n      gt\n      tag_32\n      jumpi\n      dup1\n      0xa9059cbb\n      gt\n      tag_33\n      jumpi\n      dup1\n      0xdd62ed3e\n      gt\n      tag_34\n      jumpi\n      dup1\n      0xdd62ed3e\n      eq\n      tag_28\n      jumpi\n      dup1\n      0xe7a324dc\n      eq\n      tag_29\n      jumpi\n      dup1\n      0xf1127ed8\n      eq\n      tag_30\n      jumpi\n      dup1\n      0xf2fde38b\n      eq\n      tag_31\n      jumpi\n      jump(tag_2)\n    tag_34:\n      dup1\n      0xa9059cbb\n      eq\n      tag_24\n      jumpi\n      dup1\n      0xb4b5ea57\n      eq\n      tag_25\n      jumpi\n      dup1\n      0xc3cda520\n      eq\n      tag_26\n      jumpi\n      dup1\n      0xd5abeb01\n      eq\n      tag_27\n      jumpi\n      jump(tag_2)\n    tag_33:\n      dup1\n      0x8da5cb5b\n      gt\n      tag_35\n      jumpi\n      dup1\n      0x8da5cb5b\n      eq\n      tag_20\n      jumpi\n      dup1\n      0x95d89b41\n      eq\n      tag_21\n      jumpi\n      dup1\n      0xa0712d68\n      eq\n      tag_22\n      jumpi\n      dup1\n      0xa457c2d7\n      eq\n      tag_23\n      jumpi\n      jump(tag_2)\n    tag_35:\n      dup1\n      0x782d6fe1\n      eq\n      tag_17\n      jumpi\n      dup1\n      0x7ecebe00\n      eq\n      tag_18\n      jumpi\n      dup1\n      0x893d20e8\n      eq\n      tag_19\n      jumpi\n      jump(tag_2)\n    tag_32:\n      dup1\n      0x39509351\n      gt\n      tag_36\n      jumpi\n      dup1\n      0x5c19a95c\n      gt\n      tag_37\n      jumpi\n      dup1\n      0x5c19a95c\n      eq\n      tag_13\n      jumpi\n      dup1\n      0x6fcfff45\n      eq\n      tag_14\n      jumpi\n      dup1\n      0x70a08231\n      eq\n      tag_15\n      jumpi\n      dup1\n      0x715018a6\n      eq\n      tag_16\n      jumpi\n      jump(tag_2)\n    tag_37:\n      dup1\n      0x39509351\n      eq\n      tag_10\n      jumpi\n      dup1\n      0x40c10f19\n      eq\n      tag_11\n      jumpi\n      dup1\n      0x587cde1e\n      eq\n      tag_12\n      jumpi\n      jump(tag_2)\n    tag_36:\n      dup1\n      0x18160ddd\n      gt\n      tag_38\n      jumpi\n      dup1\n      0x18160ddd\n      eq\n      tag_6\n      jumpi\n      dup1\n      0x20606b70\n      eq\n      tag_7\n      jumpi\n      dup1\n      0x23b872dd\n      eq\n      tag_8\n      jumpi\n      dup1\n      0x313ce567\n      eq\n      tag_9\n      jumpi\n      jump(tag_2)\n    tag_38:\n      dup1\n      0x06fdde03\n      eq\n      tag_3\n      jumpi\n      dup1\n      0x095ea7b3\n      eq\n      tag_4\n      jumpi\n      dup1\n      0x0c16ea83\n      eq\n      tag_5\n      jumpi\n    tag_2:\n      0x00\n      dup1\n      revert\n        /* \"contracts/ERC20/LinkDaoPresale.sol\":21985:22077  function name() public view override returns (string memory) {\r... */\n    tag_3:\n      tag_39\n      tag_40\n      jump\t// in\n    tag_39:\n      mload(0x40)\n      dup1\n      dup1\n      0x20\n      add\n      dup3\n      dup2\n      sub\n      dup3\n      mstore\n      dup4\n      dup2\n      dup2\n      mload\n      dup2\n      mstore\n      0x20\n      add\n      swap2\n      pop\n      dup1\n      mload\n      swap1\n      0x20\n      add\n      swap1\n      dup1\n      dup4\n      dup4\n      0x00\n    tag_41:\n      dup4\n      dup2\n      lt\n      iszero\n      tag_43\n      jumpi\n      dup1\n      dup3\n      add\n      mload\n      dup2\n      dup5\n      add\n      mstore\n      0x20\n      dup2\n      add\n      swap1\n      pop\n      jump(tag_41)\n    tag_43:\n      pop\n      pop\n      pop\n      pop\n      swap1\n      pop\n      swap1\n      dup2\n      add\n      swap1\n      0x1f\n      and\n      dup1\n      iszero\n      tag_44\n      jumpi\n      dup1\n      dup3\n      sub\n      dup1\n      mload\n      0x01\n      dup4\n      0x20\n      sub\n      0x0100\n      exp\n      sub\n      not\n      and\n      dup2\n      mstore\n      0x20\n      add\n      swap2\n      pop\n    tag_44:\n      pop\n      swap3\n      pop\n      pop\n      pop\n      mload(0x40)\n      dup1\n      swap2\n      sub\n      swap1\n      return\n        /* \"contracts/ERC20/LinkDaoPresale.sol\":23761:23954  function approve(address spender, uint256 amount)\r... */\n    tag_4:\n      tag_45\n      0x04\n      dup1\n      calldatasize\n      sub\n      0x40\n      dup2\n      lt\n      iszero\n      tag_46\n      jumpi\n      0x00\n      dup1\n      revert\n    tag_46:\n      dup2\n      add\n      swap1\n      dup1\n      dup1\n      calldataload\n      0xffffffffffffffffffffffffffffffffffffffff\n      and\n      swap1\n      0x20\n      add\n      swap1\n      swap3\n      swap2\n      swap1\n      dup1\n      calldataload\n      swap1\n      0x20\n      add\n      swap1\n      swap3\n      swap2\n      swap1\n      pop\n      pop\n      pop\n      tag_47\n      jump\t// in\n    tag_45:\n      mload(0x40)\n      dup1\n      dup3\n      iszero\n      iszero\n      dup2\n      mstore\n      0x20\n      add\n      swap2\n      pop\n      pop\n      mload(0x40)\n      dup1\n      swap2\n      sub\n      swap1\n      return\n        /* \"contracts/ERC20/LinkDaoPresale.sol\":22569:22673  function preMineSupply() public view override returns (uint256) {\r... */\n    tag_5:\n      tag_48\n      tag_49\n      jump\t// in\n    tag_48:\n      mload(0x40)\n      dup1\n      dup3\n      dup2\n      mstore\n      0x20\n      add\n      swap2\n      pop\n      pop\n      mload(0x40)\n      dup1\n      swap2\n      sub\n      swap1\n      return\n        /* \"contracts/ERC20/LinkDaoPresale.sol\":22461:22561  function totalSupply() public view override returns (uint256) {\r... */\n    tag_6:\n      tag_50\n      tag_51\n      jump\t// in\n    tag_50:\n      mload(0x40)\n      dup1\n      dup3\n      dup2\n      mstore\n      0x20\n      add\n      swap2\n      pop\n      pop\n      mload(0x40)\n      dup1\n      swap2\n      sub\n      swap1\n      return\n        /* \"contracts/ERC20/LinkDaoPresale.sol\":31884:32039  bytes32 public constant DOMAIN_TYPEHASH =\r... */\n    tag_7:\n      tag_52\n      tag_53\n      jump\t// in\n    tag_52:\n      mload(0x40)\n      dup1\n      dup3\n      dup2\n      mstore\n      0x20\n      add\n      swap2\n      pop\n      pop\n      mload(0x40)\n      dup1\n      swap2\n      sub\n      swap1\n      return\n        /* \"contracts/ERC20/LinkDaoPresale.sol\":24425:24871  function transferFrom(\r... */\n    tag_8:\n      tag_54\n      0x04\n      dup1\n      calldatasize\n      sub\n      0x60\n      dup2\n      lt\n      iszero\n      tag_55\n      jumpi\n      0x00\n      dup1\n      revert\n    tag_55:\n      dup2\n      add\n      swap1\n      dup1\n      dup1\n      calldataload\n      0xffffffffffffffffffffffffffffffffffffffff\n      and\n      swap1\n      0x20\n      add\n      swap1\n      swap3\n      swap2\n      swap1\n      dup1\n      calldataload\n      0xffffffffffffffffffffffffffffffffffffffff\n      and\n      swap1\n      0x20\n      add\n      swap1\n      swap3\n      swap2\n      swap1\n      dup1\n      calldataload\n      swap1\n      0x20\n      add\n      swap1\n      swap3\n      swap2\n      swap1\n      pop\n      pop\n      pop\n      tag_56\n      jump\t// in\n    tag_54:\n      mload(0x40)\n      dup1\n      dup3\n      iszero\n      iszero\n      dup2\n      mstore\n      0x20\n      add\n      swap2\n      pop\n      pop\n      mload(0x40)\n      dup1\n      swap2\n      sub\n      swap1\n      return\n        /* \"contracts/ERC20/LinkDaoPresale.sol\":22144:22236  function decimals() public view override returns (uint8) {\r... */\n    tag_9:\n      tag_57\n      tag_58\n      jump\t// in\n    tag_57:\n      mload(0x40)\n      dup1\n      dup3\n      0xff\n      and\n      dup2\n      mstore\n      0x20\n      add\n      swap2\n      pop\n      pop\n      mload(0x40)\n      dup1\n      swap2\n      sub\n      swap1\n      return\n        /* \"contracts/ERC20/LinkDaoPresale.sol\":25279:25562  function increaseAllowance(address spender, uint256 addedValue)\r... */\n    tag_10:\n      tag_59\n      0x04\n      dup1\n      calldatasize\n      sub\n      0x40\n      dup2\n      lt\n      iszero\n      tag_60\n      jumpi\n      0x00\n      dup1\n      revert\n    tag_60:\n      dup2\n      add\n      swap1\n      dup1\n      dup1\n      calldataload\n      0xffffffffffffffffffffffffffffffffffffffff\n      and\n      swap1\n      0x20\n      add\n      swap1\n      swap3\n      swap2\n      swap1\n      dup1\n      calldataload\n      swap1\n      0x20\n      add\n      swap1\n      swap3\n      swap2\n      swap1\n      pop\n      pop\n      pop\n      tag_61\n      jump\t// in\n    tag_59:\n      mload(0x40)\n      dup1\n      dup3\n      iszero\n      iszero\n      dup2\n      mstore\n      0x20\n      add\n      swap2\n      pop\n      pop\n      mload(0x40)\n      dup1\n      swap2\n      sub\n      swap1\n      return\n        /* \"contracts/ERC20/LinkDaoPresale.sol\":30760:30922  function mint(address _to, uint256 _amount) public onlyOwner {\r... */\n    tag_11:\n      tag_62\n      0x04\n      dup1\n      calldatasize\n      sub\n      0x40\n      dup2\n      lt\n      iszero\n      tag_63\n      jumpi\n      0x00\n      dup1\n      revert\n    tag_63:\n      dup2\n      add\n      swap1\n      dup1\n      dup1\n      calldataload\n      0xffffffffffffffffffffffffffffffffffffffff\n      and\n      swap1\n      0x20\n      add\n      swap1\n      swap3\n      swap2\n      swap1\n      dup1\n      calldataload\n      swap1\n      0x20\n      add\n      swap1\n      swap3\n      swap2\n      swap1\n      pop\n      pop\n      pop\n      tag_64\n      jump\t// in\n    tag_62:\n      stop\n        /* \"contracts/ERC20/LinkDaoPresale.sol\":32983:33100  function delegates(address delegator) external view returns (address) {\r... */\n    tag_12:\n      tag_65\n      0x04\n      dup1\n      calldatasize\n      sub\n      0x20\n      dup2\n      lt\n      iszero\n      tag_66\n      jumpi\n      0x00\n      dup1\n      revert\n    tag_66:\n      dup2\n      add\n      swap1\n      dup1\n      dup1\n      calldataload\n      0xffffffffffffffffffffffffffffffffffffffff\n      and\n      swap1\n      0x20\n      add\n      swap1\n      swap3\n      swap2\n      swap1\n      pop\n      pop\n      pop\n      tag_67\n      jump\t// in\n    tag_65:\n      mload(0x40)\n      dup1\n      dup3\n      0xffffffffffffffffffffffffffffffffffffffff\n      and\n      dup2\n      mstore\n      0x20\n      add\n      swap2\n      pop\n      pop\n      mload(0x40)\n      dup1\n      swap2\n      sub\n      swap1\n      return\n        /* \"contracts/ERC20/LinkDaoPresale.sol\":33248:33352  function delegate(address delegatee) external {\r... */\n    tag_13:\n      tag_68\n      0x04\n      dup1\n      calldatasize\n      sub\n      0x20\n      dup2\n      lt\n      iszero\n      tag_69\n      jumpi\n      0x00\n      dup1\n      revert\n    tag_69:\n      dup2\n      add\n      swap1\n      dup1\n      dup1\n      calldataload\n      0xffffffffffffffffffffffffffffffffffffffff\n      and\n      swap1\n      0x20\n      add\n      swap1\n      swap3\n      swap2\n      swap1\n      pop\n      pop\n      pop\n      tag_70\n      jump\t// in\n    tag_68:\n      stop\n        /* \"contracts/ERC20/LinkDaoPresale.sol\":31763:31811  mapping(address => uint32) public numCheckpoints */\n    tag_14:\n      tag_71\n      0x04\n      dup1\n      calldatasize\n      sub\n      0x20\n      dup2\n      lt\n      iszero\n      tag_72\n      jumpi\n      0x00\n      dup1\n      revert\n    tag_72:\n      dup2\n      add\n      swap1\n      dup1\n      dup1\n      calldataload\n      0xffffffffffffffffffffffffffffffffffffffff\n      and\n      swap1\n      0x20\n      add\n      swap1\n      swap3\n      swap2\n      swap1\n      pop\n      pop\n      pop\n      tag_73\n      jump\t// in\n    tag_71:\n      mload(0x40)\n      dup1\n      dup3\n      0xffffffff\n      and\n      dup2\n      mstore\n      0x20\n      add\n      swap2\n      pop\n      pop\n      mload(0x40)\n      dup1\n      swap2\n      sub\n      swap1\n      return\n        /* \"contracts/ERC20/LinkDaoPresale.sol\":22839:22958  function balanceOf(address account) public view override returns (uint256) {\r... */\n    tag_15:\n      tag_74\n      0x04\n      dup1\n      calldatasize\n      sub\n      0x20\n      dup2\n      lt\n      iszero\n      tag_75\n      jumpi\n      0x00\n      dup1\n      revert\n    tag_75:\n      dup2\n      add\n      swap1\n      dup1\n      dup1\n      calldataload\n      0xffffffffffffffffffffffffffffffffffffffff\n      and\n      swap1\n      0x20\n      add\n      swap1\n      swap3\n      swap2\n      swap1\n      pop\n      pop\n      pop\n      tag_76\n      jump\t// in\n    tag_74:\n      mload(0x40)\n      dup1\n      dup3\n      dup2\n      mstore\n      0x20\n      add\n      swap2\n      pop\n      pop\n      mload(0x40)\n      dup1\n      swap2\n      sub\n      swap1\n      return\n        /* \"contracts/ERC20/LinkDaoPresale.sol\":2877:3017  function renounceOwnership() public onlyOwner {\r... */\n    tag_16:\n      tag_77\n      tag_78\n      jump\t// in\n    tag_77:\n      stop\n        /* \"contracts/ERC20/LinkDaoPresale.sol\":35746:37038  function getPriorVotes(address account, uint256 blockNumber)\r... */\n    tag_17:\n      tag_79\n      0x04\n      dup1\n      calldatasize\n      sub\n      0x40\n      dup2\n      lt\n      iszero\n      tag_80\n      jumpi\n      0x00\n      dup1\n      revert\n    tag_80:\n      dup2\n      add\n      swap1\n      dup1\n      dup1\n      calldataload\n      0xffffffffffffffffffffffffffffffffffffffff\n      and\n      swap1\n      0x20\n      add\n      swap1\n      swap3\n      swap2\n      swap1\n      dup1\n      calldataload\n      swap1\n      0x20\n      add\n      swap1\n      swap3\n      swap2\n      swap1\n      pop\n      pop\n      pop\n      tag_81\n      jump\t// in\n    tag_79:\n      mload(0x40)\n      dup1\n      dup3\n      dup2\n      mstore\n      0x20\n      add\n      swap2\n      pop\n      pop\n      mload(0x40)\n      dup1\n      swap2\n      sub\n      swap1\n      return\n        /* \"contracts/ERC20/LinkDaoPresale.sol\":32340:32381  mapping(address => uint256) public nonces */\n    tag_18:\n      tag_82\n      0x04\n      dup1\n      calldatasize\n      sub\n      0x20\n      dup2\n      lt\n      iszero\n      tag_83\n      jumpi\n      0x00\n      dup1\n      revert\n    tag_83:\n      dup2\n      add\n      swap1\n      dup1\n      dup1\n      calldataload\n      0xffffffffffffffffffffffffffffffffffffffff\n      and\n      swap1\n      0x20\n      add\n      swap1\n      swap3\n      swap2\n      swap1\n      pop\n      pop\n      pop\n      tag_84\n      jump\t// in\n    tag_82:\n      mload(0x40)\n      dup1\n      dup3\n      dup2\n      mstore\n      0x20\n      add\n      swap2\n      pop\n      pop\n      mload(0x40)\n      dup1\n      swap2\n      sub\n      swap1\n      return\n        /* \"contracts/ERC20/LinkDaoPresale.sol\":21828:21922  function getOwner() external view override returns (address) {\r... */\n    tag_19:\n      tag_85\n      tag_86\n      jump\t// in\n    tag_85:\n      mload(0x40)\n      dup1\n      dup3\n      0xffffffffffffffffffffffffffffffffffffffff\n      and\n      dup2\n      mstore\n      0x20\n      add\n      swap2\n      pop\n      pop\n      mload(0x40)\n      dup1\n      swap2\n      sub\n      swap1\n      return\n        /* \"contracts/ERC20/LinkDaoPresale.sol\":2235:2314  function owner() public view returns (address) {\r... */\n    tag_20:\n      tag_87\n      tag_88\n      jump\t// in\n    tag_87:\n      mload(0x40)\n      dup1\n      dup3\n      0xffffffffffffffffffffffffffffffffffffffff\n      and\n      dup2\n      mstore\n      0x20\n      add\n      swap2\n      pop\n      pop\n      mload(0x40)\n      dup1\n      swap2\n      sub\n      swap1\n      return\n        /* \"contracts/ERC20/LinkDaoPresale.sol\":22301:22397  function symbol() public view override returns (string memory) {\r... */\n    tag_21:\n      tag_89\n      tag_90\n      jump\t// in\n    tag_89:\n      mload(0x40)\n      dup1\n      dup1\n      0x20\n      add\n      dup3\n      dup2\n      sub\n      dup3\n      mstore\n      dup4\n      dup2\n      dup2\n      mload\n      dup2\n      mstore\n      0x20\n      add\n      swap2\n      pop\n      dup1\n      mload\n      swap1\n      0x20\n      add\n      swap1\n      dup1\n      dup4\n      dup4\n      0x00\n    tag_91:\n      dup4\n      dup2\n      lt\n      iszero\n      tag_93\n      jumpi\n      dup1\n      dup3\n      add\n      mload\n      dup2\n      dup5\n      add\n      mstore\n      0x20\n      dup2\n      add\n      swap1\n      pop\n      jump(tag_91)\n    tag_93:\n      pop\n      pop\n      pop\n      pop\n      swap1\n      pop\n      swap1\n      dup2\n      add\n      swap1\n      0x1f\n      and\n      dup1\n      iszero\n      tag_94\n      jumpi\n      dup1\n      dup3\n      sub\n      dup1\n      mload\n      0x01\n      dup4\n      0x20\n      sub\n      0x0100\n      exp\n      sub\n      not\n      and\n      dup2\n      mstore\n      0x20\n      add\n      swap2\n      pop\n    tag_94:\n      pop\n      swap3\n      pop\n      pop\n      pop\n      mload(0x40)\n      dup1\n      swap2\n      sub\n      swap1\n      return\n        /* \"contracts/ERC20/LinkDaoPresale.sol\":26665:26795  function mint(uint256 amount) public onlyOwner returns (bool) {\r... */\n    tag_22:\n      tag_95\n      0x04\n      dup1\n      calldatasize\n      sub\n      0x20\n      dup2\n      lt\n      iszero\n      tag_96\n      jumpi\n      0x00\n      dup1\n      revert\n    tag_96:\n      dup2\n      add\n      swap1\n      dup1\n      dup1\n      calldataload\n      swap1\n      0x20\n      add\n      swap1\n      swap3\n      swap2\n      swap1\n      pop\n      pop\n      pop\n      tag_97\n      jump\t// in\n    tag_95:\n      mload(0x40)\n      dup1\n      dup3\n      iszero\n      iszero\n      dup2\n      mstore\n      0x20\n      add\n      swap2\n      pop\n      pop\n      mload(0x40)\n      dup1\n      swap2\n      sub\n      swap1\n      return\n        /* \"contracts/ERC20/LinkDaoPresale.sol\":26064:26447  function decreaseAllowance(address spender, uint256 subtractedValue)\r... */\n    tag_23:\n      tag_98\n      0x04\n      dup1\n      calldatasize\n      sub\n      0x40\n      dup2\n      lt\n      iszero\n      tag_99\n      jumpi\n      0x00\n      dup1\n      revert\n    tag_99:\n      dup2\n      add\n      swap1\n      dup1\n      dup1\n      calldataload\n      0xffffffffffffffffffffffffffffffffffffffff\n      and\n      swap1\n      0x20\n      add\n      swap1\n      swap3\n      swap2\n      swap1\n      dup1\n      calldataload\n      swap1\n      0x20\n      add\n      swap1\n      swap3\n      swap2\n      swap1\n      pop\n      pop\n      pop\n      tag_100\n      jump\t// in\n    tag_98:\n      mload(0x40)\n      dup1\n      dup3\n      iszero\n      iszero\n      dup2\n      mstore\n      0x20\n      add\n      swap2\n      pop\n      pop\n      mload(0x40)\n      dup1\n      swap2\n      sub\n      swap1\n      return\n        /* \"contracts/ERC20/LinkDaoPresale.sol\":23170:23369  function transfer(address recipient, uint256 amount)\r... */\n    tag_24:\n      tag_101\n      0x04\n      dup1\n      calldatasize\n      sub\n      0x40\n      dup2\n      lt\n      iszero\n      tag_102\n      jumpi\n      0x00\n      dup1\n      revert\n    tag_102:\n      dup2\n      add\n      swap1\n      dup1\n      dup1\n      calldataload\n      0xffffffffffffffffffffffffffffffffffffffff\n      and\n      swap1\n      0x20\n      add\n      swap1\n      swap3\n      swap2\n      swap1\n      dup1\n      calldataload\n      swap1\n      0x20\n      add\n      swap1\n      swap3\n      swap2\n      swap1\n      pop\n      pop\n      pop\n      tag_103\n      jump\t// in\n    tag_101:\n      mload(0x40)\n      dup1\n      dup3\n      iszero\n      iszero\n      dup2\n      mstore\n      0x20\n      add\n      swap2\n      pop\n      pop\n      mload(0x40)\n      dup1\n      swap2\n      sub\n      swap1\n      return\n        /* \"contracts/ERC20/LinkDaoPresale.sol\":35079:35315  function getCurrentVotes(address account) external view returns (uint256) {\r... */\n    tag_25:\n      tag_104\n      0x04\n      dup1\n      calldatasize\n      sub\n      0x20\n      dup2\n      lt\n      iszero\n      tag_105\n      jumpi\n      0x00\n      dup1\n      revert\n    tag_105:\n      dup2\n      add\n      swap1\n      dup1\n      dup1\n      calldataload\n      0xffffffffffffffffffffffffffffffffffffffff\n      and\n      swap1\n      0x20\n      add\n      swap1\n      swap3\n      swap2\n      swap1\n      pop\n      pop\n      pop\n      tag_106\n      jump\t// in\n    tag_104:\n      mload(0x40)\n      dup1\n      dup3\n      dup2\n      mstore\n      0x20\n      add\n      swap2\n      pop\n      pop\n      mload(0x40)\n      dup1\n      swap2\n      sub\n      swap1\n      return\n        /* \"contracts/ERC20/LinkDaoPresale.sol\":33786:34878  function delegateBySig(\r... */\n    tag_26:\n      tag_107\n      0x04\n      dup1\n      calldatasize\n      sub\n      0xc0\n      dup2\n      lt\n      iszero\n      tag_108\n      jumpi\n      0x00\n      dup1\n      revert\n    tag_108:\n      dup2\n      add\n      swap1\n      dup1\n      dup1\n      calldataload\n      0xffffffffffffffffffffffffffffffffffffffff\n      and\n      swap1\n      0x20\n      add\n      swap1\n      swap3\n      swap2\n      swap1\n      dup1\n      calldataload\n      swap1\n      0x20\n      add\n      swap1\n      swap3\n      swap2\n      swap1\n      dup1\n      calldataload\n      swap1\n      0x20\n      add\n      swap1\n      swap3\n      swap2\n      swap1\n      dup1\n      calldataload\n      0xff\n      and\n      swap1\n      0x20\n      add\n      swap1\n      swap3\n      swap2\n      swap1\n      dup1\n      calldataload\n      swap1\n      0x20\n      add\n      swap1\n      swap3\n      swap2\n      swap1\n      dup1\n      calldataload\n      swap1\n      0x20\n      add\n      swap1\n      swap3\n      swap2\n      swap1\n      pop\n      pop\n      pop\n      tag_109\n      jump\t// in\n    tag_107:\n      stop\n        /* \"contracts/ERC20/LinkDaoPresale.sol\":22681:22777  function maxSupply() public view override returns (uint256) {\r... */\n    tag_27:\n      tag_110\n      tag_111\n      jump\t// in\n    tag_110:\n      mload(0x40)\n      dup1\n      dup3\n      dup2\n      mstore\n      0x20\n      add\n      swap2\n      pop\n      pop\n      mload(0x40)\n      dup1\n      swap2\n      sub\n      swap1\n      return\n        /* \"contracts/ERC20/LinkDaoPresale.sol\":23431:23615  function allowance(address owner, address spender)\r... */\n    tag_28:\n      tag_112\n      0x04\n      dup1\n      calldatasize\n      sub\n      0x40\n      dup2\n      lt\n      iszero\n      tag_113\n      jumpi\n      0x00\n      dup1\n      revert\n    tag_113:\n      dup2\n      add\n      swap1\n      dup1\n      dup1\n      calldataload\n      0xffffffffffffffffffffffffffffffffffffffff\n      and\n      swap1\n      0x20\n      add\n      swap1\n      swap3\n      swap2\n      swap1\n      dup1\n      calldataload\n      0xffffffffffffffffffffffffffffffffffffffff\n      and\n      swap1\n      0x20\n      add\n      swap1\n      swap3\n      swap2\n      swap1\n      pop\n      pop\n      pop\n      tag_114\n      jump\t// in\n    tag_112:\n      mload(0x40)\n      dup1\n      dup3\n      dup2\n      mstore\n      0x20\n      add\n      swap2\n      pop\n      pop\n      mload(0x40)\n      dup1\n      swap2\n      sub\n      swap1\n      return\n        /* \"contracts/ERC20/LinkDaoPresale.sol\":32133:32259  bytes32 public constant DELEGATION_TYPEHASH =\r... */\n    tag_29:\n      tag_115\n      tag_116\n      jump\t// in\n    tag_115:\n      mload(0x40)\n      dup1\n      dup3\n      dup2\n      mstore\n      0x20\n      add\n      swap2\n      pop\n      pop\n      mload(0x40)\n      dup1\n      swap2\n      sub\n      swap1\n      return\n        /* \"contracts/ERC20/LinkDaoPresale.sol\":31626:31694  mapping(address => mapping(uint32 => Checkpoint)) public checkpoints */\n    tag_30:\n      tag_117\n      0x04\n      dup1\n      calldatasize\n      sub\n      0x40\n      dup2\n      lt\n      iszero\n      tag_118\n      jumpi\n      0x00\n      dup1\n      revert\n    tag_118:\n      dup2\n      add\n      swap1\n      dup1\n      dup1\n      calldataload\n      0xffffffffffffffffffffffffffffffffffffffff\n      and\n      swap1\n      0x20\n      add\n      swap1\n      swap3\n      swap2\n      swap1\n      dup1\n      calldataload\n      0xffffffff\n      and\n      swap1\n      0x20\n      add\n      swap1\n      swap3\n      swap2\n      swap1\n      pop\n      pop\n      pop\n      tag_119\n      jump\t// in\n    tag_117:\n      mload(0x40)\n      dup1\n      dup4\n      0xffffffff\n      and\n      dup2\n      mstore\n      0x20\n      add\n      dup3\n      dup2\n      mstore\n      0x20\n      add\n      swap3\n      pop\n      pop\n      pop\n      mload(0x40)\n      dup1\n      swap2\n      sub\n      swap1\n      return\n        /* \"contracts/ERC20/LinkDaoPresale.sol\":3172:3281  function transferOwnership(address newOwner) public onlyOwner {\r... */\n    tag_31:\n      tag_120\n      0x04\n      dup1\n      calldatasize\n      sub\n      0x20\n      dup2\n      lt\n      iszero\n      tag_121\n      jumpi\n      0x00\n      dup1\n      revert\n    tag_121:\n      dup2\n      add\n      swap1\n      dup1\n      dup1\n      calldataload\n      0xffffffffffffffffffffffffffffffffffffffff\n      and\n      swap1\n      0x20\n      add\n      swap1\n      swap3\n      swap2\n      swap1\n      pop\n      pop\n      pop\n      tag_122\n      jump\t// in\n    tag_120:\n      stop\n        /* \"contracts/ERC20/LinkDaoPresale.sol\":21985:22077  function name() public view override returns (string memory) {\r... */\n    tag_40:\n        /* \"contracts/ERC20/LinkDaoPresale.sol\":22031:22044  string memory */\n      0x60\n        /* \"contracts/ERC20/LinkDaoPresale.sol\":22064:22069  _name */\n      0x04\n        /* \"contracts/ERC20/LinkDaoPresale.sol\":22057:22069  return _name */\n      dup1\n      sload\n      0x01\n      dup2\n      0x01\n      and\n      iszero\n      0x0100\n      mul\n      sub\n      and\n      0x02\n      swap1\n      div\n      dup1\n      0x1f\n      add\n      0x20\n      dup1\n      swap2\n      div\n      mul\n      0x20\n      add\n      mload(0x40)\n      swap1\n      dup2\n      add\n      0x40\n      mstore\n      dup1\n      swap3\n      swap2\n      swap1\n      dup2\n      dup2\n      mstore\n      0x20\n      add\n      dup3\n      dup1\n      sload\n      0x01\n      dup2\n      0x01\n      and\n      iszero\n      0x0100\n      mul\n      sub\n      and\n      0x02\n      swap1\n      div\n      dup1\n      iszero\n      tag_125\n      jumpi\n      dup1\n      0x1f\n      lt\n      tag_126\n      jumpi\n      0x0100\n      dup1\n      dup4\n      sload\n      div\n      mul\n      dup4\n      mstore\n      swap2\n      0x20\n      add\n      swap2\n      jump(tag_125)\n    tag_126:\n      dup3\n      add\n      swap2\n      swap1\n      0x00\n      mstore\n      keccak256(0x00, 0x20)\n      swap1\n    tag_127:\n      dup2\n      sload\n      dup2\n      mstore\n      swap1\n      0x01\n      add\n      swap1\n      0x20\n      add\n      dup1\n      dup4\n      gt\n      tag_127\n      jumpi\n      dup3\n      swap1\n      sub\n      0x1f\n      and\n      dup3\n      add\n      swap2\n    tag_125:\n      pop\n      pop\n      pop\n      pop\n      pop\n      swap1\n      pop\n        /* \"contracts/ERC20/LinkDaoPresale.sol\":21985:22077  function name() public view override returns (string memory) {\r... */\n      swap1\n      jump\t// out\n        /* \"contracts/ERC20/LinkDaoPresale.sol\":23761:23954  function approve(address spender, uint256 amount)\r... */\n    tag_47:\n        /* \"contracts/ERC20/LinkDaoPresale.sol\":23863:23867  bool */\n      0x00\n        /* \"contracts/ERC20/LinkDaoPresale.sol\":23885:23924  _approve(_msgSender(), spender, amount) */\n      tag_129\n        /* \"contracts/ERC20/LinkDaoPresale.sol\":23894:23906  _msgSender() */\n      tag_130\n        /* \"contracts/ERC20/LinkDaoPresale.sol\":23894:23904  _msgSender */\n      tag_131\n        /* \"contracts/ERC20/LinkDaoPresale.sol\":23894:23906  _msgSender() */\n      jump\t// in\n    tag_130:\n        /* \"contracts/ERC20/LinkDaoPresale.sol\":23908:23915  spender */\n      dup5\n        /* \"contracts/ERC20/LinkDaoPresale.sol\":23917:23923  amount */\n      dup5\n        /* \"contracts/ERC20/LinkDaoPresale.sol\":23885:23893  _approve */\n      tag_132\n        /* \"contracts/ERC20/LinkDaoPresale.sol\":23885:23924  _approve(_msgSender(), spender, amount) */\n      jump\t// in\n    tag_129:\n        /* \"contracts/ERC20/LinkDaoPresale.sol\":23942:23946  true */\n      0x01\n        /* \"contracts/ERC20/LinkDaoPresale.sol\":23935:23946  return true */\n      swap1\n      pop\n        /* \"contracts/ERC20/LinkDaoPresale.sol\":23761:23954  function approve(address spender, uint256 amount)\r... */\n      swap3\n      swap2\n      pop\n      pop\n      jump\t// out\n        /* \"contracts/ERC20/LinkDaoPresale.sol\":22569:22673  function preMineSupply() public view override returns (uint256) {\r... */\n    tag_49:\n        /* \"contracts/ERC20/LinkDaoPresale.sol\":22624:22631  uint256 */\n      0x00\n        /* \"contracts/ERC20/LinkDaoPresale.sol\":20841:20856  10000000 * 1e18 */\n      0x084595161401484a000000\n        /* \"contracts/ERC20/LinkDaoPresale.sol\":22644:22665  return _preMineSupply */\n      swap1\n      pop\n        /* \"contracts/ERC20/LinkDaoPresale.sol\":22569:22673  function preMineSupply() public view override returns (uint256) {\r... */\n      swap1\n      jump\t// out\n        /* \"contracts/ERC20/LinkDaoPresale.sol\":22461:22561  function totalSupply() public view override returns (uint256) {\r... */\n    tag_51:\n        /* \"contracts/ERC20/LinkDaoPresale.sol\":22514:22521  uint256 */\n      0x00\n        /* \"contracts/ERC20/LinkDaoPresale.sol\":22541:22553  _totalSupply */\n      sload(0x03)\n        /* \"contracts/ERC20/LinkDaoPresale.sol\":22534:22553  return _totalSupply */\n      swap1\n      pop\n        /* \"contracts/ERC20/LinkDaoPresale.sol\":22461:22561  function totalSupply() public view override returns (uint256) {\r... */\n      swap1\n      jump\t// out\n        /* \"contracts/ERC20/LinkDaoPresale.sol\":31884:32039  bytes32 public constant DOMAIN_TYPEHASH =\r... */\n    tag_53:\n        /* \"contracts/ERC20/LinkDaoPresale.sol\":31935:32039  keccak256(\r... */\n      0x8cad95687ba82c2ce50e74f7b754645e5117c3a5bec8151c0726d5857980a866\n        /* \"contracts/ERC20/LinkDaoPresale.sol\":31884:32039  bytes32 public constant DOMAIN_TYPEHASH =\r... */\n      dup2\n      jump\t// out\n        /* \"contracts/ERC20/LinkDaoPresale.sol\":24425:24871  function transferFrom(\r... */\n    tag_56:\n        /* \"contracts/ERC20/LinkDaoPresale.sol\":24557:24561  bool */\n      0x00\n        /* \"contracts/ERC20/LinkDaoPresale.sol\":24574:24610  _transfer(sender, recipient, amount) */\n      tag_136\n        /* \"contracts/ERC20/LinkDaoPresale.sol\":24584:24590  sender */\n      dup5\n        /* \"contracts/ERC20/LinkDaoPresale.sol\":24592:24601  recipient */\n      dup5\n        /* \"contracts/ERC20/LinkDaoPresale.sol\":24603:24609  amount */\n      dup5\n        /* \"contracts/ERC20/LinkDaoPresale.sol\":24574:24583  _transfer */\n      tag_137\n        /* \"contracts/ERC20/LinkDaoPresale.sol\":24574:24610  _transfer(sender, recipient, amount) */\n      jump\t// in\n    tag_136:\n        /* \"contracts/ERC20/LinkDaoPresale.sol\":24621:24841  _approve(\r... */\n      tag_138\n        /* \"contracts/ERC20/LinkDaoPresale.sol\":24644:24650  sender */\n      dup5\n        /* \"contracts/ERC20/LinkDaoPresale.sol\":24665:24677  _msgSender() */\n      tag_139\n        /* \"contracts/ERC20/LinkDaoPresale.sol\":24665:24675  _msgSender */\n      tag_131\n        /* \"contracts/ERC20/LinkDaoPresale.sol\":24665:24677  _msgSender() */\n      jump\t// in\n    tag_139:\n        /* \"contracts/ERC20/LinkDaoPresale.sol\":24692:24830  _allowances[sender][_msgSender()].sub(\r... */\n      tag_140\n        /* \"contracts/ERC20/LinkDaoPresale.sol\":24748:24754  amount */\n      dup6\n        /* \"contracts/ERC20/LinkDaoPresale.sol\":24692:24830  _allowances[sender][_msgSender()].sub(\r... */\n      mload(0x40)\n      dup1\n      0x60\n      add\n      0x40\n      mstore\n      dup1\n      0x28\n      dup2\n      mstore\n      0x20\n      add\n      data_4f3506f4ba71c79c3cbd442a3afeb30e9b27af2d84e116a4385b34e267d2287e\n      0x28\n      swap2\n      codecopy\n        /* \"contracts/ERC20/LinkDaoPresale.sol\":24692:24703  _allowances */\n      0x02\n        /* \"contracts/ERC20/LinkDaoPresale.sol\":24692:24711  _allowances[sender] */\n      0x00\n        /* \"contracts/ERC20/LinkDaoPresale.sol\":24704:24710  sender */\n      dup12\n        /* \"contracts/ERC20/LinkDaoPresale.sol\":24692:24711  _allowances[sender] */\n      0xffffffffffffffffffffffffffffffffffffffff\n      and\n      0xffffffffffffffffffffffffffffffffffffffff\n      and\n      dup2\n      mstore\n      0x20\n      add\n      swap1\n      dup2\n      mstore\n      0x20\n      add\n      0x00\n      keccak256\n        /* \"contracts/ERC20/LinkDaoPresale.sol\":24692:24725  _allowances[sender][_msgSender()] */\n      0x00\n        /* \"contracts/ERC20/LinkDaoPresale.sol\":24712:24724  _msgSender() */\n      tag_141\n        /* \"contracts/ERC20/LinkDaoPresale.sol\":24712:24722  _msgSender */\n      tag_131\n        /* \"contracts/ERC20/LinkDaoPresale.sol\":24712:24724  _msgSender() */\n      jump\t// in\n    tag_141:\n        /* \"contracts/ERC20/LinkDaoPresale.sol\":24692:24725  _allowances[sender][_msgSender()] */\n      0xffffffffffffffffffffffffffffffffffffffff\n      and\n      0xffffffffffffffffffffffffffffffffffffffff\n      and\n      dup2\n      mstore\n      0x20\n      add\n      swap1\n      dup2\n      mstore\n      0x20\n      add\n      0x00\n      keccak256\n      sload\n        /* \"contracts/ERC20/LinkDaoPresale.sol\":24692:24729  _allowances[sender][_msgSender()].sub */\n      tag_142\n      swap1\n        /* \"contracts/ERC20/LinkDaoPresale.sol\":24692:24830  _allowances[sender][_msgSender()].sub(\r... */\n      swap3\n      swap2\n      swap1\n      0xffffffff\n      and\n      jump\t// in\n    tag_140:\n        /* \"contracts/ERC20/LinkDaoPresale.sol\":24621:24629  _approve */\n      tag_132\n        /* \"contracts/ERC20/LinkDaoPresale.sol\":24621:24841  _approve(\r... */\n      jump\t// in\n    tag_138:\n        /* \"contracts/ERC20/LinkDaoPresale.sol\":24859:24863  true */\n      0x01\n        /* \"contracts/ERC20/LinkDaoPresale.sol\":24852:24863  return true */\n      swap1\n      pop\n        /* \"contracts/ERC20/LinkDaoPresale.sol\":24425:24871  function transferFrom(\r... */\n      swap4\n      swap3\n      pop\n      pop\n      pop\n      jump\t// out\n        /* \"contracts/ERC20/LinkDaoPresale.sol\":22144:22236  function decimals() public view override returns (uint8) {\r... */\n    tag_58:\n        /* \"contracts/ERC20/LinkDaoPresale.sol\":22194:22199  uint8 */\n      0x00\n        /* \"contracts/ERC20/LinkDaoPresale.sol\":22219:22228  _decimals */\n      0x06\n      0x00\n      swap1\n      sload\n      swap1\n      0x0100\n      exp\n      swap1\n      div\n      0xff\n      and\n        /* \"contracts/ERC20/LinkDaoPresale.sol\":22212:22228  return _decimals */\n      swap1\n      pop\n        /* \"contracts/ERC20/LinkDaoPresale.sol\":22144:22236  function decimals() public view override returns (uint8) {\r... */\n      swap1\n      jump\t// out\n        /* \"contracts/ERC20/LinkDaoPresale.sol\":25279:25562  function increaseAllowance(address spender, uint256 addedValue)\r... */\n    tag_61:\n        /* \"contracts/ERC20/LinkDaoPresale.sol\":25377:25381  bool */\n      0x00\n        /* \"contracts/ERC20/LinkDaoPresale.sol\":25399:25532  _approve(\r... */\n      tag_145\n        /* \"contracts/ERC20/LinkDaoPresale.sol\":25422:25434  _msgSender() */\n      tag_146\n        /* \"contracts/ERC20/LinkDaoPresale.sol\":25422:25432  _msgSender */\n      tag_131\n        /* \"contracts/ERC20/LinkDaoPresale.sol\":25422:25434  _msgSender() */\n      jump\t// in\n    tag_146:\n        /* \"contracts/ERC20/LinkDaoPresale.sol\":25449:25456  spender */\n      dup5\n        /* \"contracts/ERC20/LinkDaoPresale.sol\":25471:25521  _allowances[_msgSender()][spender].add(addedValue) */\n      tag_147\n        /* \"contracts/ERC20/LinkDaoPresale.sol\":25510:25520  addedValue */\n      dup6\n        /* \"contracts/ERC20/LinkDaoPresale.sol\":25471:25482  _allowances */\n      0x02\n        /* \"contracts/ERC20/LinkDaoPresale.sol\":25471:25496  _allowances[_msgSender()] */\n      0x00\n        /* \"contracts/ERC20/LinkDaoPresale.sol\":25483:25495  _msgSender() */\n      tag_148\n        /* \"contracts/ERC20/LinkDaoPresale.sol\":25483:25493  _msgSender */\n      tag_131\n        /* \"contracts/ERC20/LinkDaoPresale.sol\":25483:25495  _msgSender() */\n      jump\t// in\n    tag_148:\n        /* \"contracts/ERC20/LinkDaoPresale.sol\":25471:25496  _allowances[_msgSender()] */\n      0xffffffffffffffffffffffffffffffffffffffff\n      and\n      0xffffffffffffffffffffffffffffffffffffffff\n      and\n      dup2\n      mstore\n      0x20\n      add\n      swap1\n      dup2\n      mstore\n      0x20\n      add\n      0x00\n      keccak256\n        /* \"contracts/ERC20/LinkDaoPresale.sol\":25471:25505  _allowances[_msgSender()][spender] */\n      0x00\n        /* \"contracts/ERC20/LinkDaoPresale.sol\":25497:25504  spender */\n      dup10\n        /* \"contracts/ERC20/LinkDaoPresale.sol\":25471:25505  _allowances[_msgSender()][spender] */\n      0xffffffffffffffffffffffffffffffffffffffff\n      and\n      0xffffffffffffffffffffffffffffffffffffffff\n      and\n      dup2\n      mstore\n      0x20\n      add\n      swap1\n      dup2\n      mstore\n      0x20\n      add\n      0x00\n      keccak256\n      sload\n        /* \"contracts/ERC20/LinkDaoPresale.sol\":25471:25509  _allowances[_msgSender()][spender].add */\n      tag_123\n      swap1\n        /* \"contracts/ERC20/LinkDaoPresale.sol\":25471:25521  _allowances[_msgSender()][spender].add(addedValue) */\n      swap2\n      swap1\n      0xffffffff\n      and\n      jump\t// in\n    tag_147:\n        /* \"contracts/ERC20/LinkDaoPresale.sol\":25399:25407  _approve */\n      tag_132\n        /* \"contracts/ERC20/LinkDaoPresale.sol\":25399:25532  _approve(\r... */\n      jump\t// in\n    tag_145:\n        /* \"contracts/ERC20/LinkDaoPresale.sol\":25550:25554  true */\n      0x01\n        /* \"contracts/ERC20/LinkDaoPresale.sol\":25543:25554  return true */\n      swap1\n      pop\n        /* \"contracts/ERC20/LinkDaoPresale.sol\":25279:25562  function increaseAllowance(address spender, uint256 addedValue)\r... */\n      swap3\n      swap2\n      pop\n      pop\n      jump\t// out\n        /* \"contracts/ERC20/LinkDaoPresale.sol\":30760:30922  function mint(address _to, uint256 _amount) public onlyOwner {\r... */\n    tag_64:\n        /* \"contracts/ERC20/LinkDaoPresale.sol\":2457:2469  _msgSender() */\n      tag_150\n        /* \"contracts/ERC20/LinkDaoPresale.sol\":2457:2467  _msgSender */\n      tag_131\n        /* \"contracts/ERC20/LinkDaoPresale.sol\":2457:2469  _msgSender() */\n      jump\t// in\n    tag_150:\n        /* \"contracts/ERC20/LinkDaoPresale.sol\":2447:2469  _owner == _msgSender() */\n      0xffffffffffffffffffffffffffffffffffffffff\n      and\n        /* \"contracts/ERC20/LinkDaoPresale.sol\":2447:2453  _owner */\n      0x00\n      dup1\n      sload\n      swap1\n      0x0100\n      exp\n      swap1\n      div\n      0xffffffffffffffffffffffffffffffffffffffff\n      and\n        /* \"contracts/ERC20/LinkDaoPresale.sol\":2447:2469  _owner == _msgSender() */\n      0xffffffffffffffffffffffffffffffffffffffff\n      and\n      eq\n        /* \"contracts/ERC20/LinkDaoPresale.sol\":2439:2506  require(_owner == _msgSender(), \"Ownable: caller is not the owner\") */\n      tag_151\n      jumpi\n      mload(0x40)\n      0x08c379a000000000000000000000000000000000000000000000000000000000\n      dup2\n      mstore\n      0x04\n      add\n      dup1\n      dup1\n      0x20\n      add\n      dup3\n      dup2\n      sub\n      dup3\n      mstore\n      0x20\n      dup2\n      mstore\n      0x20\n      add\n      dup1\n      0x4f776e61626c653a2063616c6c6572206973206e6f7420746865206f776e6572\n      dup2\n      mstore\n      pop\n      0x20\n      add\n      swap2\n      pop\n      pop\n      mload(0x40)\n      dup1\n      swap2\n      sub\n      swap1\n      revert\n    tag_151:\n        /* \"contracts/ERC20/LinkDaoPresale.sol\":30832:30851  _mint(_to, _amount) */\n      tag_153\n        /* \"contracts/ERC20/LinkDaoPresale.sol\":30838:30841  _to */\n      dup3\n        /* \"contracts/ERC20/LinkDaoPresale.sol\":30843:30850  _amount */\n      dup3\n        /* \"contracts/ERC20/LinkDaoPresale.sol\":30832:30837  _mint */\n      tag_154\n        /* \"contracts/ERC20/LinkDaoPresale.sol\":30832:30851  _mint(_to, _amount) */\n      jump\t// in\n    tag_153:\n      pop\n        /* \"contracts/ERC20/LinkDaoPresale.sol\":30862:30914  _moveDelegates(address(0), _delegates[_to], _amount) */\n      tag_155\n        /* \"contracts/ERC20/LinkDaoPresale.sol\":30885:30886  0 */\n      0x00\n        /* \"contracts/ERC20/LinkDaoPresale.sol\":30889:30899  _delegates */\n      0x07\n        /* \"contracts/ERC20/LinkDaoPresale.sol\":30889:30904  _delegates[_to] */\n      0x00\n        /* \"contracts/ERC20/LinkDaoPresale.sol\":30900:30903  _to */\n      dup6\n        /* \"contracts/ERC20/LinkDaoPresale.sol\":30889:30904  _delegates[_to] */\n      0xffffffffffffffffffffffffffffffffffffffff\n      and\n      0xffffffffffffffffffffffffffffffffffffffff\n      and\n      dup2\n      mstore\n      0x20\n      add\n      swap1\n      dup2\n      mstore\n      0x20\n      add\n      0x00\n      keccak256\n      0x00\n      swap1\n      sload\n      swap1\n      0x0100\n      exp\n      swap1\n      div\n      0xffffffffffffffffffffffffffffffffffffffff\n      and\n        /* \"contracts/ERC20/LinkDaoPresale.sol\":30906:30913  _amount */\n      dup4\n        /* \"contracts/ERC20/LinkDaoPresale.sol\":30862:30876  _moveDelegates */\n      tag_156\n        /* \"contracts/ERC20/LinkDaoPresale.sol\":30862:30914  _moveDelegates(address(0), _delegates[_to], _amount) */\n      jump\t// in\n    tag_155:\n        /* \"contracts/ERC20/LinkDaoPresale.sol\":30760:30922  function mint(address _to, uint256 _amount) public onlyOwner {\r... */\n      pop\n      pop\n      jump\t// out\n        /* \"contracts/ERC20/LinkDaoPresale.sol\":32983:33100  function delegates(address delegator) external view returns (address) {\r... */\n    tag_67:\n        /* \"contracts/ERC20/LinkDaoPresale.sol\":33044:33051  address */\n      0x00\n        /* \"contracts/ERC20/LinkDaoPresale.sol\":33071:33081  _delegates */\n      0x07\n        /* \"contracts/ERC20/LinkDaoPresale.sol\":33071:33092  _delegates[delegator] */\n      0x00\n        /* \"contracts/ERC20/LinkDaoPresale.sol\":33082:33091  delegator */\n      dup4\n        /* \"contracts/ERC20/LinkDaoPresale.sol\":33071:33092  _delegates[delegator] */\n      0xffffffffffffffffffffffffffffffffffffffff\n      and\n      0xffffffffffffffffffffffffffffffffffffffff\n      and\n      dup2\n      mstore\n      0x20\n      add\n      swap1\n      dup2\n      mstore\n      0x20\n      add\n      0x00\n      keccak256\n      0x00\n      swap1\n      sload\n      swap1\n      0x0100\n      exp\n      swap1\n      div\n      0xffffffffffffffffffffffffffffffffffffffff\n      and\n        /* \"contracts/ERC20/LinkDaoPresale.sol\":33064:33092  return _delegates[delegator] */\n      swap1\n      pop\n        /* \"contracts/ERC20/LinkDaoPresale.sol\":32983:33100  function delegates(address delegator) external view returns (address) {\r... */\n      swap2\n      swap1\n      pop\n      jump\t// out\n        /* \"contracts/ERC20/LinkDaoPresale.sol\":33248:33352  function delegate(address delegatee) external {\r... */\n    tag_70:\n        /* \"contracts/ERC20/LinkDaoPresale.sol\":33312:33344  _delegate(msg.sender, delegatee) */\n      tag_159\n        /* \"contracts/ERC20/LinkDaoPresale.sol\":33322:33332  msg.sender */\n      caller\n        /* \"contracts/ERC20/LinkDaoPresale.sol\":33334:33343  delegatee */\n      dup3\n        /* \"contracts/ERC20/LinkDaoPresale.sol\":33312:33321  _delegate */\n      tag_160\n        /* \"contracts/ERC20/LinkDaoPresale.sol\":33312:33344  _delegate(msg.sender, delegatee) */\n      jump\t// in\n    tag_159:\n        /* \"contracts/ERC20/LinkDaoPresale.sol\":33248:33352  function delegate(address delegatee) external {\r... */\n      pop\n      jump\t// out\n        /* \"contracts/ERC20/LinkDaoPresale.sol\":31763:31811  mapping(address => uint32) public numCheckpoints */\n    tag_73:\n      mstore(0x20, 0x09)\n      dup1\n      0x00\n      mstore\n      keccak256(0x00, 0x40)\n      0x00\n      swap2\n      pop\n      sload\n      swap1\n      0x0100\n      exp\n      swap1\n      div\n      0xffffffff\n      and\n      dup2\n      jump\t// out\n        /* \"contracts/ERC20/LinkDaoPresale.sol\":22839:22958  function balanceOf(address account) public view override returns (uint256) {\r... */\n    tag_76:\n        /* \"contracts/ERC20/LinkDaoPresale.sol\":22905:22912  uint256 */\n      0x00\n        /* \"contracts/ERC20/LinkDaoPresale.sol\":22932:22941  _balances */\n      0x01\n        /* \"contracts/ERC20/LinkDaoPresale.sol\":22932:22950  _balances[account] */\n      0x00\n        /* \"contracts/ERC20/LinkDaoPresale.sol\":22942:22949  account */\n      dup4\n        /* \"contracts/ERC20/LinkDaoPresale.sol\":22932:22950  _balances[account] */\n      0xffffffffffffffffffffffffffffffffffffffff\n      and\n      0xffffffffffffffffffffffffffffffffffffffff\n      and\n      dup2\n      mstore\n      0x20\n      add\n      swap1\n      dup2\n      mstore\n      0x20\n      add\n      0x00\n      keccak256\n      sload\n        /* \"contracts/ERC20/LinkDaoPresale.sol\":22925:22950  return _balances[account] */\n      swap1\n      pop\n        /* \"contracts/ERC20/LinkDaoPresale.sol\":22839:22958  function balanceOf(address account) public view override returns (uint256) {\r... */\n      swap2\n      swap1\n      pop\n      jump\t// out\n        /* \"contracts/ERC20/LinkDaoPresale.sol\":2877:3017  function renounceOwnership() public onlyOwner {\r... */\n    tag_78:\n        /* \"contracts/ERC20/LinkDaoPresale.sol\":2457:2469  _msgSender() */\n      tag_163\n        /* \"contracts/ERC20/LinkDaoPresale.sol\":2457:2467  _msgSender */\n      tag_131\n        /* \"contracts/ERC20/LinkDaoPresale.sol\":2457:2469  _msgSender() */\n      jump\t// in\n    tag_163:\n        /* \"contracts/ERC20/LinkDaoPresale.sol\":2447:2469  _owner == _msgSender() */\n      0xffffffffffffffffffffffffffffffffffffffff\n      and\n        /* \"contracts/ERC20/LinkDaoPresale.sol\":2447:2453  _owner */\n      0x00\n      dup1\n      sload\n      swap1\n      0x0100\n      exp\n      swap1\n      div\n      0xffffffffffffffffffffffffffffffffffffffff\n      and\n        /* \"contracts/ERC20/LinkDaoPresale.sol\":2447:2469  _owner == _msgSender() */\n      0xffffffffffffffffffffffffffffffffffffffff\n      and\n      eq\n        /* \"contracts/ERC20/LinkDaoPresale.sol\":2439:2506  require(_owner == _msgSender(), \"Ownable: caller is not the owner\") */\n      tag_164\n      jumpi\n      mload(0x40)\n      0x08c379a000000000000000000000000000000000000000000000000000000000\n      dup2\n      mstore\n      0x04\n      add\n      dup1\n      dup1\n      0x20\n      add\n      dup3\n      dup2\n      sub\n      dup3\n      mstore\n      0x20\n      dup2\n      mstore\n      0x20\n      add\n      dup1\n      0x4f776e61626c653a2063616c6c6572206973206e6f7420746865206f776e6572\n      dup2\n      mstore\n      pop\n      0x20\n      add\n      swap2\n      pop\n      pop\n      mload(0x40)\n      dup1\n      swap2\n      sub\n      swap1\n      revert\n    tag_164:\n        /* \"contracts/ERC20/LinkDaoPresale.sol\":2976:2977  0 */\n      0x00\n        /* \"contracts/ERC20/LinkDaoPresale.sol\":2939:2979  OwnershipTransferred(_owner, address(0)) */\n      0xffffffffffffffffffffffffffffffffffffffff\n      and\n        /* \"contracts/ERC20/LinkDaoPresale.sol\":2960:2966  _owner */\n      0x00\n      dup1\n      sload\n      swap1\n      0x0100\n      exp\n      swap1\n      div\n      0xffffffffffffffffffffffffffffffffffffffff\n      and\n        /* \"contracts/ERC20/LinkDaoPresale.sol\":2939:2979  OwnershipTransferred(_owner, address(0)) */\n      0xffffffffffffffffffffffffffffffffffffffff\n      and\n      0x8be0079c531659141344cd1fd0a4f28419497f9722a3daafe3b4186f6b6457e0\n      mload(0x40)\n      mload(0x40)\n      dup1\n      swap2\n      sub\n      swap1\n      log3\n        /* \"contracts/ERC20/LinkDaoPresale.sol\":3007:3008  0 */\n      0x00\n        /* \"contracts/ERC20/LinkDaoPresale.sol\":2990:2996  _owner */\n      dup1\n      0x00\n        /* \"contracts/ERC20/LinkDaoPresale.sol\":2990:3009  _owner = address(0) */\n      0x0100\n      exp\n      dup2\n      sload\n      dup2\n      0xffffffffffffffffffffffffffffffffffffffff\n      mul\n      not\n      and\n      swap1\n      dup4\n      0xffffffffffffffffffffffffffffffffffffffff\n      and\n      mul\n      or\n      swap1\n      sstore\n      pop\n        /* \"contracts/ERC20/LinkDaoPresale.sol\":2877:3017  function renounceOwnership() public onlyOwner {\r... */\n      jump\t// out\n        /* \"contracts/ERC20/LinkDaoPresale.sol\":35746:37038  function getPriorVotes(address account, uint256 blockNumber)\r... */\n    tag_81:\n        /* \"contracts/ERC20/LinkDaoPresale.sol\":35857:35864  uint256 */\n      0x00\n        /* \"contracts/ERC20/LinkDaoPresale.sol\":35918:35930  block.number */\n      number\n        /* \"contracts/ERC20/LinkDaoPresale.sol\":35904:35915  blockNumber */\n      dup3\n        /* \"contracts/ERC20/LinkDaoPresale.sol\":35904:35930  blockNumber < block.number */\n      lt\n        /* \"contracts/ERC20/LinkDaoPresale.sol\":35882:35996  require(\r... */\n      tag_167\n      jumpi\n      mload(0x40)\n      0x08c379a000000000000000000000000000000000000000000000000000000000\n      dup2\n      mstore\n      0x04\n      add\n      dup1\n      dup1\n      0x20\n      add\n      dup3\n      dup2\n      sub\n      dup3\n      mstore\n      0x26\n      dup2\n      mstore\n      0x20\n      add\n      dup1\n      data_91729f24e3de9b08ef1a027d714e0ea4443ff0d20feded96130f3eac77262d16\n      0x26\n      swap2\n      codecopy\n      0x40\n      add\n      swap2\n      pop\n      pop\n      mload(0x40)\n      dup1\n      swap2\n      sub\n      swap1\n      revert\n    tag_167:\n        /* \"contracts/ERC20/LinkDaoPresale.sol\":36009:36028  uint32 nCheckpoints */\n      0x00\n        /* \"contracts/ERC20/LinkDaoPresale.sol\":36031:36045  numCheckpoints */\n      0x09\n        /* \"contracts/ERC20/LinkDaoPresale.sol\":36031:36054  numCheckpoints[account] */\n      0x00\n        /* \"contracts/ERC20/LinkDaoPresale.sol\":36046:36053  account */\n      dup6\n        /* \"contracts/ERC20/LinkDaoPresale.sol\":36031:36054  numCheckpoints[account] */\n      0xffffffffffffffffffffffffffffffffffffffff\n      and\n      0xffffffffffffffffffffffffffffffffffffffff\n      and\n      dup2\n      mstore\n      0x20\n      add\n      swap1\n      dup2\n      mstore\n      0x20\n      add\n      0x00\n      keccak256\n      0x00\n      swap1\n      sload\n      swap1\n      0x0100\n      exp\n      swap1\n      div\n      0xffffffff\n      and\n        /* \"contracts/ERC20/LinkDaoPresale.sol\":36009:36054  uint32 nCheckpoints = numCheckpoints[account] */\n      swap1\n      pop\n        /* \"contracts/ERC20/LinkDaoPresale.sol\":36085:36086  0 */\n      0x00\n        /* \"contracts/ERC20/LinkDaoPresale.sol\":36069:36081  nCheckpoints */\n      dup2\n        /* \"contracts/ERC20/LinkDaoPresale.sol\":36069:36086  nCheckpoints == 0 */\n      0xffffffff\n      and\n      eq\n        /* \"contracts/ERC20/LinkDaoPresale.sol\":36065:36123  if (nCheckpoints == 0) {\r... */\n      iszero\n      tag_168\n      jumpi\n        /* \"contracts/ERC20/LinkDaoPresale.sol\":36110:36111  0 */\n      0x00\n        /* \"contracts/ERC20/LinkDaoPresale.sol\":36103:36111  return 0 */\n      swap2\n      pop\n      pop\n      jump(tag_166)\n        /* \"contracts/ERC20/LinkDaoPresale.sol\":36065:36123  if (nCheckpoints == 0) {\r... */\n    tag_168:\n        /* \"contracts/ERC20/LinkDaoPresale.sol\":36235:36246  blockNumber */\n      dup3\n        /* \"contracts/ERC20/LinkDaoPresale.sol\":36183:36194  checkpoints */\n      0x08\n        /* \"contracts/ERC20/LinkDaoPresale.sol\":36183:36203  checkpoints[account] */\n      0x00\n        /* \"contracts/ERC20/LinkDaoPresale.sol\":36195:36202  account */\n      dup7\n        /* \"contracts/ERC20/LinkDaoPresale.sol\":36183:36203  checkpoints[account] */\n      0xffffffffffffffffffffffffffffffffffffffff\n      and\n      0xffffffffffffffffffffffffffffffffffffffff\n      and\n      dup2\n      mstore\n      0x20\n      add\n      swap1\n      dup2\n      mstore\n      0x20\n      add\n      0x00\n      keccak256\n        /* \"contracts/ERC20/LinkDaoPresale.sol\":36183:36221  checkpoints[account][nCheckpoints - 1] */\n      0x00\n        /* \"contracts/ERC20/LinkDaoPresale.sol\":36219:36220  1 */\n      0x01\n        /* \"contracts/ERC20/LinkDaoPresale.sol\":36204:36216  nCheckpoints */\n      dup5\n        /* \"contracts/ERC20/LinkDaoPresale.sol\":36204:36220  nCheckpoints - 1 */\n      sub\n        /* \"contracts/ERC20/LinkDaoPresale.sol\":36183:36221  checkpoints[account][nCheckpoints - 1] */\n      0xffffffff\n      and\n      0xffffffff\n      and\n      dup2\n      mstore\n      0x20\n      add\n      swap1\n      dup2\n      mstore\n      0x20\n      add\n      0x00\n      keccak256\n        /* \"contracts/ERC20/LinkDaoPresale.sol\":36183:36231  checkpoints[account][nCheckpoints - 1].fromBlock */\n      0x00\n      add\n      0x00\n      swap1\n      sload\n      swap1\n      0x0100\n      exp\n      swap1\n      div\n      0xffffffff\n      and\n        /* \"contracts/ERC20/LinkDaoPresale.sol\":36183:36246  checkpoints[account][nCheckpoints - 1].fromBlock <= blockNumber */\n      0xffffffff\n      and\n      gt\n        /* \"contracts/ERC20/LinkDaoPresale.sol\":36179:36326  if (checkpoints[account][nCheckpoints - 1].fromBlock <= blockNumber) {\r... */\n      tag_169\n      jumpi\n        /* \"contracts/ERC20/LinkDaoPresale.sol\":36270:36281  checkpoints */\n      0x08\n        /* \"contracts/ERC20/LinkDaoPresale.sol\":36270:36290  checkpoints[account] */\n      0x00\n        /* \"contracts/ERC20/LinkDaoPresale.sol\":36282:36289  account */\n      dup6\n        /* \"contracts/ERC20/LinkDaoPresale.sol\":36270:36290  checkpoints[account] */\n      0xffffffffffffffffffffffffffffffffffffffff\n      and\n      0xffffffffffffffffffffffffffffffffffffffff\n      and\n      dup2\n      mstore\n      0x20\n      add\n      swap1\n      dup2\n      mstore\n      0x20\n      add\n      0x00\n      keccak256\n        /* \"contracts/ERC20/LinkDaoPresale.sol\":36270:36308  checkpoints[account][nCheckpoints - 1] */\n      0x00\n        /* \"contracts/ERC20/LinkDaoPresale.sol\":36306:36307  1 */\n      0x01\n        /* \"contracts/ERC20/LinkDaoPresale.sol\":36291:36303  nCheckpoints */\n      dup4\n        /* \"contracts/ERC20/LinkDaoPresale.sol\":36291:36307  nCheckpoints - 1 */\n      sub\n        /* \"contracts/ERC20/LinkDaoPresale.sol\":36270:36308  checkpoints[account][nCheckpoints - 1] */\n      0xffffffff\n      and\n      0xffffffff\n      and\n      dup2\n      mstore\n      0x20\n      add\n      swap1\n      dup2\n      mstore\n      0x20\n      add\n      0x00\n      keccak256\n        /* \"contracts/ERC20/LinkDaoPresale.sol\":36270:36314  checkpoints[account][nCheckpoints - 1].votes */\n      0x01\n      add\n      sload\n        /* \"contracts/ERC20/LinkDaoPresale.sol\":36263:36314  return checkpoints[account][nCheckpoints - 1].votes */\n      swap2\n      pop\n      pop\n      jump(tag_166)\n        /* \"contracts/ERC20/LinkDaoPresale.sol\":36179:36326  if (checkpoints[account][nCheckpoints - 1].fromBlock <= blockNumber) {\r... */\n    tag_169:\n        /* \"contracts/ERC20/LinkDaoPresale.sol\":36423:36434  blockNumber */\n      dup3\n        /* \"contracts/ERC20/LinkDaoPresale.sol\":36387:36398  checkpoints */\n      0x08\n        /* \"contracts/ERC20/LinkDaoPresale.sol\":36387:36407  checkpoints[account] */\n      0x00\n        /* \"contracts/ERC20/LinkDaoPresale.sol\":36399:36406  account */\n      dup7\n        /* \"contracts/ERC20/LinkDaoPresale.sol\":36387:36407  checkpoints[account] */\n      0xffffffffffffffffffffffffffffffffffffffff\n      and\n      0xffffffffffffffffffffffffffffffffffffffff\n      and\n      dup2\n      mstore\n      0x20\n      add\n      swap1\n      dup2\n      mstore\n      0x20\n      add\n      0x00\n      keccak256\n        /* \"contracts/ERC20/LinkDaoPresale.sol\":36387:36410  checkpoints[account][0] */\n      0x00\n        /* \"contracts/ERC20/LinkDaoPresale.sol\":36408:36409  0 */\n      dup1\n        /* \"contracts/ERC20/LinkDaoPresale.sol\":36387:36410  checkpoints[account][0] */\n      0xffffffff\n      and\n      dup2\n      mstore\n      0x20\n      add\n      swap1\n      dup2\n      mstore\n      0x20\n      add\n      0x00\n      keccak256\n        /* \"contracts/ERC20/LinkDaoPresale.sol\":36387:36420  checkpoints[account][0].fromBlock */\n      0x00\n      add\n      0x00\n      swap1\n      sload\n      swap1\n      0x0100\n      exp\n      swap1\n      div\n      0xffffffff\n      and\n        /* \"contracts/ERC20/LinkDaoPresale.sol\":36387:36434  checkpoints[account][0].fromBlock > blockNumber */\n      0xffffffff\n      and\n      gt\n        /* \"contracts/ERC20/LinkDaoPresale.sol\":36383:36471  if (checkpoints[account][0].fromBlock > blockNumber) {\r... */\n      iszero\n      tag_170\n      jumpi\n        /* \"contracts/ERC20/LinkDaoPresale.sol\":36458:36459  0 */\n      0x00\n        /* \"contracts/ERC20/LinkDaoPresale.sol\":36451:36459  return 0 */\n      swap2\n      pop\n      pop\n      jump(tag_166)\n        /* \"contracts/ERC20/LinkDaoPresale.sol\":36383:36471  if (checkpoints[account][0].fromBlock > blockNumber) {\r... */\n    tag_170:\n        /* \"contracts/ERC20/LinkDaoPresale.sol\":36483:36495  uint32 lower */\n      0x00\n        /* \"contracts/ERC20/LinkDaoPresale.sol\":36510:36522  uint32 upper */\n      dup1\n        /* \"contracts/ERC20/LinkDaoPresale.sol\":36540:36541  1 */\n      0x01\n        /* \"contracts/ERC20/LinkDaoPresale.sol\":36525:36537  nCheckpoints */\n      dup4\n        /* \"contracts/ERC20/LinkDaoPresale.sol\":36525:36541  nCheckpoints - 1 */\n      sub\n        /* \"contracts/ERC20/LinkDaoPresale.sol\":36510:36541  uint32 upper = nCheckpoints - 1 */\n      swap1\n      pop\n        /* \"contracts/ERC20/LinkDaoPresale.sol\":36552:36980  while (upper > lower) {\r... */\n    tag_171:\n        /* \"contracts/ERC20/LinkDaoPresale.sol\":36567:36572  lower */\n      dup2\n        /* \"contracts/ERC20/LinkDaoPresale.sol\":36559:36572  upper > lower */\n      0xffffffff\n      and\n        /* \"contracts/ERC20/LinkDaoPresale.sol\":36559:36564  upper */\n      dup2\n        /* \"contracts/ERC20/LinkDaoPresale.sol\":36559:36572  upper > lower */\n      0xffffffff\n      and\n      gt\n        /* \"contracts/ERC20/LinkDaoPresale.sol\":36552:36980  while (upper > lower) {\r... */\n      iszero\n      tag_172\n      jumpi\n        /* \"contracts/ERC20/LinkDaoPresale.sol\":36589:36602  uint32 center */\n      0x00\n        /* \"contracts/ERC20/LinkDaoPresale.sol\":36631:36632  2 */\n      0x02\n        /* \"contracts/ERC20/LinkDaoPresale.sol\":36622:36627  lower */\n      dup4\n        /* \"contracts/ERC20/LinkDaoPresale.sol\":36614:36619  upper */\n      dup4\n        /* \"contracts/ERC20/LinkDaoPresale.sol\":36614:36627  upper - lower */\n      sub\n        /* \"contracts/ERC20/LinkDaoPresale.sol\":36613:36632  (upper - lower) / 2 */\n      0xffffffff\n      and\n      dup2\n      tag_173\n      jumpi\n      invalid\n    tag_173:\n      div\n        /* \"contracts/ERC20/LinkDaoPresale.sol\":36605:36610  upper */\n      dup3\n        /* \"contracts/ERC20/LinkDaoPresale.sol\":36605:36632  upper - (upper - lower) / 2 */\n      sub\n        /* \"contracts/ERC20/LinkDaoPresale.sol\":36589:36632  uint32 center = upper - (upper - lower) / 2 */\n      swap1\n      pop\n        /* \"contracts/ERC20/LinkDaoPresale.sol\":36674:36694  Checkpoint memory cp */\n      tag_174\n      tag_175\n      jump\t// in\n    tag_174:\n        /* \"contracts/ERC20/LinkDaoPresale.sol\":36697:36708  checkpoints */\n      0x08\n        /* \"contracts/ERC20/LinkDaoPresale.sol\":36697:36717  checkpoints[account] */\n      0x00\n        /* \"contracts/ERC20/LinkDaoPresale.sol\":36709:36716  account */\n      dup10\n        /* \"contracts/ERC20/LinkDaoPresale.sol\":36697:36717  checkpoints[account] */\n      0xffffffffffffffffffffffffffffffffffffffff\n      and\n      0xffffffffffffffffffffffffffffffffffffffff\n      and\n      dup2\n      mstore\n      0x20\n      add\n      swap1\n      dup2\n      mstore\n      0x20\n      add\n      0x00\n      keccak256\n        /* \"contracts/ERC20/LinkDaoPresale.sol\":36697:36725  checkpoints[account][center] */\n      0x00\n        /* \"contracts/ERC20/LinkDaoPresale.sol\":36718:36724  center */\n      dup4\n        /* \"contracts/ERC20/LinkDaoPresale.sol\":36697:36725  checkpoints[account][center] */\n      0xffffffff\n      and\n      0xffffffff\n      and\n      dup2\n      mstore\n      0x20\n      add\n      swap1\n      dup2\n      mstore\n      0x20\n      add\n      0x00\n      keccak256\n        /* \"contracts/ERC20/LinkDaoPresale.sol\":36674:36725  Checkpoint memory cp = checkpoints[account][center] */\n      mload(0x40)\n      dup1\n      0x40\n      add\n      0x40\n      mstore\n      swap1\n      dup2\n      0x00\n      dup3\n      add\n      0x00\n      swap1\n      sload\n      swap1\n      0x0100\n      exp\n      swap1\n      div\n      0xffffffff\n      and\n      0xffffffff\n      and\n      0xffffffff\n      and\n      dup2\n      mstore\n      0x20\n      add\n      0x01\n      dup3\n      add\n      sload\n      dup2\n      mstore\n      pop\n      pop\n      swap1\n      pop\n        /* \"contracts/ERC20/LinkDaoPresale.sol\":36760:36771  blockNumber */\n      dup7\n        /* \"contracts/ERC20/LinkDaoPresale.sol\":36744:36746  cp */\n      dup2\n        /* \"contracts/ERC20/LinkDaoPresale.sol\":36744:36756  cp.fromBlock */\n      0x00\n      add\n      mload\n        /* \"contracts/ERC20/LinkDaoPresale.sol\":36744:36771  cp.fromBlock == blockNumber */\n      0xffffffff\n      and\n      eq\n        /* \"contracts/ERC20/LinkDaoPresale.sol\":36740:36969  if (cp.fromBlock == blockNumber) {\r... */\n      iszero\n      tag_176\n      jumpi\n        /* \"contracts/ERC20/LinkDaoPresale.sol\":36799:36801  cp */\n      dup1\n        /* \"contracts/ERC20/LinkDaoPresale.sol\":36799:36807  cp.votes */\n      0x20\n      add\n      mload\n        /* \"contracts/ERC20/LinkDaoPresale.sol\":36792:36807  return cp.votes */\n      swap6\n      pop\n      pop\n      pop\n      pop\n      pop\n      pop\n      jump(tag_166)\n        /* \"contracts/ERC20/LinkDaoPresale.sol\":36740:36969  if (cp.fromBlock == blockNumber) {\r... */\n    tag_176:\n        /* \"contracts/ERC20/LinkDaoPresale.sol\":36848:36859  blockNumber */\n      dup7\n        /* \"contracts/ERC20/LinkDaoPresale.sol\":36833:36835  cp */\n      dup2\n        /* \"contracts/ERC20/LinkDaoPresale.sol\":36833:36845  cp.fromBlock */\n      0x00\n      add\n      mload\n        /* \"contracts/ERC20/LinkDaoPresale.sol\":36833:36859  cp.fromBlock < blockNumber */\n      0xffffffff\n      and\n      lt\n        /* \"contracts/ERC20/LinkDaoPresale.sol\":36829:36969  if (cp.fromBlock < blockNumber) {\r... */\n      iszero\n      tag_178\n      jumpi\n        /* \"contracts/ERC20/LinkDaoPresale.sol\":36888:36894  center */\n      dup2\n        /* \"contracts/ERC20/LinkDaoPresale.sol\":36880:36894  lower = center */\n      swap4\n      pop\n        /* \"contracts/ERC20/LinkDaoPresale.sol\":36829:36969  if (cp.fromBlock < blockNumber) {\r... */\n      jump(tag_179)\n    tag_178:\n        /* \"contracts/ERC20/LinkDaoPresale.sol\":36952:36953  1 */\n      0x01\n        /* \"contracts/ERC20/LinkDaoPresale.sol\":36943:36949  center */\n      dup3\n        /* \"contracts/ERC20/LinkDaoPresale.sol\":36943:36953  center - 1 */\n      sub\n        /* \"contracts/ERC20/LinkDaoPresale.sol\":36935:36953  upper = center - 1 */\n      swap3\n      pop\n        /* \"contracts/ERC20/LinkDaoPresale.sol\":36829:36969  if (cp.fromBlock < blockNumber) {\r... */\n    tag_179:\n        /* \"contracts/ERC20/LinkDaoPresale.sol\":36552:36980  while (upper > lower) {\r... */\n      pop\n      pop\n      jump(tag_171)\n    tag_172:\n        /* \"contracts/ERC20/LinkDaoPresale.sol\":36997:37008  checkpoints */\n      0x08\n        /* \"contracts/ERC20/LinkDaoPresale.sol\":36997:37017  checkpoints[account] */\n      0x00\n        /* \"contracts/ERC20/LinkDaoPresale.sol\":37009:37016  account */\n      dup8\n        /* \"contracts/ERC20/LinkDaoPresale.sol\":36997:37017  checkpoints[account] */\n      0xffffffffffffffffffffffffffffffffffffffff\n      and\n      0xffffffffffffffffffffffffffffffffffffffff\n      and\n      dup2\n      mstore\n      0x20\n      add\n      swap1\n      dup2\n      mstore\n      0x20\n      add\n      0x00\n      keccak256\n        /* \"contracts/ERC20/LinkDaoPresale.sol\":36997:37024  checkpoints[account][lower] */\n      0x00\n        /* \"contracts/ERC20/LinkDaoPresale.sol\":37018:37023  lower */\n      dup4\n        /* \"contracts/ERC20/LinkDaoPresale.sol\":36997:37024  checkpoints[account][lower] */\n      0xffffffff\n      and\n      0xffffffff\n      and\n      dup2\n      mstore\n      0x20\n      add\n      swap1\n      dup2\n      mstore\n      0x20\n      add\n      0x00\n      keccak256\n        /* \"contracts/ERC20/LinkDaoPresale.sol\":36997:37030  checkpoints[account][lower].votes */\n      0x01\n      add\n      sload\n        /* \"contracts/ERC20/LinkDaoPresale.sol\":36990:37030  return checkpoints[account][lower].votes */\n      swap4\n      pop\n      pop\n      pop\n      pop\n        /* \"contracts/ERC20/LinkDaoPresale.sol\":35746:37038  function getPriorVotes(address account, uint256 blockNumber)\r... */\n    tag_166:\n      swap3\n      swap2\n      pop\n      pop\n      jump\t// out\n        /* \"contracts/ERC20/LinkDaoPresale.sol\":32340:32381  mapping(address => uint256) public nonces */\n    tag_84:\n      mstore(0x20, 0x0a)\n      dup1\n      0x00\n      mstore\n      keccak256(0x00, 0x40)\n      0x00\n      swap2\n      pop\n      swap1\n      pop\n      sload\n      dup2\n      jump\t// out\n        /* \"contracts/ERC20/LinkDaoPresale.sol\":21828:21922  function getOwner() external view override returns (address) {\r... */\n    tag_86:\n        /* \"contracts/ERC20/LinkDaoPresale.sol\":21880:21887  address */\n      0x00\n        /* \"contracts/ERC20/LinkDaoPresale.sol\":21907:21914  owner() */\n      tag_181\n        /* \"contracts/ERC20/LinkDaoPresale.sol\":21907:21912  owner */\n      tag_88\n        /* \"contracts/ERC20/LinkDaoPresale.sol\":21907:21914  owner() */\n      jump\t// in\n    tag_181:\n        /* \"contracts/ERC20/LinkDaoPresale.sol\":21900:21914  return owner() */\n      swap1\n      pop\n        /* \"contracts/ERC20/LinkDaoPresale.sol\":21828:21922  function getOwner() external view override returns (address) {\r... */\n      swap1\n      jump\t// out\n        /* \"contracts/ERC20/LinkDaoPresale.sol\":2235:2314  function owner() public view returns (address) {\r... */\n    tag_88:\n        /* \"contracts/ERC20/LinkDaoPresale.sol\":2273:2280  address */\n      0x00\n        /* \"contracts/ERC20/LinkDaoPresale.sol\":2300:2306  _owner */\n      dup1\n      0x00\n      swap1\n      sload\n      swap1\n      0x0100\n      exp\n      swap1\n      div\n      0xffffffffffffffffffffffffffffffffffffffff\n      and\n        /* \"contracts/ERC20/LinkDaoPresale.sol\":2293:2306  return _owner */\n      swap1\n      pop\n        /* \"contracts/ERC20/LinkDaoPresale.sol\":2235:2314  function owner() public view returns (address) {\r... */\n      swap1\n      jump\t// out\n        /* \"contracts/ERC20/LinkDaoPresale.sol\":22301:22397  function symbol() public view override returns (string memory) {\r... */\n    tag_90:\n        /* \"contracts/ERC20/LinkDaoPresale.sol\":22349:22362  string memory */\n      0x60\n        /* \"contracts/ERC20/LinkDaoPresale.sol\":22382:22389  _symbol */\n      0x05\n        /* \"contracts/ERC20/LinkDaoPresale.sol\":22375:22389  return _symbol */\n      dup1\n      sload\n      0x01\n      dup2\n      0x01\n      and\n      iszero\n      0x0100\n      mul\n      sub\n      and\n      0x02\n      swap1\n      div\n      dup1\n      0x1f\n      add\n      0x20\n      dup1\n      swap2\n      div\n      mul\n      0x20\n      add\n      mload(0x40)\n      swap1\n      dup2\n      add\n      0x40\n      mstore\n      dup1\n      swap3\n      swap2\n      swap1\n      dup2\n      dup2\n      mstore\n      0x20\n      add\n      dup3\n      dup1\n      sload\n      0x01\n      dup2\n      0x01\n      and\n      iszero\n      0x0100\n      mul\n      sub\n      and\n      0x02\n      swap1\n      div\n      dup1\n      iszero\n      tag_184\n      jumpi\n      dup1\n      0x1f\n      lt\n      tag_185\n      jumpi\n      0x0100\n      dup1\n      dup4\n      sload\n      div\n      mul\n      dup4\n      mstore\n      swap2\n      0x20\n      add\n      swap2\n      jump(tag_184)\n    tag_185:\n      dup3\n      add\n      swap2\n      swap1\n      0x00\n      mstore\n      keccak256(0x00, 0x20)\n      swap1\n    tag_186:\n      dup2\n      sload\n      dup2\n      mstore\n      swap1\n      0x01\n      add\n      swap1\n      0x20\n      add\n      dup1\n      dup4\n      gt\n      tag_186\n      jumpi\n      dup3\n      swap1\n      sub\n      0x1f\n      and\n      dup3\n      add\n      swap2\n    tag_184:\n      pop\n      pop\n      pop\n      pop\n      pop\n      swap1\n      pop\n        /* \"contracts/ERC20/LinkDaoPresale.sol\":22301:22397  function symbol() public view override returns (string memory) {\r... */\n      swap1\n      jump\t// out\n        /* \"contracts/ERC20/LinkDaoPresale.sol\":26665:26795  function mint(uint256 amount) public onlyOwner returns (bool) {\r... */\n    tag_97:\n        /* \"contracts/ERC20/LinkDaoPresale.sol\":26721:26725  bool */\n      0x00\n        /* \"contracts/ERC20/LinkDaoPresale.sol\":2457:2469  _msgSender() */\n      tag_188\n        /* \"contracts/ERC20/LinkDaoPresale.sol\":2457:2467  _msgSender */\n      tag_131\n        /* \"contracts/ERC20/LinkDaoPresale.sol\":2457:2469  _msgSender() */\n      jump\t// in\n    tag_188:\n        /* \"contracts/ERC20/LinkDaoPresale.sol\":2447:2469  _owner == _msgSender() */\n      0xffffffffffffffffffffffffffffffffffffffff\n      and\n        /* \"contracts/ERC20/LinkDaoPresale.sol\":2447:2453  _owner */\n      0x00\n      dup1\n      sload\n      swap1\n      0x0100\n      exp\n      swap1\n      div\n      0xffffffffffffffffffffffffffffffffffffffff\n      and\n        /* \"contracts/ERC20/LinkDaoPresale.sol\":2447:2469  _owner == _msgSender() */\n      0xffffffffffffffffffffffffffffffffffffffff\n      and\n      eq\n        /* \"contracts/ERC20/LinkDaoPresale.sol\":2439:2506  require(_owner == _msgSender(), \"Ownable: caller is not the owner\") */\n      tag_189\n      jumpi\n      mload(0x40)\n      0x08c379a000000000000000000000000000000000000000000000000000000000\n      dup2\n      mstore\n      0x04\n      add\n      dup1\n      dup1\n      0x20\n      add\n      dup3\n      dup2\n      sub\n      dup3\n      mstore\n      0x20\n      dup2\n      mstore\n      0x20\n      add\n      dup1\n      0x4f776e61626c653a2063616c6c6572206973206e6f7420746865206f776e6572\n      dup2\n      mstore\n      pop\n      0x20\n      add\n      swap2\n      pop\n      pop\n      mload(0x40)\n      dup1\n      swap2\n      sub\n      swap1\n      revert\n    tag_189:\n        /* \"contracts/ERC20/LinkDaoPresale.sol\":26738:26765  _mint(_msgSender(), amount) */\n      tag_191\n        /* \"contracts/ERC20/LinkDaoPresale.sol\":26744:26756  _msgSender() */\n      tag_192\n        /* \"contracts/ERC20/LinkDaoPresale.sol\":26744:26754  _msgSender */\n      tag_131\n        /* \"contracts/ERC20/LinkDaoPresale.sol\":26744:26756  _msgSender() */\n      jump\t// in\n    tag_192:\n        /* \"contracts/ERC20/LinkDaoPresale.sol\":26758:26764  amount */\n      dup4\n        /* \"contracts/ERC20/LinkDaoPresale.sol\":26738:26743  _mint */\n      tag_154\n        /* \"contracts/ERC20/LinkDaoPresale.sol\":26738:26765  _mint(_msgSender(), amount) */\n      jump\t// in\n    tag_191:\n      pop\n        /* \"contracts/ERC20/LinkDaoPresale.sol\":26783:26787  true */\n      0x01\n        /* \"contracts/ERC20/LinkDaoPresale.sol\":26776:26787  return true */\n      swap1\n      pop\n        /* \"contracts/ERC20/LinkDaoPresale.sol\":26665:26795  function mint(uint256 amount) public onlyOwner returns (bool) {\r... */\n      swap2\n      swap1\n      pop\n      jump\t// out\n        /* \"contracts/ERC20/LinkDaoPresale.sol\":26064:26447  function decreaseAllowance(address spender, uint256 subtractedValue)\r... */\n    tag_100:\n        /* \"contracts/ERC20/LinkDaoPresale.sol\":26167:26171  bool */\n      0x00\n        /* \"contracts/ERC20/LinkDaoPresale.sol\":26189:26417  _approve(\r... */\n      tag_194\n        /* \"contracts/ERC20/LinkDaoPresale.sol\":26212:26224  _msgSender() */\n      tag_195\n        /* \"contracts/ERC20/LinkDaoPresale.sol\":26212:26222  _msgSender */\n      tag_131\n        /* \"contracts/ERC20/LinkDaoPresale.sol\":26212:26224  _msgSender() */\n      jump\t// in\n    tag_195:\n        /* \"contracts/ERC20/LinkDaoPresale.sol\":26239:26246  spender */\n      dup5\n        /* \"contracts/ERC20/LinkDaoPresale.sol\":26261:26406  _allowances[_msgSender()][spender].sub(\r... */\n      tag_196\n        /* \"contracts/ERC20/LinkDaoPresale.sol\":26318:26333  subtractedValue */\n      dup6\n        /* \"contracts/ERC20/LinkDaoPresale.sol\":26261:26406  _allowances[_msgSender()][spender].sub(\r... */\n      mload(0x40)\n      dup1\n      0x60\n      add\n      0x40\n      mstore\n      dup1\n      0x25\n      dup2\n      mstore\n      0x20\n      add\n      data_b7060b3538dcd3ddc8a941c91636a8115a1aa46914747fd9809d543bbb46cd22\n      0x25\n      swap2\n      codecopy\n        /* \"contracts/ERC20/LinkDaoPresale.sol\":26261:26272  _allowances */\n      0x02\n        /* \"contracts/ERC20/LinkDaoPresale.sol\":26261:26286  _allowances[_msgSender()] */\n      0x00\n        /* \"contracts/ERC20/LinkDaoPresale.sol\":26273:26285  _msgSender() */\n      tag_197\n        /* \"contracts/ERC20/LinkDaoPresale.sol\":26273:26283  _msgSender */\n      tag_131\n        /* \"contracts/ERC20/LinkDaoPresale.sol\":26273:26285  _msgSender() */\n      jump\t// in\n    tag_197:\n        /* \"contracts/ERC20/LinkDaoPresale.sol\":26261:26286  _allowances[_msgSender()] */\n      0xffffffffffffffffffffffffffffffffffffffff\n      and\n      0xffffffffffffffffffffffffffffffffffffffff\n      and\n      dup2\n      mstore\n      0x20\n      add\n      swap1\n      dup2\n      mstore\n      0x20\n      add\n      0x00\n      keccak256\n        /* \"contracts/ERC20/LinkDaoPresale.sol\":26261:26295  _allowances[_msgSender()][spender] */\n      0x00\n        /* \"contracts/ERC20/LinkDaoPresale.sol\":26287:26294  spender */\n      dup11\n        /* \"contracts/ERC20/LinkDaoPresale.sol\":26261:26295  _allowances[_msgSender()][spender] */\n      0xffffffffffffffffffffffffffffffffffffffff\n      and\n      0xffffffffffffffffffffffffffffffffffffffff\n      and\n      dup2\n      mstore\n      0x20\n      add\n      swap1\n      dup2\n      mstore\n      0x20\n      add\n      0x00\n      keccak256\n      sload\n        /* \"contracts/ERC20/LinkDaoPresale.sol\":26261:26299  _allowances[_msgSender()][spender].sub */\n      tag_142\n      swap1\n        /* \"contracts/ERC20/LinkDaoPresale.sol\":26261:26406  _allowances[_msgSender()][spender].sub(\r... */\n      swap3\n      swap2\n      swap1\n      0xffffffff\n      and\n      jump\t// in\n    tag_196:\n        /* \"contracts/ERC20/LinkDaoPresale.sol\":26189:26197  _approve */\n      tag_132\n        /* \"contracts/ERC20/LinkDaoPresale.sol\":26189:26417  _approve(\r... */\n      jump\t// in\n    tag_194:\n        /* \"contracts/ERC20/LinkDaoPresale.sol\":26435:26439  true */\n      0x01\n        /* \"contracts/ERC20/LinkDaoPresale.sol\":26428:26439  return true */\n      swap1\n      pop\n        /* \"contracts/ERC20/LinkDaoPresale.sol\":26064:26447  function decreaseAllowance(address spender, uint256 subtractedValue)\r... */\n      swap3\n      swap2\n      pop\n      pop\n      jump\t// out\n        /* \"contracts/ERC20/LinkDaoPresale.sol\":23170:23369  function transfer(address recipient, uint256 amount)\r... */\n    tag_103:\n        /* \"contracts/ERC20/LinkDaoPresale.sol\":23275:23279  bool */\n      0x00\n        /* \"contracts/ERC20/LinkDaoPresale.sol\":23297:23339  _transfer(_msgSender(), recipient, amount) */\n      tag_199\n        /* \"contracts/ERC20/LinkDaoPresale.sol\":23307:23319  _msgSender() */\n      tag_200\n        /* \"contracts/ERC20/LinkDaoPresale.sol\":23307:23317  _msgSender */\n      tag_131\n        /* \"contracts/ERC20/LinkDaoPresale.sol\":23307:23319  _msgSender() */\n      jump\t// in\n    tag_200:\n        /* \"contracts/ERC20/LinkDaoPresale.sol\":23321:23330  recipient */\n      dup5\n        /* \"contracts/ERC20/LinkDaoPresale.sol\":23332:23338  amount */\n      dup5\n        /* \"contracts/ERC20/LinkDaoPresale.sol\":23297:23306  _transfer */\n      tag_137\n        /* \"contracts/ERC20/LinkDaoPresale.sol\":23297:23339  _transfer(_msgSender(), recipient, amount) */\n      jump\t// in\n    tag_199:\n        /* \"contracts/ERC20/LinkDaoPresale.sol\":23357:23361  true */\n      0x01\n        /* \"contracts/ERC20/LinkDaoPresale.sol\":23350:23361  return true */\n      swap1\n      pop\n        /* \"contracts/ERC20/LinkDaoPresale.sol\":23170:23369  function transfer(address recipient, uint256 amount)\r... */\n      swap3\n      swap2\n      pop\n      pop\n      jump\t// out\n        /* \"contracts/ERC20/LinkDaoPresale.sol\":35079:35315  function getCurrentVotes(address account) external view returns (uint256) {\r... */\n    tag_106:\n        /* \"contracts/ERC20/LinkDaoPresale.sol\":35144:35151  uint256 */\n      0x00\n        /* \"contracts/ERC20/LinkDaoPresale.sol\":35164:35183  uint32 nCheckpoints */\n      dup1\n        /* \"contracts/ERC20/LinkDaoPresale.sol\":35186:35200  numCheckpoints */\n      0x09\n        /* \"contracts/ERC20/LinkDaoPresale.sol\":35186:35209  numCheckpoints[account] */\n      0x00\n        /* \"contracts/ERC20/LinkDaoPresale.sol\":35201:35208  account */\n      dup5\n        /* \"contracts/ERC20/LinkDaoPresale.sol\":35186:35209  numCheckpoints[account] */\n      0xffffffffffffffffffffffffffffffffffffffff\n      and\n      0xffffffffffffffffffffffffffffffffffffffff\n      and\n      dup2\n      mstore\n      0x20\n      add\n      swap1\n      dup2\n      mstore\n      0x20\n      add\n      0x00\n      keccak256\n      0x00\n      swap1\n      sload\n      swap1\n      0x0100\n      exp\n      swap1\n      div\n      0xffffffff\n      and\n        /* \"contracts/ERC20/LinkDaoPresale.sol\":35164:35209  uint32 nCheckpoints = numCheckpoints[account] */\n      swap1\n      pop\n        /* \"contracts/ERC20/LinkDaoPresale.sol\":35255:35256  0 */\n      0x00\n        /* \"contracts/ERC20/LinkDaoPresale.sol\":35240:35252  nCheckpoints */\n      dup2\n        /* \"contracts/ERC20/LinkDaoPresale.sol\":35240:35256  nCheckpoints > 0 */\n      0xffffffff\n      and\n      gt\n        /* \"contracts/ERC20/LinkDaoPresale.sol\":35240:35307  nCheckpoints > 0 ? checkpoints[account][nCheckpoints - 1].votes : 0 */\n      tag_202\n      jumpi\n        /* \"contracts/ERC20/LinkDaoPresale.sol\":35306:35307  0 */\n      0x00\n        /* \"contracts/ERC20/LinkDaoPresale.sol\":35240:35307  nCheckpoints > 0 ? checkpoints[account][nCheckpoints - 1].votes : 0 */\n      jump(tag_203)\n    tag_202:\n        /* \"contracts/ERC20/LinkDaoPresale.sol\":35259:35270  checkpoints */\n      0x08\n        /* \"contracts/ERC20/LinkDaoPresale.sol\":35259:35279  checkpoints[account] */\n      0x00\n        /* \"contracts/ERC20/LinkDaoPresale.sol\":35271:35278  account */\n      dup5\n        /* \"contracts/ERC20/LinkDaoPresale.sol\":35259:35279  checkpoints[account] */\n      0xffffffffffffffffffffffffffffffffffffffff\n      and\n      0xffffffffffffffffffffffffffffffffffffffff\n      and\n      dup2\n      mstore\n      0x20\n      add\n      swap1\n      dup2\n      mstore\n      0x20\n      add\n      0x00\n      keccak256\n        /* \"contracts/ERC20/LinkDaoPresale.sol\":35259:35297  checkpoints[account][nCheckpoints - 1] */\n      0x00\n        /* \"contracts/ERC20/LinkDaoPresale.sol\":35295:35296  1 */\n      0x01\n        /* \"contracts/ERC20/LinkDaoPresale.sol\":35280:35292  nCheckpoints */\n      dup4\n        /* \"contracts/ERC20/LinkDaoPresale.sol\":35280:35296  nCheckpoints - 1 */\n      sub\n        /* \"contracts/ERC20/LinkDaoPresale.sol\":35259:35297  checkpoints[account][nCheckpoints - 1] */\n      0xffffffff\n      and\n      0xffffffff\n      and\n      dup2\n      mstore\n      0x20\n      add\n      swap1\n      dup2\n      mstore\n      0x20\n      add\n      0x00\n      keccak256\n        /* \"contracts/ERC20/LinkDaoPresale.sol\":35259:35303  checkpoints[account][nCheckpoints - 1].votes */\n      0x01\n      add\n      sload\n        /* \"contracts/ERC20/LinkDaoPresale.sol\":35240:35307  nCheckpoints > 0 ? checkpoints[account][nCheckpoints - 1].votes : 0 */\n    tag_203:\n        /* \"contracts/ERC20/LinkDaoPresale.sol\":35220:35307  return\r... */\n      swap2\n      pop\n      pop\n        /* \"contracts/ERC20/LinkDaoPresale.sol\":35079:35315  function getCurrentVotes(address account) external view returns (uint256) {\r... */\n      swap2\n      swap1\n      pop\n      jump\t// out\n        /* \"contracts/ERC20/LinkDaoPresale.sol\":33786:34878  function delegateBySig(\r... */\n    tag_109:\n        /* \"contracts/ERC20/LinkDaoPresale.sol\":33971:33994  bytes32 domainSeparator */\n      0x00\n        /* \"contracts/ERC20/LinkDaoPresale.sol\":31935:32039  keccak256(\r... */\n      0x8cad95687ba82c2ce50e74f7b754645e5117c3a5bec8151c0726d5857980a866\n        /* \"contracts/ERC20/LinkDaoPresale.sol\":34100:34106  name() */\n      tag_205\n        /* \"contracts/ERC20/LinkDaoPresale.sol\":34100:34104  name */\n      tag_40\n        /* \"contracts/ERC20/LinkDaoPresale.sol\":34100:34106  name() */\n      jump\t// in\n    tag_205:\n        /* \"contracts/ERC20/LinkDaoPresale.sol\":34084:34108  keccak256(bytes(name())) */\n      dup1\n      mload\n      swap1\n      0x20\n      add\n      keccak256\n        /* \"contracts/ERC20/LinkDaoPresale.sol\":34127:34139  getChainId() */\n      tag_206\n        /* \"contracts/ERC20/LinkDaoPresale.sol\":34127:34137  getChainId */\n      tag_207\n        /* \"contracts/ERC20/LinkDaoPresale.sol\":34127:34139  getChainId() */\n      jump\t// in\n    tag_206:\n        /* \"contracts/ERC20/LinkDaoPresale.sol\":34166:34170  this */\n      address\n        /* \"contracts/ERC20/LinkDaoPresale.sol\":34021:34186  abi.encode(\r... */\n      add(0x20, mload(0x40))\n      dup1\n      dup6\n      dup2\n      mstore\n      0x20\n      add\n      dup5\n      dup2\n      mstore\n      0x20\n      add\n      dup4\n      dup2\n      mstore\n      0x20\n      add\n      dup3\n      0xffffffffffffffffffffffffffffffffffffffff\n      and\n      dup2\n      mstore\n      0x20\n      add\n      swap5\n      pop\n      pop\n      pop\n      pop\n      pop\n      mload(0x40)\n      0x20\n      dup2\n      dup4\n      sub\n      sub\n      dup2\n      mstore\n      swap1\n      0x40\n      mstore\n        /* \"contracts/ERC20/LinkDaoPresale.sol\":33997:34197  keccak256(\r... */\n      dup1\n      mload\n      swap1\n      0x20\n      add\n      keccak256\n        /* \"contracts/ERC20/LinkDaoPresale.sol\":33971:34197  bytes32 domainSeparator = keccak256(\r... */\n      swap1\n      pop\n        /* \"contracts/ERC20/LinkDaoPresale.sol\":34210:34228  bytes32 structHash */\n      0x00\n        /* \"contracts/ERC20/LinkDaoPresale.sol\":32188:32259  keccak256(\"Delegation(address delegatee,uint256 nonce,uint256 expiry)\") */\n      0xe48329057bfd03d55e49b547132e39cffd9c1820ad7b9d4c5307691425d15adf\n        /* \"contracts/ERC20/LinkDaoPresale.sol\":34287:34296  delegatee */\n      dup9\n        /* \"contracts/ERC20/LinkDaoPresale.sol\":34298:34303  nonce */\n      dup9\n        /* \"contracts/ERC20/LinkDaoPresale.sol\":34305:34311  expiry */\n      dup9\n        /* \"contracts/ERC20/LinkDaoPresale.sol\":34255:34312  abi.encode(DELEGATION_TYPEHASH, delegatee, nonce, expiry) */\n      add(0x20, mload(0x40))\n      dup1\n      dup6\n      dup2\n      mstore\n      0x20\n      add\n      dup5\n      0xffffffffffffffffffffffffffffffffffffffff\n      and\n      dup2\n      mstore\n      0x20\n      add\n      dup4\n      dup2\n      mstore\n      0x20\n      add\n      dup3\n      dup2\n      mstore\n      0x20\n      add\n      swap5\n      pop\n      pop\n      pop\n      pop\n      pop\n      mload(0x40)\n      0x20\n      dup2\n      dup4\n      sub\n      sub\n      dup2\n      mstore\n      swap1\n      0x40\n      mstore\n        /* \"contracts/ERC20/LinkDaoPresale.sol\":34231:34323  keccak256(\r... */\n      dup1\n      mload\n      swap1\n      0x20\n      add\n      keccak256\n        /* \"contracts/ERC20/LinkDaoPresale.sol\":34210:34323  bytes32 structHash = keccak256(\r... */\n      swap1\n      pop\n        /* \"contracts/ERC20/LinkDaoPresale.sol\":34336:34350  bytes32 digest */\n      0x00\n        /* \"contracts/ERC20/LinkDaoPresale.sol\":34406:34421  domainSeparator */\n      dup3\n        /* \"contracts/ERC20/LinkDaoPresale.sol\":34423:34433  structHash */\n      dup3\n        /* \"contracts/ERC20/LinkDaoPresale.sol\":34377:34434  abi.encodePacked(\"\\x19\\x01\", domainSeparator, structHash) */\n      add(0x20, mload(0x40))\n      dup1\n      dup1\n      0x1901000000000000000000000000000000000000000000000000000000000000\n      dup2\n      mstore\n      pop\n      0x02\n      add\n      dup4\n      dup2\n      mstore\n      0x20\n      add\n      dup3\n      dup2\n      mstore\n      0x20\n      add\n      swap3\n      pop\n      pop\n      pop\n      mload(0x40)\n      0x20\n      dup2\n      dup4\n      sub\n      sub\n      dup2\n      mstore\n      swap1\n      0x40\n      mstore\n        /* \"contracts/ERC20/LinkDaoPresale.sol\":34353:34445  keccak256(\r... */\n      dup1\n      mload\n      swap1\n      0x20\n      add\n      keccak256\n        /* \"contracts/ERC20/LinkDaoPresale.sol\":34336:34445  bytes32 digest = keccak256(\r... */\n      swap1\n      pop\n        /* \"contracts/ERC20/LinkDaoPresale.sol\":34458:34475  address signatory */\n      0x00\n        /* \"contracts/ERC20/LinkDaoPresale.sol\":34478:34504  ecrecover(digest, v, r, s) */\n      0x01\n        /* \"contracts/ERC20/LinkDaoPresale.sol\":34488:34494  digest */\n      dup3\n        /* \"contracts/ERC20/LinkDaoPresale.sol\":34496:34497  v */\n      dup9\n        /* \"contracts/ERC20/LinkDaoPresale.sol\":34499:34500  r */\n      dup9\n        /* \"contracts/ERC20/LinkDaoPresale.sol\":34502:34503  s */\n      dup9\n        /* \"contracts/ERC20/LinkDaoPresale.sol\":34478:34504  ecrecover(digest, v, r, s) */\n      mload(0x40)\n      0x00\n      dup2\n      mstore\n      0x20\n      add\n      0x40\n      mstore\n      mload(0x40)\n      dup1\n      dup6\n      dup2\n      mstore\n      0x20\n      add\n      dup5\n      0xff\n      and\n      dup2\n      mstore\n      0x20\n      add\n      dup4\n      dup2\n      mstore\n      0x20\n      add\n      dup3\n      dup2\n      mstore\n      0x20\n      add\n      swap5\n      pop\n      pop\n      pop\n      pop\n      pop\n      0x20\n      mload(0x40)\n      0x20\n      dup2\n      sub\n      swap1\n      dup1\n      dup5\n      sub\n      swap1\n      dup6\n      gas\n      staticcall\n      iszero\n      dup1\n      iszero\n      tag_209\n      jumpi\n      returndatasize\n      0x00\n      dup1\n      returndatacopy\n      revert(0x00, returndatasize)\n    tag_209:\n      pop\n      pop\n      pop\n      mload(sub(mload(0x40), 0x20))\n        /* \"contracts/ERC20/LinkDaoPresale.sol\":34458:34504  address signatory = ecrecover(digest, v, r, s) */\n      swap1\n      pop\n        /* \"contracts/ERC20/LinkDaoPresale.sol\":34558:34559  0 */\n      0x00\n        /* \"contracts/ERC20/LinkDaoPresale.sol\":34537:34560  signatory != address(0) */\n      0xffffffffffffffffffffffffffffffffffffffff\n      and\n        /* \"contracts/ERC20/LinkDaoPresale.sol\":34537:34546  signatory */\n      dup2\n        /* \"contracts/ERC20/LinkDaoPresale.sol\":34537:34560  signatory != address(0) */\n      0xffffffffffffffffffffffffffffffffffffffff\n      and\n      eq\n      iszero\n        /* \"contracts/ERC20/LinkDaoPresale.sol\":34515:34625  require(\r... */\n      tag_210\n      jumpi\n      mload(0x40)\n      0x08c379a000000000000000000000000000000000000000000000000000000000\n      dup2\n      mstore\n      0x04\n      add\n      dup1\n      dup1\n      0x20\n      add\n      dup3\n      dup2\n      sub\n      dup3\n      mstore\n      0x25\n      dup2\n      mstore\n      0x20\n      add\n      dup1\n      data_e7130dd79b7e74c8b6dc57312630e5bf7caa78185197c7fadeb232b2ec02b57a\n      0x25\n      swap2\n      codecopy\n      0x40\n      add\n      swap2\n      pop\n      pop\n      mload(0x40)\n      dup1\n      swap2\n      sub\n      swap1\n      revert\n    tag_210:\n        /* \"contracts/ERC20/LinkDaoPresale.sol\":34667:34673  nonces */\n      0x0a\n        /* \"contracts/ERC20/LinkDaoPresale.sol\":34667:34684  nonces[signatory] */\n      0x00\n        /* \"contracts/ERC20/LinkDaoPresale.sol\":34674:34683  signatory */\n      dup3\n        /* \"contracts/ERC20/LinkDaoPresale.sol\":34667:34684  nonces[signatory] */\n      0xffffffffffffffffffffffffffffffffffffffff\n      and\n      0xffffffffffffffffffffffffffffffffffffffff\n      and\n      dup2\n      mstore\n      0x20\n      add\n      swap1\n      dup2\n      mstore\n      0x20\n      add\n      0x00\n      keccak256\n      0x00\n        /* \"contracts/ERC20/LinkDaoPresale.sol\":34667:34686  nonces[signatory]++ */\n      dup2\n      sload\n      dup1\n      swap3\n      swap2\n      swap1\n      0x01\n      add\n      swap2\n      swap1\n      pop\n      sstore\n        /* \"contracts/ERC20/LinkDaoPresale.sol\":34658:34663  nonce */\n      dup10\n        /* \"contracts/ERC20/LinkDaoPresale.sol\":34658:34686  nonce == nonces[signatory]++ */\n      eq\n        /* \"contracts/ERC20/LinkDaoPresale.sol\":34636:34747  require(\r... */\n      tag_211\n      jumpi\n      mload(0x40)\n      0x08c379a000000000000000000000000000000000000000000000000000000000\n      dup2\n      mstore\n      0x04\n      add\n      dup1\n      dup1\n      0x20\n      add\n      dup3\n      dup2\n      sub\n      dup3\n      mstore\n      0x21\n      dup2\n      mstore\n      0x20\n      add\n      dup1\n      data_81059427b8f63564074807495b4c8e967e2fdd4ccf6e51507624801253f7a792\n      0x21\n      swap2\n      codecopy\n      0x40\n      add\n      swap2\n      pop\n      pop\n      mload(0x40)\n      dup1\n      swap2\n      sub\n      swap1\n      revert\n    tag_211:\n        /* \"contracts/ERC20/LinkDaoPresale.sol\":34773:34779  expiry */\n      dup8\n        /* \"contracts/ERC20/LinkDaoPresale.sol\":34766:34769  now */\n      timestamp\n        /* \"contracts/ERC20/LinkDaoPresale.sol\":34766:34779  now <= expiry */\n      gt\n      iszero\n        /* \"contracts/ERC20/LinkDaoPresale.sol\":34758:34821  require(now <= expiry, \"LKD::delegateBySig: signature expired\") */\n      tag_212\n      jumpi\n      mload(0x40)\n      0x08c379a000000000000000000000000000000000000000000000000000000000\n      dup2\n      mstore\n      0x04\n      add\n      dup1\n      dup1\n      0x20\n      add\n      dup3\n      dup2\n      sub\n      dup3\n      mstore\n      0x25\n      dup2\n      mstore\n      0x20\n      add\n      dup1\n      data_9b22412eb6f83238358775eee00c41dc066fb13c06bb4138a84bc254e849185a\n      0x25\n      swap2\n      codecopy\n      0x40\n      add\n      swap2\n      pop\n      pop\n      mload(0x40)\n      dup1\n      swap2\n      sub\n      swap1\n      revert\n    tag_212:\n        /* \"contracts/ERC20/LinkDaoPresale.sol\":34839:34870  _delegate(signatory, delegatee) */\n      tag_213\n        /* \"contracts/ERC20/LinkDaoPresale.sol\":34849:34858  signatory */\n      dup2\n        /* \"contracts/ERC20/LinkDaoPresale.sol\":34860:34869  delegatee */\n      dup12\n        /* \"contracts/ERC20/LinkDaoPresale.sol\":34839:34848  _delegate */\n      tag_160\n        /* \"contracts/ERC20/LinkDaoPresale.sol\":34839:34870  _delegate(signatory, delegatee) */\n      jump\t// in\n    tag_213:\n        /* \"contracts/ERC20/LinkDaoPresale.sol\":34832:34870  return _delegate(signatory, delegatee) */\n      pop\n      pop\n      pop\n      pop\n        /* \"contracts/ERC20/LinkDaoPresale.sol\":33786:34878  function delegateBySig(\r... */\n      pop\n      pop\n      pop\n      pop\n      pop\n      pop\n      jump\t// out\n        /* \"contracts/ERC20/LinkDaoPresale.sol\":22681:22777  function maxSupply() public view override returns (uint256) {\r... */\n    tag_111:\n        /* \"contracts/ERC20/LinkDaoPresale.sol\":22732:22739  uint256 */\n      0x00\n        /* \"contracts/ERC20/LinkDaoPresale.sol\":20901:20916  10000000 * 1e18 */\n      0x084595161401484a000000\n        /* \"contracts/ERC20/LinkDaoPresale.sol\":22752:22769  return _maxSupply */\n      swap1\n      pop\n        /* \"contracts/ERC20/LinkDaoPresale.sol\":22681:22777  function maxSupply() public view override returns (uint256) {\r... */\n      swap1\n      jump\t// out\n        /* \"contracts/ERC20/LinkDaoPresale.sol\":23431:23615  function allowance(address owner, address spender)\r... */\n    tag_114:\n        /* \"contracts/ERC20/LinkDaoPresale.sol\":23548:23555  uint256 */\n      0x00\n        /* \"contracts/ERC20/LinkDaoPresale.sol\":23580:23591  _allowances */\n      0x02\n        /* \"contracts/ERC20/LinkDaoPresale.sol\":23580:23598  _allowances[owner] */\n      0x00\n        /* \"contracts/ERC20/LinkDaoPresale.sol\":23592:23597  owner */\n      dup5\n        /* \"contracts/ERC20/LinkDaoPresale.sol\":23580:23598  _allowances[owner] */\n      0xffffffffffffffffffffffffffffffffffffffff\n      and\n      0xffffffffffffffffffffffffffffffffffffffff\n      and\n      dup2\n      mstore\n      0x20\n      add\n      swap1\n      dup2\n      mstore\n      0x20\n      add\n      0x00\n      keccak256\n        /* \"contracts/ERC20/LinkDaoPresale.sol\":23580:23607  _allowances[owner][spender] */\n      0x00\n        /* \"contracts/ERC20/LinkDaoPresale.sol\":23599:23606  spender */\n      dup4\n        /* \"contracts/ERC20/LinkDaoPresale.sol\":23580:23607  _allowances[owner][spender] */\n      0xffffffffffffffffffffffffffffffffffffffff\n      and\n      0xffffffffffffffffffffffffffffffffffffffff\n      and\n      dup2\n      mstore\n      0x20\n      add\n      swap1\n      dup2\n      mstore\n      0x20\n      add\n      0x00\n      keccak256\n      sload\n        /* \"contracts/ERC20/LinkDaoPresale.sol\":23573:23607  return _allowances[owner][spender] */\n      swap1\n      pop\n        /* \"contracts/ERC20/LinkDaoPresale.sol\":23431:23615  function allowance(address owner, address spender)\r... */\n      swap3\n      swap2\n      pop\n      pop\n      jump\t// out\n        /* \"contracts/ERC20/LinkDaoPresale.sol\":32133:32259  bytes32 public constant DELEGATION_TYPEHASH =\r... */\n    tag_116:\n        /* \"contracts/ERC20/LinkDaoPresale.sol\":32188:32259  keccak256(\"Delegation(address delegatee,uint256 nonce,uint256 expiry)\") */\n      0xe48329057bfd03d55e49b547132e39cffd9c1820ad7b9d4c5307691425d15adf\n        /* \"contracts/ERC20/LinkDaoPresale.sol\":32133:32259  bytes32 public constant DELEGATION_TYPEHASH =\r... */\n      dup2\n      jump\t// out\n        /* \"contracts/ERC20/LinkDaoPresale.sol\":31626:31694  mapping(address => mapping(uint32 => Checkpoint)) public checkpoints */\n    tag_119:\n      mstore(0x20, 0x08)\n      dup2\n      0x00\n      mstore\n      mstore(0x20, keccak256(0x00, 0x40))\n      dup1\n      0x00\n      mstore\n      keccak256(0x00, 0x40)\n      0x00\n      swap2\n      pop\n      swap2\n      pop\n      pop\n      dup1\n      0x00\n      add\n      0x00\n      swap1\n      sload\n      swap1\n      0x0100\n      exp\n      swap1\n      div\n      0xffffffff\n      and\n      swap1\n      dup1\n      0x01\n      add\n      sload\n      swap1\n      pop\n      dup3\n      jump\t// out\n        /* \"contracts/ERC20/LinkDaoPresale.sol\":3172:3281  function transferOwnership(address newOwner) public onlyOwner {\r... */\n    tag_122:\n        /* \"contracts/ERC20/LinkDaoPresale.sol\":2457:2469  _msgSender() */\n      tag_217\n        /* \"contracts/ERC20/LinkDaoPresale.sol\":2457:2467  _msgSender */\n      tag_131\n        /* \"contracts/ERC20/LinkDaoPresale.sol\":2457:2469  _msgSender() */\n      jump\t// in\n    tag_217:\n        /* \"contracts/ERC20/LinkDaoPresale.sol\":2447:2469  _owner == _msgSender() */\n      0xffffffffffffffffffffffffffffffffffffffff\n      and\n        /* \"contracts/ERC20/LinkDaoPresale.sol\":2447:2453  _owner */\n      0x00\n      dup1\n      sload\n      swap1\n      0x0100\n      exp\n      swap1\n      div\n      0xffffffffffffffffffffffffffffffffffffffff\n      and\n        /* \"contracts/ERC20/LinkDaoPresale.sol\":2447:2469  _owner == _msgSender() */\n      0xffffffffffffffffffffffffffffffffffffffff\n      and\n      eq\n        /* \"contracts/ERC20/LinkDaoPresale.sol\":2439:2506  require(_owner == _msgSender(), \"Ownable: caller is not the owner\") */\n      tag_218\n      jumpi\n      mload(0x40)\n      0x08c379a000000000000000000000000000000000000000000000000000000000\n      dup2\n      mstore\n      0x04\n      add\n      dup1\n      dup1\n      0x20\n      add\n      dup3\n      dup2\n      sub\n      dup3\n      mstore\n      0x20\n      dup2\n      mstore\n      0x20\n      add\n      dup1\n      0x4f776e61626c653a2063616c6c6572206973206e6f7420746865206f776e6572\n      dup2\n      mstore\n      pop\n      0x20\n      add\n      swap2\n      pop\n      pop\n      mload(0x40)\n      dup1\n      swap2\n      sub\n      swap1\n      revert\n    tag_218:\n        /* \"contracts/ERC20/LinkDaoPresale.sol\":3245:3273  _transferOwnership(newOwner) */\n      tag_220\n        /* \"contracts/ERC20/LinkDaoPresale.sol\":3264:3272  newOwner */\n      dup2\n        /* \"contracts/ERC20/LinkDaoPresale.sol\":3245:3263  _transferOwnership */\n      tag_221\n        /* \"contracts/ERC20/LinkDaoPresale.sol\":3245:3273  _transferOwnership(newOwner) */\n      jump\t// in\n    tag_220:\n        /* \"contracts/ERC20/LinkDaoPresale.sol\":3172:3281  function transferOwnership(address newOwner) public onlyOwner {\r... */\n      pop\n      jump\t// out\n        /* \"contracts/ERC20/LinkDaoPresale.sol\":7862:8043  function add(uint256 a, uint256 b) internal pure returns (uint256) {\r... */\n    tag_123:\n        /* \"contracts/ERC20/LinkDaoPresale.sol\":7920:7927  uint256 */\n      0x00\n        /* \"contracts/ERC20/LinkDaoPresale.sol\":7940:7949  uint256 c */\n      dup1\n        /* \"contracts/ERC20/LinkDaoPresale.sol\":7956:7957  b */\n      dup3\n        /* \"contracts/ERC20/LinkDaoPresale.sol\":7952:7953  a */\n      dup5\n        /* \"contracts/ERC20/LinkDaoPresale.sol\":7952:7957  a + b */\n      add\n        /* \"contracts/ERC20/LinkDaoPresale.sol\":7940:7957  uint256 c = a + b */\n      swap1\n      pop\n        /* \"contracts/ERC20/LinkDaoPresale.sol\":7981:7982  a */\n      dup4\n        /* \"contracts/ERC20/LinkDaoPresale.sol\":7976:7977  c */\n      dup2\n        /* \"contracts/ERC20/LinkDaoPresale.sol\":7976:7982  c >= a */\n      lt\n      iszero\n        /* \"contracts/ERC20/LinkDaoPresale.sol\":7968:8014  require(c >= a, \"SafeMath: addition overflow\") */\n      tag_223\n      jumpi\n      mload(0x40)\n      0x08c379a000000000000000000000000000000000000000000000000000000000\n      dup2\n      mstore\n      0x04\n      add\n      dup1\n      dup1\n      0x20\n      add\n      dup3\n      dup2\n      sub\n      dup3\n      mstore\n      0x1b\n      dup2\n      mstore\n      0x20\n      add\n      dup1\n      0x536166654d6174683a206164646974696f6e206f766572666c6f770000000000\n      dup2\n      mstore\n      pop\n      0x20\n      add\n      swap2\n      pop\n      pop\n      mload(0x40)\n      dup1\n      swap2\n      sub\n      swap1\n      revert\n    tag_223:\n        /* \"contracts/ERC20/LinkDaoPresale.sol\":8034:8035  c */\n      dup1\n        /* \"contracts/ERC20/LinkDaoPresale.sol\":8027:8035  return c */\n      swap2\n      pop\n      pop\n        /* \"contracts/ERC20/LinkDaoPresale.sol\":7862:8043  function add(uint256 a, uint256 b) internal pure returns (uint256) {\r... */\n      swap3\n      swap2\n      pop\n      pop\n      jump\t// out\n        /* \"contracts/ERC20/LinkDaoPresale.sol\":861:959  function _msgSender() internal view returns (address payable) {\r... */\n    tag_131:\n        /* \"contracts/ERC20/LinkDaoPresale.sol\":906:921  address payable */\n      0x00\n        /* \"contracts/ERC20/LinkDaoPresale.sol\":941:951  msg.sender */\n      caller\n        /* \"contracts/ERC20/LinkDaoPresale.sol\":934:951  return msg.sender */\n      swap1\n      pop\n        /* \"contracts/ERC20/LinkDaoPresale.sol\":861:959  function _msgSender() internal view returns (address payable) {\r... */\n      swap1\n      jump\t// out\n        /* \"contracts/ERC20/LinkDaoPresale.sol\":29680:30052  function _approve(\r... */\n    tag_132:\n        /* \"contracts/ERC20/LinkDaoPresale.sol\":29825:29826  0 */\n      0x00\n        /* \"contracts/ERC20/LinkDaoPresale.sol\":29808:29827  owner != address(0) */\n      0xffffffffffffffffffffffffffffffffffffffff\n      and\n        /* \"contracts/ERC20/LinkDaoPresale.sol\":29808:29813  owner */\n      dup4\n        /* \"contracts/ERC20/LinkDaoPresale.sol\":29808:29827  owner != address(0) */\n      0xffffffffffffffffffffffffffffffffffffffff\n      and\n      eq\n      iszero\n        /* \"contracts/ERC20/LinkDaoPresale.sol\":29800:29868  require(owner != address(0), \"BEP20: approve from the zero address\") */\n      tag_226\n      jumpi\n      mload(0x40)\n      0x08c379a000000000000000000000000000000000000000000000000000000000\n      dup2\n      mstore\n      0x04\n      add\n      dup1\n      dup1\n      0x20\n      add\n      dup3\n      dup2\n      sub\n      dup3\n      mstore\n      0x24\n      dup2\n      mstore\n      0x20\n      add\n      dup1\n      data_1441cfbef485de93bedecc35b3d10fa2992db382c4c9c583a6e423a140abe4a4\n      0x24\n      swap2\n      codecopy\n      0x40\n      add\n      swap2\n      pop\n      pop\n      mload(0x40)\n      dup1\n      swap2\n      sub\n      swap1\n      revert\n    tag_226:\n        /* \"contracts/ERC20/LinkDaoPresale.sol\":29906:29907  0 */\n      0x00\n        /* \"contracts/ERC20/LinkDaoPresale.sol\":29887:29908  spender != address(0) */\n      0xffffffffffffffffffffffffffffffffffffffff\n      and\n        /* \"contracts/ERC20/LinkDaoPresale.sol\":29887:29894  spender */\n      dup3\n        /* \"contracts/ERC20/LinkDaoPresale.sol\":29887:29908  spender != address(0) */\n      0xffffffffffffffffffffffffffffffffffffffff\n      and\n      eq\n      iszero\n        /* \"contracts/ERC20/LinkDaoPresale.sol\":29879:29947  require(spender != address(0), \"BEP20: approve to the zero address\") */\n      tag_227\n      jumpi\n      mload(0x40)\n      0x08c379a000000000000000000000000000000000000000000000000000000000\n      dup2\n      mstore\n      0x04\n      add\n      dup1\n      dup1\n      0x20\n      add\n      dup3\n      dup2\n      sub\n      dup3\n      mstore\n      0x22\n      dup2\n      mstore\n      0x20\n      add\n      dup1\n      data_f10e7571e18b354270dee950932fb6a745efc79414b2b2556185a4ed6a1af0d5\n      0x22\n      swap2\n      codecopy\n      0x40\n      add\n      swap2\n      pop\n      pop\n      mload(0x40)\n      dup1\n      swap2\n      sub\n      swap1\n      revert\n    tag_227:\n        /* \"contracts/ERC20/LinkDaoPresale.sol\":29990:29996  amount */\n      dup1\n        /* \"contracts/ERC20/LinkDaoPresale.sol\":29960:29971  _allowances */\n      0x02\n        /* \"contracts/ERC20/LinkDaoPresale.sol\":29960:29978  _allowances[owner] */\n      0x00\n        /* \"contracts/ERC20/LinkDaoPresale.sol\":29972:29977  owner */\n      dup6\n        /* \"contracts/ERC20/LinkDaoPresale.sol\":29960:29978  _allowances[owner] */\n      0xffffffffffffffffffffffffffffffffffffffff\n      and\n      0xffffffffffffffffffffffffffffffffffffffff\n      and\n      dup2\n      mstore\n      0x20\n      add\n      swap1\n      dup2\n      mstore\n      0x20\n      add\n      0x00\n      keccak256\n        /* \"contracts/ERC20/LinkDaoPresale.sol\":29960:29987  _allowances[owner][spender] */\n      0x00\n        /* \"contracts/ERC20/LinkDaoPresale.sol\":29979:29986  spender */\n      dup5\n        /* \"contracts/ERC20/LinkDaoPresale.sol\":29960:29987  _allowances[owner][spender] */\n      0xffffffffffffffffffffffffffffffffffffffff\n      and\n      0xffffffffffffffffffffffffffffffffffffffff\n      and\n      dup2\n      mstore\n      0x20\n      add\n      swap1\n      dup2\n      mstore\n      0x20\n      add\n      0x00\n      keccak256\n        /* \"contracts/ERC20/LinkDaoPresale.sol\":29960:29996  _allowances[owner][spender] = amount */\n      dup2\n      swap1\n      sstore\n      pop\n        /* \"contracts/ERC20/LinkDaoPresale.sol\":30028:30035  spender */\n      dup2\n        /* \"contracts/ERC20/LinkDaoPresale.sol\":30012:30044  Approval(owner, spender, amount) */\n      0xffffffffffffffffffffffffffffffffffffffff\n      and\n        /* \"contracts/ERC20/LinkDaoPresale.sol\":30021:30026  owner */\n      dup4\n        /* \"contracts/ERC20/LinkDaoPresale.sol\":30012:30044  Approval(owner, spender, amount) */\n      0xffffffffffffffffffffffffffffffffffffffff\n      and\n      0x8c5be1e5ebec7d5bd14f71427d1e84f3dd0314c0f7b2291e5b200ac8c7c3b925\n        /* \"contracts/ERC20/LinkDaoPresale.sol\":30037:30043  amount */\n      dup4\n        /* \"contracts/ERC20/LinkDaoPresale.sol\":30012:30044  Approval(owner, spender, amount) */\n      mload(0x40)\n      dup1\n      dup3\n      dup2\n      mstore\n      0x20\n      add\n      swap2\n      pop\n      pop\n      mload(0x40)\n      dup1\n      swap2\n      sub\n      swap1\n      log3\n        /* \"contracts/ERC20/LinkDaoPresale.sol\":29680:30052  function _approve(\r... */\n      pop\n      pop\n      pop\n      jump\t// out\n        /* \"contracts/ERC20/LinkDaoPresale.sol\":27285:27827  function _transfer(\r... */\n    tag_137:\n        /* \"contracts/ERC20/LinkDaoPresale.sol\":27435:27436  0 */\n      0x00\n        /* \"contracts/ERC20/LinkDaoPresale.sol\":27417:27437  sender != address(0) */\n      0xffffffffffffffffffffffffffffffffffffffff\n      and\n        /* \"contracts/ERC20/LinkDaoPresale.sol\":27417:27423  sender */\n      dup4\n        /* \"contracts/ERC20/LinkDaoPresale.sol\":27417:27437  sender != address(0) */\n      0xffffffffffffffffffffffffffffffffffffffff\n      and\n      eq\n      iszero\n        /* \"contracts/ERC20/LinkDaoPresale.sol\":27409:27479  require(sender != address(0), \"BEP20: transfer from the zero address\") */\n      tag_229\n      jumpi\n      mload(0x40)\n      0x08c379a000000000000000000000000000000000000000000000000000000000\n      dup2\n      mstore\n      0x04\n      add\n      dup1\n      dup1\n      0x20\n      add\n      dup3\n      dup2\n      sub\n      dup3\n      mstore\n      0x25\n      dup2\n      mstore\n      0x20\n      add\n      dup1\n      data_0d26cf302d50b28de74be656b11d67092b32131e5712d1bcf08c4e976dacda57\n      0x25\n      swap2\n      codecopy\n      0x40\n      add\n      swap2\n      pop\n      pop\n      mload(0x40)\n      dup1\n      swap2\n      sub\n      swap1\n      revert\n    tag_229:\n        /* \"contracts/ERC20/LinkDaoPresale.sol\":27519:27520  0 */\n      0x00\n        /* \"contracts/ERC20/LinkDaoPresale.sol\":27498:27521  recipient != address(0) */\n      0xffffffffffffffffffffffffffffffffffffffff\n      and\n        /* \"contracts/ERC20/LinkDaoPresale.sol\":27498:27507  recipient */\n      dup3\n        /* \"contracts/ERC20/LinkDaoPresale.sol\":27498:27521  recipient != address(0) */\n      0xffffffffffffffffffffffffffffffffffffffff\n      and\n      eq\n      iszero\n        /* \"contracts/ERC20/LinkDaoPresale.sol\":27490:27561  require(recipient != address(0), \"BEP20: transfer to the zero address\") */\n      tag_230\n      jumpi\n      mload(0x40)\n      0x08c379a000000000000000000000000000000000000000000000000000000000\n      dup2\n      mstore\n      0x04\n      add\n      dup1\n      dup1\n      0x20\n      add\n      dup3\n      dup2\n      sub\n      dup3\n      mstore\n      0x23\n      dup2\n      mstore\n      0x20\n      add\n      dup1\n      data_ade9efcb59e42e439ffe61509b352b1af56d64ccb68d80b039b7b69578f371d2\n      0x23\n      swap2\n      codecopy\n      0x40\n      add\n      swap2\n      pop\n      pop\n      mload(0x40)\n      dup1\n      swap2\n      sub\n      swap1\n      revert\n    tag_230:\n        /* \"contracts/ERC20/LinkDaoPresale.sol\":27594:27702  _balances[sender].sub(\r... */\n      tag_231\n        /* \"contracts/ERC20/LinkDaoPresale.sol\":27630:27636  amount */\n      dup2\n        /* \"contracts/ERC20/LinkDaoPresale.sol\":27594:27702  _balances[sender].sub(\r... */\n      mload(0x40)\n      dup1\n      0x60\n      add\n      0x40\n      mstore\n      dup1\n      0x26\n      dup2\n      mstore\n      0x20\n      add\n      data_a91efd7a65ef5b4ae4d6568d674798b78a5a89184dd296c100513251c22d3e73\n      0x26\n      swap2\n      codecopy\n        /* \"contracts/ERC20/LinkDaoPresale.sol\":27594:27603  _balances */\n      0x01\n        /* \"contracts/ERC20/LinkDaoPresale.sol\":27594:27611  _balances[sender] */\n      0x00\n        /* \"contracts/ERC20/LinkDaoPresale.sol\":27604:27610  sender */\n      dup8\n        /* \"contracts/ERC20/LinkDaoPresale.sol\":27594:27611  _balances[sender] */\n      0xffffffffffffffffffffffffffffffffffffffff\n      and\n      0xffffffffffffffffffffffffffffffffffffffff\n      and\n      dup2\n      mstore\n      0x20\n      add\n      swap1\n      dup2\n      mstore\n      0x20\n      add\n      0x00\n      keccak256\n      sload\n        /* \"contracts/ERC20/LinkDaoPresale.sol\":27594:27615  _balances[sender].sub */\n      tag_142\n      swap1\n        /* \"contracts/ERC20/LinkDaoPresale.sol\":27594:27702  _balances[sender].sub(\r... */\n      swap3\n      swap2\n      swap1\n      0xffffffff\n      and\n      jump\t// in\n    tag_231:\n        /* \"contracts/ERC20/LinkDaoPresale.sol\":27574:27583  _balances */\n      0x01\n        /* \"contracts/ERC20/LinkDaoPresale.sol\":27574:27591  _balances[sender] */\n      0x00\n        /* \"contracts/ERC20/LinkDaoPresale.sol\":27584:27590  sender */\n      dup6\n        /* \"contracts/ERC20/LinkDaoPresale.sol\":27574:27591  _balances[sender] */\n      0xffffffffffffffffffffffffffffffffffffffff\n      and\n      0xffffffffffffffffffffffffffffffffffffffff\n      and\n      dup2\n      mstore\n      0x20\n      add\n      swap1\n      dup2\n      mstore\n      0x20\n      add\n      0x00\n      keccak256\n        /* \"contracts/ERC20/LinkDaoPresale.sol\":27574:27702  _balances[sender] = _balances[sender].sub(\r... */\n      dup2\n      swap1\n      sstore\n      pop\n        /* \"contracts/ERC20/LinkDaoPresale.sol\":27736:27768  _balances[recipient].add(amount) */\n      tag_232\n        /* \"contracts/ERC20/LinkDaoPresale.sol\":27761:27767  amount */\n      dup2\n        /* \"contracts/ERC20/LinkDaoPresale.sol\":27736:27745  _balances */\n      0x01\n        /* \"contracts/ERC20/LinkDaoPresale.sol\":27736:27756  _balances[recipient] */\n      0x00\n        /* \"contracts/ERC20/LinkDaoPresale.sol\":27746:27755  recipient */\n      dup6\n        /* \"contracts/ERC20/LinkDaoPresale.sol\":27736:27756  _balances[recipient] */\n      0xffffffffffffffffffffffffffffffffffffffff\n      and\n      0xffffffffffffffffffffffffffffffffffffffff\n      and\n      dup2\n      mstore\n      0x20\n      add\n      swap1\n      dup2\n      mstore\n      0x20\n      add\n      0x00\n      keccak256\n      sload\n        /* \"contracts/ERC20/LinkDaoPresale.sol\":27736:27760  _balances[recipient].add */\n      tag_123\n      swap1\n        /* \"contracts/ERC20/LinkDaoPresale.sol\":27736:27768  _balances[recipient].add(amount) */\n      swap2\n      swap1\n      0xffffffff\n      and\n      jump\t// in\n    tag_232:\n        /* \"contracts/ERC20/LinkDaoPresale.sol\":27713:27722  _balances */\n      0x01\n        /* \"contracts/ERC20/LinkDaoPresale.sol\":27713:27733  _balances[recipient] */\n      0x00\n        /* \"contracts/ERC20/LinkDaoPresale.sol\":27723:27732  recipient */\n      dup5\n        /* \"contracts/ERC20/LinkDaoPresale.sol\":27713:27733  _balances[recipient] */\n      0xffffffffffffffffffffffffffffffffffffffff\n      and\n      0xffffffffffffffffffffffffffffffffffffffff\n      and\n      dup2\n      mstore\n      0x20\n      add\n      swap1\n      dup2\n      mstore\n      0x20\n      add\n      0x00\n      keccak256\n        /* \"contracts/ERC20/LinkDaoPresale.sol\":27713:27768  _balances[recipient] = _balances[recipient].add(amount) */\n      dup2\n      swap1\n      sstore\n      pop\n        /* \"contracts/ERC20/LinkDaoPresale.sol\":27801:27810  recipient */\n      dup2\n        /* \"contracts/ERC20/LinkDaoPresale.sol\":27784:27819  Transfer(sender, recipient, amount) */\n      0xffffffffffffffffffffffffffffffffffffffff\n      and\n        /* \"contracts/ERC20/LinkDaoPresale.sol\":27793:27799  sender */\n      dup4\n        /* \"contracts/ERC20/LinkDaoPresale.sol\":27784:27819  Transfer(sender, recipient, amount) */\n      0xffffffffffffffffffffffffffffffffffffffff\n      and\n      0xddf252ad1be2c89b69c2b068fc378daa952ba7f163c4a11628f55a4df523b3ef\n        /* \"contracts/ERC20/LinkDaoPresale.sol\":27812:27818  amount */\n      dup4\n        /* \"contracts/ERC20/LinkDaoPresale.sol\":27784:27819  Transfer(sender, recipient, amount) */\n      mload(0x40)\n      dup1\n      dup3\n      dup2\n      mstore\n      0x20\n      add\n      swap2\n      pop\n      pop\n      mload(0x40)\n      dup1\n      swap2\n      sub\n      swap1\n      log3\n        /* \"contracts/ERC20/LinkDaoPresale.sol\":27285:27827  function _transfer(\r... */\n      pop\n      pop\n      pop\n      jump\t// out\n        /* \"contracts/ERC20/LinkDaoPresale.sol\":8765:8991  function sub(\r... */\n    tag_142:\n        /* \"contracts/ERC20/LinkDaoPresale.sol\":8885:8892  uint256 */\n      0x00\n        /* \"contracts/ERC20/LinkDaoPresale.sol\":8918:8919  a */\n      dup4\n        /* \"contracts/ERC20/LinkDaoPresale.sol\":8913:8914  b */\n      dup4\n        /* \"contracts/ERC20/LinkDaoPresale.sol\":8913:8919  b <= a */\n      gt\n      iszero\n        /* \"contracts/ERC20/LinkDaoPresale.sol\":8921:8933  errorMessage */\n      dup3\n        /* \"contracts/ERC20/LinkDaoPresale.sol\":8905:8934  require(b <= a, errorMessage) */\n      swap1\n      tag_234\n      jumpi\n      mload(0x40)\n      0x08c379a000000000000000000000000000000000000000000000000000000000\n      dup2\n      mstore\n      0x04\n      add\n      dup1\n      dup1\n      0x20\n      add\n      dup3\n      dup2\n      sub\n      dup3\n      mstore\n      dup4\n      dup2\n      dup2\n      mload\n      dup2\n      mstore\n      0x20\n      add\n      swap2\n      pop\n      dup1\n      mload\n      swap1\n      0x20\n      add\n      swap1\n      dup1\n      dup4\n      dup4\n      0x00\n    tag_235:\n      dup4\n      dup2\n      lt\n      iszero\n      tag_237\n      jumpi\n      dup1\n      dup3\n      add\n      mload\n      dup2\n      dup5\n      add\n      mstore\n      0x20\n      dup2\n      add\n      swap1\n      pop\n      jump(tag_235)\n    tag_237:\n      pop\n      pop\n      pop\n      pop\n      swap1\n      pop\n      swap1\n      dup2\n      add\n      swap1\n      0x1f\n      and\n      dup1\n      iszero\n      tag_238\n      jumpi\n      dup1\n      dup3\n      sub\n      dup1\n      mload\n      0x01\n      dup4\n      0x20\n      sub\n      0x0100\n      exp\n      sub\n      not\n      and\n      dup2\n      mstore\n      0x20\n      add\n      swap2\n      pop\n    tag_238:\n      pop\n      swap3\n      pop\n      pop\n      pop\n      mload(0x40)\n      dup1\n      swap2\n      sub\n      swap1\n      revert\n    tag_234:\n      pop\n        /* \"contracts/ERC20/LinkDaoPresale.sol\":8945:8954  uint256 c */\n      0x00\n        /* \"contracts/ERC20/LinkDaoPresale.sol\":8961:8962  b */\n      dup4\n        /* \"contracts/ERC20/LinkDaoPresale.sol\":8957:8958  a */\n      dup6\n        /* \"contracts/ERC20/LinkDaoPresale.sol\":8957:8962  a - b */\n      sub\n        /* \"contracts/ERC20/LinkDaoPresale.sol\":8945:8962  uint256 c = a - b */\n      swap1\n      pop\n        /* \"contracts/ERC20/LinkDaoPresale.sol\":8982:8983  c */\n      dup1\n        /* \"contracts/ERC20/LinkDaoPresale.sol\":8975:8983  return c */\n      swap2\n      pop\n      pop\n        /* \"contracts/ERC20/LinkDaoPresale.sol\":8765:8991  function sub(\r... */\n      swap4\n      swap3\n      pop\n      pop\n      pop\n      jump\t// out\n        /* \"contracts/ERC20/LinkDaoPresale.sol\":28108:28523  function _mint(address account, uint256 amount) internal returns (bool) {\r... */\n    tag_154:\n        /* \"contracts/ERC20/LinkDaoPresale.sol\":28174:28178  bool */\n      0x00\n        /* \"contracts/ERC20/LinkDaoPresale.sol\":28218:28219  0 */\n      dup1\n        /* \"contracts/ERC20/LinkDaoPresale.sol\":28199:28220  account != address(0) */\n      0xffffffffffffffffffffffffffffffffffffffff\n      and\n        /* \"contracts/ERC20/LinkDaoPresale.sol\":28199:28206  account */\n      dup4\n        /* \"contracts/ERC20/LinkDaoPresale.sol\":28199:28220  account != address(0) */\n      0xffffffffffffffffffffffffffffffffffffffff\n      and\n      eq\n      iszero\n        /* \"contracts/ERC20/LinkDaoPresale.sol\":28191:28256  require(account != address(0), \"BEP20: mint to the zero address\") */\n      tag_240\n      jumpi\n      mload(0x40)\n      0x08c379a000000000000000000000000000000000000000000000000000000000\n      dup2\n      mstore\n      0x04\n      add\n      dup1\n      dup1\n      0x20\n      add\n      dup3\n      dup2\n      sub\n      dup3\n      mstore\n      0x1f\n      dup2\n      mstore\n      0x20\n      add\n      dup1\n      0x42455032303a206d696e7420746f20746865207a65726f206164647265737300\n      dup2\n      mstore\n      pop\n      0x20\n      add\n      swap2\n      pop\n      pop\n      mload(0x40)\n      dup1\n      swap2\n      sub\n      swap1\n      revert\n    tag_240:\n        /* \"contracts/ERC20/LinkDaoPresale.sol\":20901:20916  10000000 * 1e18 */\n      0x084595161401484a000000\n        /* \"contracts/ERC20/LinkDaoPresale.sol\":28271:28295  amount.add(_totalSupply) */\n      tag_241\n        /* \"contracts/ERC20/LinkDaoPresale.sol\":28282:28294  _totalSupply */\n      sload(0x03)\n        /* \"contracts/ERC20/LinkDaoPresale.sol\":28271:28277  amount */\n      dup5\n        /* \"contracts/ERC20/LinkDaoPresale.sol\":28271:28281  amount.add */\n      tag_123\n      swap1\n        /* \"contracts/ERC20/LinkDaoPresale.sol\":28271:28295  amount.add(_totalSupply) */\n      swap2\n      swap1\n      0xffffffff\n      and\n      jump\t// in\n    tag_241:\n        /* \"contracts/ERC20/LinkDaoPresale.sol\":28271:28308  amount.add(_totalSupply) > _maxSupply */\n      gt\n        /* \"contracts/ERC20/LinkDaoPresale.sol\":28267:28349  if (amount.add(_totalSupply) > _maxSupply) {\r... */\n      iszero\n      tag_242\n      jumpi\n        /* \"contracts/ERC20/LinkDaoPresale.sol\":28332:28337  false */\n      0x00\n        /* \"contracts/ERC20/LinkDaoPresale.sol\":28325:28337  return false */\n      swap1\n      pop\n      jump(tag_239)\n        /* \"contracts/ERC20/LinkDaoPresale.sol\":28267:28349  if (amount.add(_totalSupply) > _maxSupply) {\r... */\n    tag_242:\n        /* \"contracts/ERC20/LinkDaoPresale.sol\":28376:28400  _totalSupply.add(amount) */\n      tag_243\n        /* \"contracts/ERC20/LinkDaoPresale.sol\":28393:28399  amount */\n      dup3\n        /* \"contracts/ERC20/LinkDaoPresale.sol\":28376:28388  _totalSupply */\n      sload(0x03)\n        /* \"contracts/ERC20/LinkDaoPresale.sol\":28376:28392  _totalSupply.add */\n      tag_123\n      swap1\n        /* \"contracts/ERC20/LinkDaoPresale.sol\":28376:28400  _totalSupply.add(amount) */\n      swap2\n      swap1\n      0xffffffff\n      and\n      jump\t// in\n    tag_243:\n        /* \"contracts/ERC20/LinkDaoPresale.sol\":28361:28373  _totalSupply */\n      0x03\n        /* \"contracts/ERC20/LinkDaoPresale.sol\":28361:28400  _totalSupply = _totalSupply.add(amount) */\n      dup2\n      swap1\n      sstore\n      pop\n        /* \"contracts/ERC20/LinkDaoPresale.sol\":28432:28462  _balances[account].add(amount) */\n      tag_244\n        /* \"contracts/ERC20/LinkDaoPresale.sol\":28455:28461  amount */\n      dup3\n        /* \"contracts/ERC20/LinkDaoPresale.sol\":28432:28441  _balances */\n      0x01\n        /* \"contracts/ERC20/LinkDaoPresale.sol\":28432:28450  _balances[account] */\n      0x00\n        /* \"contracts/ERC20/LinkDaoPresale.sol\":28442:28449  account */\n      dup7\n        /* \"contracts/ERC20/LinkDaoPresale.sol\":28432:28450  _balances[account] */\n      0xffffffffffffffffffffffffffffffffffffffff\n      and\n      0xffffffffffffffffffffffffffffffffffffffff\n      and\n      dup2\n      mstore\n      0x20\n      add\n      swap1\n      dup2\n      mstore\n      0x20\n      add\n      0x00\n      keccak256\n      sload\n        /* \"contracts/ERC20/LinkDaoPresale.sol\":28432:28454  _balances[account].add */\n      tag_123\n      swap1\n        /* \"contracts/ERC20/LinkDaoPresale.sol\":28432:28462  _balances[account].add(amount) */\n      swap2\n      swap1\n      0xffffffff\n      and\n      jump\t// in\n    tag_244:\n        /* \"contracts/ERC20/LinkDaoPresale.sol\":28411:28420  _balances */\n      0x01\n        /* \"contracts/ERC20/LinkDaoPresale.sol\":28411:28429  _balances[account] */\n      0x00\n        /* \"contracts/ERC20/LinkDaoPresale.sol\":28421:28428  account */\n      dup6\n        /* \"contracts/ERC20/LinkDaoPresale.sol\":28411:28429  _balances[account] */\n      0xffffffffffffffffffffffffffffffffffffffff\n      and\n      0xffffffffffffffffffffffffffffffffffffffff\n      and\n      dup2\n      mstore\n      0x20\n      add\n      swap1\n      dup2\n      mstore\n      0x20\n      add\n      0x00\n      keccak256\n        /* \"contracts/ERC20/LinkDaoPresale.sol\":28411:28462  _balances[account] = _balances[account].add(amount) */\n      dup2\n      swap1\n      sstore\n      pop\n        /* \"contracts/ERC20/LinkDaoPresale.sol\":28499:28506  account */\n      dup3\n        /* \"contracts/ERC20/LinkDaoPresale.sol\":28478:28515  Transfer(address(0), account, amount) */\n      0xffffffffffffffffffffffffffffffffffffffff\n      and\n        /* \"contracts/ERC20/LinkDaoPresale.sol\":28495:28496  0 */\n      0x00\n        /* \"contracts/ERC20/LinkDaoPresale.sol\":28478:28515  Transfer(address(0), account, amount) */\n      0xffffffffffffffffffffffffffffffffffffffff\n      and\n      0xddf252ad1be2c89b69c2b068fc378daa952ba7f163c4a11628f55a4df523b3ef\n        /* \"contracts/ERC20/LinkDaoPresale.sol\":28508:28514  amount */\n      dup5\n        /* \"contracts/ERC20/LinkDaoPresale.sol\":28478:28515  Transfer(address(0), account, amount) */\n      mload(0x40)\n      dup1\n      dup3\n      dup2\n      mstore\n      0x20\n      add\n      swap2\n      pop\n      pop\n      mload(0x40)\n      dup1\n      swap2\n      sub\n      swap1\n      log3\n        /* \"contracts/ERC20/LinkDaoPresale.sol\":28108:28523  function _mint(address account, uint256 amount) internal returns (bool) {\r... */\n    tag_239:\n      swap3\n      swap2\n      pop\n      pop\n      jump\t// out\n        /* \"contracts/ERC20/LinkDaoPresale.sol\":37477:38542  function _moveDelegates(\r... */\n    tag_156:\n        /* \"contracts/ERC20/LinkDaoPresale.sol\":37617:37623  dstRep */\n      dup2\n        /* \"contracts/ERC20/LinkDaoPresale.sol\":37607:37623  srcRep != dstRep */\n      0xffffffffffffffffffffffffffffffffffffffff\n      and\n        /* \"contracts/ERC20/LinkDaoPresale.sol\":37607:37613  srcRep */\n      dup4\n        /* \"contracts/ERC20/LinkDaoPresale.sol\":37607:37623  srcRep != dstRep */\n      0xffffffffffffffffffffffffffffffffffffffff\n      and\n      eq\n      iszero\n        /* \"contracts/ERC20/LinkDaoPresale.sol\":37607:37637  srcRep != dstRep && amount > 0 */\n      dup1\n      iszero\n      tag_246\n      jumpi\n      pop\n        /* \"contracts/ERC20/LinkDaoPresale.sol\":37636:37637  0 */\n      0x00\n        /* \"contracts/ERC20/LinkDaoPresale.sol\":37627:37633  amount */\n      dup2\n        /* \"contracts/ERC20/LinkDaoPresale.sol\":37627:37637  amount > 0 */\n      gt\n        /* \"contracts/ERC20/LinkDaoPresale.sol\":37607:37637  srcRep != dstRep && amount > 0 */\n    tag_246:\n        /* \"contracts/ERC20/LinkDaoPresale.sol\":37603:38535  if (srcRep != dstRep && amount > 0) {\r... */\n      iszero\n      tag_247\n      jumpi\n        /* \"contracts/ERC20/LinkDaoPresale.sol\":37676:37677  0 */\n      0x00\n        /* \"contracts/ERC20/LinkDaoPresale.sol\":37658:37678  srcRep != address(0) */\n      0xffffffffffffffffffffffffffffffffffffffff\n      and\n        /* \"contracts/ERC20/LinkDaoPresale.sol\":37658:37664  srcRep */\n      dup4\n        /* \"contracts/ERC20/LinkDaoPresale.sol\":37658:37678  srcRep != address(0) */\n      0xffffffffffffffffffffffffffffffffffffffff\n      and\n      eq\n        /* \"contracts/ERC20/LinkDaoPresale.sol\":37654:38081  if (srcRep != address(0)) {\r... */\n      tag_248\n      jumpi\n        /* \"contracts/ERC20/LinkDaoPresale.sol\":37747:37763  uint32 srcRepNum */\n      0x00\n        /* \"contracts/ERC20/LinkDaoPresale.sol\":37766:37780  numCheckpoints */\n      0x09\n        /* \"contracts/ERC20/LinkDaoPresale.sol\":37766:37788  numCheckpoints[srcRep] */\n      0x00\n        /* \"contracts/ERC20/LinkDaoPresale.sol\":37781:37787  srcRep */\n      dup6\n        /* \"contracts/ERC20/LinkDaoPresale.sol\":37766:37788  numCheckpoints[srcRep] */\n      0xffffffffffffffffffffffffffffffffffffffff\n      and\n      0xffffffffffffffffffffffffffffffffffffffff\n      and\n      dup2\n      mstore\n      0x20\n      add\n      swap1\n      dup2\n      mstore\n      0x20\n      add\n      0x00\n      keccak256\n      0x00\n      swap1\n      sload\n      swap1\n      0x0100\n      exp\n      swap1\n      div\n      0xffffffff\n      and\n        /* \"contracts/ERC20/LinkDaoPresale.sol\":37747:37788  uint32 srcRepNum = numCheckpoints[srcRep] */\n      swap1\n      pop\n        /* \"contracts/ERC20/LinkDaoPresale.sol\":37807:37824  uint256 srcRepOld */\n      0x00\n        /* \"contracts/ERC20/LinkDaoPresale.sol\":37839:37840  0 */\n      dup1\n        /* \"contracts/ERC20/LinkDaoPresale.sol\":37827:37836  srcRepNum */\n      dup3\n        /* \"contracts/ERC20/LinkDaoPresale.sol\":37827:37840  srcRepNum > 0 */\n      0xffffffff\n      and\n      gt\n        /* \"contracts/ERC20/LinkDaoPresale.sol\":37827:37929  srcRepNum > 0\r... */\n      tag_249\n      jumpi\n        /* \"contracts/ERC20/LinkDaoPresale.sol\":37928:37929  0 */\n      0x00\n        /* \"contracts/ERC20/LinkDaoPresale.sol\":37827:37929  srcRepNum > 0\r... */\n      jump(tag_250)\n    tag_249:\n        /* \"contracts/ERC20/LinkDaoPresale.sol\":37864:37875  checkpoints */\n      0x08\n        /* \"contracts/ERC20/LinkDaoPresale.sol\":37864:37883  checkpoints[srcRep] */\n      0x00\n        /* \"contracts/ERC20/LinkDaoPresale.sol\":37876:37882  srcRep */\n      dup7\n        /* \"contracts/ERC20/LinkDaoPresale.sol\":37864:37883  checkpoints[srcRep] */\n      0xffffffffffffffffffffffffffffffffffffffff\n      and\n      0xffffffffffffffffffffffffffffffffffffffff\n      and\n      dup2\n      mstore\n      0x20\n      add\n      swap1\n      dup2\n      mstore\n      0x20\n      add\n      0x00\n      keccak256\n        /* \"contracts/ERC20/LinkDaoPresale.sol\":37864:37898  checkpoints[srcRep][srcRepNum - 1] */\n      0x00\n        /* \"contracts/ERC20/LinkDaoPresale.sol\":37896:37897  1 */\n      0x01\n        /* \"contracts/ERC20/LinkDaoPresale.sol\":37884:37893  srcRepNum */\n      dup5\n        /* \"contracts/ERC20/LinkDaoPresale.sol\":37884:37897  srcRepNum - 1 */\n      sub\n        /* \"contracts/ERC20/LinkDaoPresale.sol\":37864:37898  checkpoints[srcRep][srcRepNum - 1] */\n      0xffffffff\n      and\n      0xffffffff\n      and\n      dup2\n      mstore\n      0x20\n      add\n      swap1\n      dup2\n      mstore\n      0x20\n      add\n      0x00\n      keccak256\n        /* \"contracts/ERC20/LinkDaoPresale.sol\":37864:37904  checkpoints[srcRep][srcRepNum - 1].votes */\n      0x01\n      add\n      sload\n        /* \"contracts/ERC20/LinkDaoPresale.sol\":37827:37929  srcRepNum > 0\r... */\n    tag_250:\n        /* \"contracts/ERC20/LinkDaoPresale.sol\":37807:37929  uint256 srcRepOld = srcRepNum > 0\r... */\n      swap1\n      pop\n        /* \"contracts/ERC20/LinkDaoPresale.sol\":37948:37965  uint256 srcRepNew */\n      0x00\n        /* \"contracts/ERC20/LinkDaoPresale.sol\":37968:37989  srcRepOld.sub(amount) */\n      tag_251\n        /* \"contracts/ERC20/LinkDaoPresale.sol\":37982:37988  amount */\n      dup5\n        /* \"contracts/ERC20/LinkDaoPresale.sol\":37968:37977  srcRepOld */\n      dup4\n        /* \"contracts/ERC20/LinkDaoPresale.sol\":37968:37981  srcRepOld.sub */\n      tag_252\n      swap1\n        /* \"contracts/ERC20/LinkDaoPresale.sol\":37968:37989  srcRepOld.sub(amount) */\n      swap2\n      swap1\n      0xffffffff\n      and\n      jump\t// in\n    tag_251:\n        /* \"contracts/ERC20/LinkDaoPresale.sol\":37948:37989  uint256 srcRepNew = srcRepOld.sub(amount) */\n      swap1\n      pop\n        /* \"contracts/ERC20/LinkDaoPresale.sol\":38008:38065  _writeCheckpoint(srcRep, srcRepNum, srcRepOld, srcRepNew) */\n      tag_253\n        /* \"contracts/ERC20/LinkDaoPresale.sol\":38025:38031  srcRep */\n      dup7\n        /* \"contracts/ERC20/LinkDaoPresale.sol\":38033:38042  srcRepNum */\n      dup5\n        /* \"contracts/ERC20/LinkDaoPresale.sol\":38044:38053  srcRepOld */\n      dup5\n        /* \"contracts/ERC20/LinkDaoPresale.sol\":38055:38064  srcRepNew */\n      dup5\n        /* \"contracts/ERC20/LinkDaoPresale.sol\":38008:38024  _writeCheckpoint */\n      tag_254\n        /* \"contracts/ERC20/LinkDaoPresale.sol\":38008:38065  _writeCheckpoint(srcRep, srcRepNum, srcRepOld, srcRepNew) */\n      jump\t// in\n    tag_253:\n        /* \"contracts/ERC20/LinkDaoPresale.sol\":37654:38081  if (srcRep != address(0)) {\r... */\n      pop\n      pop\n      pop\n    tag_248:\n        /* \"contracts/ERC20/LinkDaoPresale.sol\":38119:38120  0 */\n      0x00\n        /* \"contracts/ERC20/LinkDaoPresale.sol\":38101:38121  dstRep != address(0) */\n      0xffffffffffffffffffffffffffffffffffffffff\n      and\n        /* \"contracts/ERC20/LinkDaoPresale.sol\":38101:38107  dstRep */\n      dup3\n        /* \"contracts/ERC20/LinkDaoPresale.sol\":38101:38121  dstRep != address(0) */\n      0xffffffffffffffffffffffffffffffffffffffff\n      and\n      eq\n        /* \"contracts/ERC20/LinkDaoPresale.sol\":38097:38524  if (dstRep != address(0)) {\r... */\n      tag_255\n      jumpi\n        /* \"contracts/ERC20/LinkDaoPresale.sol\":38190:38206  uint32 dstRepNum */\n      0x00\n        /* \"contracts/ERC20/LinkDaoPresale.sol\":38209:38223  numCheckpoints */\n      0x09\n        /* \"contracts/ERC20/LinkDaoPresale.sol\":38209:38231  numCheckpoints[dstRep] */\n      0x00\n        /* \"contracts/ERC20/LinkDaoPresale.sol\":38224:38230  dstRep */\n      dup5\n        /* \"contracts/ERC20/LinkDaoPresale.sol\":38209:38231  numCheckpoints[dstRep] */\n      0xffffffffffffffffffffffffffffffffffffffff\n      and\n      0xffffffffffffffffffffffffffffffffffffffff\n      and\n      dup2\n      mstore\n      0x20\n      add\n      swap1\n      dup2\n      mstore\n      0x20\n      add\n      0x00\n      keccak256\n      0x00\n      swap1\n      sload\n      swap1\n      0x0100\n      exp\n      swap1\n      div\n      0xffffffff\n      and\n        /* \"contracts/ERC20/LinkDaoPresale.sol\":38190:38231  uint32 dstRepNum = numCheckpoints[dstRep] */\n      swap1\n      pop\n        /* \"contracts/ERC20/LinkDaoPresale.sol\":38250:38267  uint256 dstRepOld */\n      0x00\n        /* \"contracts/ERC20/LinkDaoPresale.sol\":38282:38283  0 */\n      dup1\n        /* \"contracts/ERC20/LinkDaoPresale.sol\":38270:38279  dstRepNum */\n      dup3\n        /* \"contracts/ERC20/LinkDaoPresale.sol\":38270:38283  dstRepNum > 0 */\n      0xffffffff\n      and\n      gt\n        /* \"contracts/ERC20/LinkDaoPresale.sol\":38270:38372  dstRepNum > 0\r... */\n      tag_256\n      jumpi\n        /* \"contracts/ERC20/LinkDaoPresale.sol\":38371:38372  0 */\n      0x00\n        /* \"contracts/ERC20/LinkDaoPresale.sol\":38270:38372  dstRepNum > 0\r... */\n      jump(tag_257)\n    tag_256:\n        /* \"contracts/ERC20/LinkDaoPresale.sol\":38307:38318  checkpoints */\n      0x08\n        /* \"contracts/ERC20/LinkDaoPresale.sol\":38307:38326  checkpoints[dstRep] */\n      0x00\n        /* \"contracts/ERC20/LinkDaoPresale.sol\":38319:38325  dstRep */\n      dup6\n        /* \"contracts/ERC20/LinkDaoPresale.sol\":38307:38326  checkpoints[dstRep] */\n      0xffffffffffffffffffffffffffffffffffffffff\n      and\n      0xffffffffffffffffffffffffffffffffffffffff\n      and\n      dup2\n      mstore\n      0x20\n      add\n      swap1\n      dup2\n      mstore\n      0x20\n      add\n      0x00\n      keccak256\n        /* \"contracts/ERC20/LinkDaoPresale.sol\":38307:38341  checkpoints[dstRep][dstRepNum - 1] */\n      0x00\n        /* \"contracts/ERC20/LinkDaoPresale.sol\":38339:38340  1 */\n      0x01\n        /* \"contracts/ERC20/LinkDaoPresale.sol\":38327:38336  dstRepNum */\n      dup5\n        /* \"contracts/ERC20/LinkDaoPresale.sol\":38327:38340  dstRepNum - 1 */\n      sub\n        /* \"contracts/ERC20/LinkDaoPresale.sol\":38307:38341  checkpoints[dstRep][dstRepNum - 1] */\n      0xffffffff\n      and\n      0xffffffff\n      and\n      dup2\n      mstore\n      0x20\n      add\n      swap1\n      dup2\n      mstore\n      0x20\n      add\n      0x00\n      keccak256\n        /* \"contracts/ERC20/LinkDaoPresale.sol\":38307:38347  checkpoints[dstRep][dstRepNum - 1].votes */\n      0x01\n      add\n      sload\n        /* \"contracts/ERC20/LinkDaoPresale.sol\":38270:38372  dstRepNum > 0\r... */\n    tag_257:\n        /* \"contracts/ERC20/LinkDaoPresale.sol\":38250:38372  uint256 dstRepOld = dstRepNum > 0\r... */\n      swap1\n      pop\n        /* \"contracts/ERC20/LinkDaoPresale.sol\":38391:38408  uint256 dstRepNew */\n      0x00\n        /* \"contracts/ERC20/LinkDaoPresale.sol\":38411:38432  dstRepOld.add(amount) */\n      tag_258\n        /* \"contracts/ERC20/LinkDaoPresale.sol\":38425:38431  amount */\n      dup5\n        /* \"contracts/ERC20/LinkDaoPresale.sol\":38411:38420  dstRepOld */\n      dup4\n        /* \"contracts/ERC20/LinkDaoPresale.sol\":38411:38424  dstRepOld.add */\n      tag_123\n      swap1\n        /* \"contracts/ERC20/LinkDaoPresale.sol\":38411:38432  dstRepOld.add(amount) */\n      swap2\n      swap1\n      0xffffffff\n      and\n      jump\t// in\n    tag_258:\n        /* \"contracts/ERC20/LinkDaoPresale.sol\":38391:38432  uint256 dstRepNew = dstRepOld.add(amount) */\n      swap1\n      pop\n        /* \"contracts/ERC20/LinkDaoPresale.sol\":38451:38508  _writeCheckpoint(dstRep, dstRepNum, dstRepOld, dstRepNew) */\n      tag_259\n        /* \"contracts/ERC20/LinkDaoPresale.sol\":38468:38474  dstRep */\n      dup6\n        /* \"contracts/ERC20/LinkDaoPresale.sol\":38476:38485  dstRepNum */\n      dup5\n        /* \"contracts/ERC20/LinkDaoPresale.sol\":38487:38496  dstRepOld */\n      dup5\n        /* \"contracts/ERC20/LinkDaoPresale.sol\":38498:38507  dstRepNew */\n      dup5\n        /* \"contracts/ERC20/LinkDaoPresale.sol\":38451:38467  _writeCheckpoint */\n      tag_254\n        /* \"contracts/ERC20/LinkDaoPresale.sol\":38451:38508  _writeCheckpoint(dstRep, dstRepNum, dstRepOld, dstRepNew) */\n      jump\t// in\n    tag_259:\n        /* \"contracts/ERC20/LinkDaoPresale.sol\":38097:38524  if (dstRep != address(0)) {\r... */\n      pop\n      pop\n      pop\n    tag_255:\n        /* \"contracts/ERC20/LinkDaoPresale.sol\":37603:38535  if (srcRep != dstRep && amount > 0) {\r... */\n    tag_247:\n        /* \"contracts/ERC20/LinkDaoPresale.sol\":37477:38542  function _moveDelegates(\r... */\n      pop\n      pop\n      pop\n      jump\t// out\n        /* \"contracts/ERC20/LinkDaoPresale.sol\":37046:37469  function _delegate(address delegator, address delegatee) internal {\r... */\n    tag_160:\n        /* \"contracts/ERC20/LinkDaoPresale.sol\":37123:37146  address currentDelegate */\n      0x00\n        /* \"contracts/ERC20/LinkDaoPresale.sol\":37149:37159  _delegates */\n      0x07\n        /* \"contracts/ERC20/LinkDaoPresale.sol\":37149:37170  _delegates[delegator] */\n      0x00\n        /* \"contracts/ERC20/LinkDaoPresale.sol\":37160:37169  delegator */\n      dup5\n        /* \"contracts/ERC20/LinkDaoPresale.sol\":37149:37170  _delegates[delegator] */\n      0xffffffffffffffffffffffffffffffffffffffff\n      and\n      0xffffffffffffffffffffffffffffffffffffffff\n      and\n      dup2\n      mstore\n      0x20\n      add\n      swap1\n      dup2\n      mstore\n      0x20\n      add\n      0x00\n      keccak256\n      0x00\n      swap1\n      sload\n      swap1\n      0x0100\n      exp\n      swap1\n      div\n      0xffffffffffffffffffffffffffffffffffffffff\n      and\n        /* \"contracts/ERC20/LinkDaoPresale.sol\":37123:37170  address currentDelegate = _delegates[delegator] */\n      swap1\n      pop\n        /* \"contracts/ERC20/LinkDaoPresale.sol\":37181:37205  uint256 delegatorBalance */\n      0x00\n        /* \"contracts/ERC20/LinkDaoPresale.sol\":37208:37228  balanceOf(delegator) */\n      tag_261\n        /* \"contracts/ERC20/LinkDaoPresale.sol\":37218:37227  delegator */\n      dup5\n        /* \"contracts/ERC20/LinkDaoPresale.sol\":37208:37217  balanceOf */\n      tag_76\n        /* \"contracts/ERC20/LinkDaoPresale.sol\":37208:37228  balanceOf(delegator) */\n      jump\t// in\n    tag_261:\n        /* \"contracts/ERC20/LinkDaoPresale.sol\":37181:37228  uint256 delegatorBalance = balanceOf(delegator) */\n      swap1\n      pop\n        /* \"contracts/ERC20/LinkDaoPresale.sol\":37307:37316  delegatee */\n      dup3\n        /* \"contracts/ERC20/LinkDaoPresale.sol\":37283:37293  _delegates */\n      0x07\n        /* \"contracts/ERC20/LinkDaoPresale.sol\":37283:37304  _delegates[delegator] */\n      0x00\n        /* \"contracts/ERC20/LinkDaoPresale.sol\":37294:37303  delegator */\n      dup7\n        /* \"contracts/ERC20/LinkDaoPresale.sol\":37283:37304  _delegates[delegator] */\n      0xffffffffffffffffffffffffffffffffffffffff\n      and\n      0xffffffffffffffffffffffffffffffffffffffff\n      and\n      dup2\n      mstore\n      0x20\n      add\n      swap1\n      dup2\n      mstore\n      0x20\n      add\n      0x00\n      keccak256\n      0x00\n        /* \"contracts/ERC20/LinkDaoPresale.sol\":37283:37316  _delegates[delegator] = delegatee */\n      0x0100\n      exp\n      dup2\n      sload\n      dup2\n      0xffffffffffffffffffffffffffffffffffffffff\n      mul\n      not\n      and\n      swap1\n      dup4\n      0xffffffffffffffffffffffffffffffffffffffff\n      and\n      mul\n      or\n      swap1\n      sstore\n      pop\n        /* \"contracts/ERC20/LinkDaoPresale.sol\":37378:37387  delegatee */\n      dup3\n        /* \"contracts/ERC20/LinkDaoPresale.sol\":37334:37388  DelegateChanged(delegator, currentDelegate, delegatee) */\n      0xffffffffffffffffffffffffffffffffffffffff\n      and\n        /* \"contracts/ERC20/LinkDaoPresale.sol\":37361:37376  currentDelegate */\n      dup3\n        /* \"contracts/ERC20/LinkDaoPresale.sol\":37334:37388  DelegateChanged(delegator, currentDelegate, delegatee) */\n      0xffffffffffffffffffffffffffffffffffffffff\n      and\n        /* \"contracts/ERC20/LinkDaoPresale.sol\":37350:37359  delegator */\n      dup6\n        /* \"contracts/ERC20/LinkDaoPresale.sol\":37334:37388  DelegateChanged(delegator, currentDelegate, delegatee) */\n      0xffffffffffffffffffffffffffffffffffffffff\n      and\n      0x3134e8a2e6d97e929a7e54011ea5485d7d196dd5f0ba4d4ef95803e8e3fc257f\n      mload(0x40)\n      mload(0x40)\n      dup1\n      swap2\n      sub\n      swap1\n      log4\n        /* \"contracts/ERC20/LinkDaoPresale.sol\":37401:37461  _moveDelegates(currentDelegate, delegatee, delegatorBalance) */\n      tag_262\n        /* \"contracts/ERC20/LinkDaoPresale.sol\":37416:37431  currentDelegate */\n      dup3\n        /* \"contracts/ERC20/LinkDaoPresale.sol\":37433:37442  delegatee */\n      dup5\n        /* \"contracts/ERC20/LinkDaoPresale.sol\":37444:37460  delegatorBalance */\n      dup4\n        /* \"contracts/ERC20/LinkDaoPresale.sol\":37401:37415  _moveDelegates */\n      tag_156\n        /* \"contracts/ERC20/LinkDaoPresale.sol\":37401:37461  _moveDelegates(currentDelegate, delegatee, delegatorBalance) */\n      jump\t// in\n    tag_262:\n        /* \"contracts/ERC20/LinkDaoPresale.sol\":37046:37469  function _delegate(address delegator, address delegatee) internal {\r... */\n      pop\n      pop\n      pop\n      pop\n      jump\t// out\n        /* \"contracts/ERC20/LinkDaoPresale.sol\":39574:39752  function getChainId() internal pure returns (uint256) {\r... */\n    tag_207:\n        /* \"contracts/ERC20/LinkDaoPresale.sol\":39619:39626  uint256 */\n      0x00\n        /* \"contracts/ERC20/LinkDaoPresale.sol\":39639:39654  uint256 chainId */\n      dup1\n        /* \"contracts/ERC20/LinkDaoPresale.sol\":39700:39709  chainid() */\n      chainid\n        /* \"contracts/ERC20/LinkDaoPresale.sol\":39689:39709  chainId := chainid() */\n      swap1\n      pop\n        /* \"contracts/ERC20/LinkDaoPresale.sol\":39737:39744  chainId */\n      dup1\n        /* \"contracts/ERC20/LinkDaoPresale.sol\":39730:39744  return chainId */\n      swap2\n      pop\n      pop\n        /* \"contracts/ERC20/LinkDaoPresale.sol\":39574:39752  function getChainId() internal pure returns (uint256) {\r... */\n      swap1\n      jump\t// out\n        /* \"contracts/ERC20/LinkDaoPresale.sol\":3387:3653  function _transferOwnership(address newOwner) internal {\r... */\n    tag_221:\n        /* \"contracts/ERC20/LinkDaoPresale.sol\":3495:3496  0 */\n      0x00\n        /* \"contracts/ERC20/LinkDaoPresale.sol\":3475:3497  newOwner != address(0) */\n      0xffffffffffffffffffffffffffffffffffffffff\n      and\n        /* \"contracts/ERC20/LinkDaoPresale.sol\":3475:3483  newOwner */\n      dup2\n        /* \"contracts/ERC20/LinkDaoPresale.sol\":3475:3497  newOwner != address(0) */\n      0xffffffffffffffffffffffffffffffffffffffff\n      and\n      eq\n      iszero\n        /* \"contracts/ERC20/LinkDaoPresale.sol\":3453:3563  require(\r... */\n      tag_265\n      jumpi\n      mload(0x40)\n      0x08c379a000000000000000000000000000000000000000000000000000000000\n      dup2\n      mstore\n      0x04\n      add\n      dup1\n      dup1\n      0x20\n      add\n      dup3\n      dup2\n      sub\n      dup3\n      mstore\n      0x26\n      dup2\n      mstore\n      0x20\n      add\n      dup1\n      data_245f15ff17f551913a7a18385165551503906a406f905ac1c2437281a7cd0cfe\n      0x26\n      swap2\n      codecopy\n      0x40\n      add\n      swap2\n      pop\n      pop\n      mload(0x40)\n      dup1\n      swap2\n      sub\n      swap1\n      revert\n    tag_265:\n        /* \"contracts/ERC20/LinkDaoPresale.sol\":3608:3616  newOwner */\n      dup1\n        /* \"contracts/ERC20/LinkDaoPresale.sol\":3579:3617  OwnershipTransferred(_owner, newOwner) */\n      0xffffffffffffffffffffffffffffffffffffffff\n      and\n        /* \"contracts/ERC20/LinkDaoPresale.sol\":3600:3606  _owner */\n      0x00\n      dup1\n      sload\n      swap1\n      0x0100\n      exp\n      swap1\n      div\n      0xffffffffffffffffffffffffffffffffffffffff\n      and\n        /* \"contracts/ERC20/LinkDaoPresale.sol\":3579:3617  OwnershipTransferred(_owner, newOwner) */\n      0xffffffffffffffffffffffffffffffffffffffff\n      and\n      0x8be0079c531659141344cd1fd0a4f28419497f9722a3daafe3b4186f6b6457e0\n      mload(0x40)\n      mload(0x40)\n      dup1\n      swap2\n      sub\n      swap1\n      log3\n        /* \"contracts/ERC20/LinkDaoPresale.sol\":3637:3645  newOwner */\n      dup1\n        /* \"contracts/ERC20/LinkDaoPresale.sol\":3628:3634  _owner */\n      0x00\n      dup1\n        /* \"contracts/ERC20/LinkDaoPresale.sol\":3628:3645  _owner = newOwner */\n      0x0100\n      exp\n      dup2\n      sload\n      dup2\n      0xffffffffffffffffffffffffffffffffffffffff\n      mul\n      not\n      and\n      swap1\n      dup4\n      0xffffffffffffffffffffffffffffffffffffffff\n      and\n      mul\n      or\n      swap1\n      sstore\n      pop\n        /* \"contracts/ERC20/LinkDaoPresale.sol\":3387:3653  function _transferOwnership(address newOwner) internal {\r... */\n      pop\n      jump\t// out\n        /* \"contracts/ERC20/LinkDaoPresale.sol\":8326:8462  function sub(uint256 a, uint256 b) internal pure returns (uint256) {\r... */\n    tag_252:\n        /* \"contracts/ERC20/LinkDaoPresale.sol\":8384:8391  uint256 */\n      0x00\n        /* \"contracts/ERC20/LinkDaoPresale.sol\":8411:8454  sub(a, b, \"SafeMath: subtraction overflow\") */\n      tag_267\n        /* \"contracts/ERC20/LinkDaoPresale.sol\":8415:8416  a */\n      dup4\n        /* \"contracts/ERC20/LinkDaoPresale.sol\":8418:8419  b */\n      dup4\n        /* \"contracts/ERC20/LinkDaoPresale.sol\":8411:8454  sub(a, b, \"SafeMath: subtraction overflow\") */\n      mload(0x40)\n      dup1\n      0x40\n      add\n      0x40\n      mstore\n      dup1\n      0x1e\n      dup2\n      mstore\n      0x20\n      add\n      0x536166654d6174683a207375627472616374696f6e206f766572666c6f770000\n      dup2\n      mstore\n      pop\n        /* \"contracts/ERC20/LinkDaoPresale.sol\":8411:8414  sub */\n      tag_142\n        /* \"contracts/ERC20/LinkDaoPresale.sol\":8411:8454  sub(a, b, \"SafeMath: subtraction overflow\") */\n      jump\t// in\n    tag_267:\n        /* \"contracts/ERC20/LinkDaoPresale.sol\":8404:8454  return sub(a, b, \"SafeMath: subtraction overflow\") */\n      swap1\n      pop\n        /* \"contracts/ERC20/LinkDaoPresale.sol\":8326:8462  function sub(uint256 a, uint256 b) internal pure returns (uint256) {\r... */\n      swap3\n      swap2\n      pop\n      pop\n      jump\t// out\n        /* \"contracts/ERC20/LinkDaoPresale.sol\":38550:39362  function _writeCheckpoint(\r... */\n    tag_254:\n        /* \"contracts/ERC20/LinkDaoPresale.sol\":38715:38733  uint32 blockNumber */\n      0x00\n        /* \"contracts/ERC20/LinkDaoPresale.sol\":38736:38848  safe32(\r... */\n      tag_269\n        /* \"contracts/ERC20/LinkDaoPresale.sol\":38757:38769  block.number */\n      number\n        /* \"contracts/ERC20/LinkDaoPresale.sol\":38736:38848  safe32(\r... */\n      mload(0x40)\n      dup1\n      0x60\n      add\n      0x40\n      mstore\n      dup1\n      0x33\n      dup2\n      mstore\n      0x20\n      add\n      data_c93524b224f0ab0aedb650c64507c5179ea1d4e790dee8935b3799393f69b3b1\n      0x33\n      swap2\n      codecopy\n        /* \"contracts/ERC20/LinkDaoPresale.sol\":38736:38742  safe32 */\n      tag_270\n        /* \"contracts/ERC20/LinkDaoPresale.sol\":38736:38848  safe32(\r... */\n      jump\t// in\n    tag_269:\n        /* \"contracts/ERC20/LinkDaoPresale.sol\":38715:38848  uint32 blockNumber = safe32(\r... */\n      swap1\n      pop\n        /* \"contracts/ERC20/LinkDaoPresale.sol\":38894:38895  0 */\n      0x00\n        /* \"contracts/ERC20/LinkDaoPresale.sol\":38879:38891  nCheckpoints */\n      dup5\n        /* \"contracts/ERC20/LinkDaoPresale.sol\":38879:38895  nCheckpoints > 0 */\n      0xffffffff\n      and\n      gt\n        /* \"contracts/ERC20/LinkDaoPresale.sol\":38879:38977  nCheckpoints > 0 &&\r... */\n      dup1\n      iszero\n      tag_271\n      jumpi\n      pop\n        /* \"contracts/ERC20/LinkDaoPresale.sol\":38966:38977  blockNumber */\n      dup1\n        /* \"contracts/ERC20/LinkDaoPresale.sol\":38912:38977  checkpoints[delegatee][nCheckpoints - 1].fromBlock == blockNumber */\n      0xffffffff\n      and\n        /* \"contracts/ERC20/LinkDaoPresale.sol\":38912:38923  checkpoints */\n      0x08\n        /* \"contracts/ERC20/LinkDaoPresale.sol\":38912:38934  checkpoints[delegatee] */\n      0x00\n        /* \"contracts/ERC20/LinkDaoPresale.sol\":38924:38933  delegatee */\n      dup8\n        /* \"contracts/ERC20/LinkDaoPresale.sol\":38912:38934  checkpoints[delegatee] */\n      0xffffffffffffffffffffffffffffffffffffffff\n      and\n      0xffffffffffffffffffffffffffffffffffffffff\n      and\n      dup2\n      mstore\n      0x20\n      add\n      swap1\n      dup2\n      mstore\n      0x20\n      add\n      0x00\n      keccak256\n        /* \"contracts/ERC20/LinkDaoPresale.sol\":38912:38952  checkpoints[delegatee][nCheckpoints - 1] */\n      0x00\n        /* \"contracts/ERC20/LinkDaoPresale.sol\":38950:38951  1 */\n      0x01\n        /* \"contracts/ERC20/LinkDaoPresale.sol\":38935:38947  nCheckpoints */\n      dup8\n        /* \"contracts/ERC20/LinkDaoPresale.sol\":38935:38951  nCheckpoints - 1 */\n      sub\n        /* \"contracts/ERC20/LinkDaoPresale.sol\":38912:38952  checkpoints[delegatee][nCheckpoints - 1] */\n      0xffffffff\n      and\n      0xffffffff\n      and\n      dup2\n      mstore\n      0x20\n      add\n      swap1\n      dup2\n      mstore\n      0x20\n      add\n      0x00\n      keccak256\n        /* \"contracts/ERC20/LinkDaoPresale.sol\":38912:38962  checkpoints[delegatee][nCheckpoints - 1].fromBlock */\n      0x00\n      add\n      0x00\n      swap1\n      sload\n      swap1\n      0x0100\n      exp\n      swap1\n      div\n      0xffffffff\n      and\n        /* \"contracts/ERC20/LinkDaoPresale.sol\":38912:38977  checkpoints[delegatee][nCheckpoints - 1].fromBlock == blockNumber */\n      0xffffffff\n      and\n      eq\n        /* \"contracts/ERC20/LinkDaoPresale.sol\":38879:38977  nCheckpoints > 0 &&\r... */\n    tag_271:\n        /* \"contracts/ERC20/LinkDaoPresale.sol\":38861:39286  if (\r... */\n      iszero\n      tag_272\n      jumpi\n        /* \"contracts/ERC20/LinkDaoPresale.sol\":39053:39061  newVotes */\n      dup2\n        /* \"contracts/ERC20/LinkDaoPresale.sol\":39004:39015  checkpoints */\n      0x08\n        /* \"contracts/ERC20/LinkDaoPresale.sol\":39004:39026  checkpoints[delegatee] */\n      0x00\n        /* \"contracts/ERC20/LinkDaoPresale.sol\":39016:39025  delegatee */\n      dup8\n        /* \"contracts/ERC20/LinkDaoPresale.sol\":39004:39026  checkpoints[delegatee] */\n      0xffffffffffffffffffffffffffffffffffffffff\n      and\n      0xffffffffffffffffffffffffffffffffffffffff\n      and\n      dup2\n      mstore\n      0x20\n      add\n      swap1\n      dup2\n      mstore\n      0x20\n      add\n      0x00\n      keccak256\n        /* \"contracts/ERC20/LinkDaoPresale.sol\":39004:39044  checkpoints[delegatee][nCheckpoints - 1] */\n      0x00\n        /* \"contracts/ERC20/LinkDaoPresale.sol\":39042:39043  1 */\n      0x01\n        /* \"contracts/ERC20/LinkDaoPresale.sol\":39027:39039  nCheckpoints */\n      dup8\n        /* \"contracts/ERC20/LinkDaoPresale.sol\":39027:39043  nCheckpoints - 1 */\n      sub\n        /* \"contracts/ERC20/LinkDaoPresale.sol\":39004:39044  checkpoints[delegatee][nCheckpoints - 1] */\n      0xffffffff\n      and\n      0xffffffff\n      and\n      dup2\n      mstore\n      0x20\n      add\n      swap1\n      dup2\n      mstore\n      0x20\n      add\n      0x00\n      keccak256\n        /* \"contracts/ERC20/LinkDaoPresale.sol\":39004:39050  checkpoints[delegatee][nCheckpoints - 1].votes */\n      0x01\n      add\n        /* \"contracts/ERC20/LinkDaoPresale.sol\":39004:39061  checkpoints[delegatee][nCheckpoints - 1].votes = newVotes */\n      dup2\n      swap1\n      sstore\n      pop\n        /* \"contracts/ERC20/LinkDaoPresale.sol\":38861:39286  if (\r... */\n      jump(tag_273)\n    tag_272:\n        /* \"contracts/ERC20/LinkDaoPresale.sol\":39133:39215  Checkpoint(\r... */\n      mload(0x40)\n      dup1\n      0x40\n      add\n      0x40\n      mstore\n      dup1\n        /* \"contracts/ERC20/LinkDaoPresale.sol\":39162:39173  blockNumber */\n      dup3\n        /* \"contracts/ERC20/LinkDaoPresale.sol\":39133:39215  Checkpoint(\r... */\n      0xffffffff\n      and\n      dup2\n      mstore\n      0x20\n      add\n        /* \"contracts/ERC20/LinkDaoPresale.sol\":39192:39200  newVotes */\n      dup4\n        /* \"contracts/ERC20/LinkDaoPresale.sol\":39133:39215  Checkpoint(\r... */\n      dup2\n      mstore\n      pop\n        /* \"contracts/ERC20/LinkDaoPresale.sol\":39094:39105  checkpoints */\n      0x08\n        /* \"contracts/ERC20/LinkDaoPresale.sol\":39094:39116  checkpoints[delegatee] */\n      0x00\n        /* \"contracts/ERC20/LinkDaoPresale.sol\":39106:39115  delegatee */\n      dup8\n        /* \"contracts/ERC20/LinkDaoPresale.sol\":39094:39116  checkpoints[delegatee] */\n      0xffffffffffffffffffffffffffffffffffffffff\n      and\n      0xffffffffffffffffffffffffffffffffffffffff\n      and\n      dup2\n      mstore\n      0x20\n      add\n      swap1\n      dup2\n      mstore\n      0x20\n      add\n      0x00\n      keccak256\n        /* \"contracts/ERC20/LinkDaoPresale.sol\":39094:39130  checkpoints[delegatee][nCheckpoints] */\n      0x00\n        /* \"contracts/ERC20/LinkDaoPresale.sol\":39117:39129  nCheckpoints */\n      dup7\n        /* \"contracts/ERC20/LinkDaoPresale.sol\":39094:39130  checkpoints[delegatee][nCheckpoints] */\n      0xffffffff\n      and\n      0xffffffff\n      and\n      dup2\n      mstore\n      0x20\n      add\n      swap1\n      dup2\n      mstore\n      0x20\n      add\n      0x00\n      keccak256\n        /* \"contracts/ERC20/LinkDaoPresale.sol\":39094:39215  checkpoints[delegatee][nCheckpoints] = Checkpoint(\r... */\n      0x00\n      dup3\n      add\n      mload\n      dup2\n      0x00\n      add\n      exp(0x0100, 0x00)\n      dup2\n      sload\n      dup2\n      0xffffffff\n      mul\n      not\n      and\n      swap1\n      dup4\n      0xffffffff\n      and\n      mul\n      or\n      swap1\n      sstore\n      pop\n      0x20\n      dup3\n      add\n      mload\n      dup2\n      0x01\n      add\n      sstore\n      swap1\n      pop\n      pop\n        /* \"contracts/ERC20/LinkDaoPresale.sol\":39273:39274  1 */\n      0x01\n        /* \"contracts/ERC20/LinkDaoPresale.sol\":39258:39270  nCheckpoints */\n      dup5\n        /* \"contracts/ERC20/LinkDaoPresale.sol\":39258:39274  nCheckpoints + 1 */\n      add\n        /* \"contracts/ERC20/LinkDaoPresale.sol\":39230:39244  numCheckpoints */\n      0x09\n        /* \"contracts/ERC20/LinkDaoPresale.sol\":39230:39255  numCheckpoints[delegatee] */\n      0x00\n        /* \"contracts/ERC20/LinkDaoPresale.sol\":39245:39254  delegatee */\n      dup8\n        /* \"contracts/ERC20/LinkDaoPresale.sol\":39230:39255  numCheckpoints[delegatee] */\n      0xffffffffffffffffffffffffffffffffffffffff\n      and\n      0xffffffffffffffffffffffffffffffffffffffff\n      and\n      dup2\n      mstore\n      0x20\n      add\n      swap1\n      dup2\n      mstore\n      0x20\n      add\n      0x00\n      keccak256\n      0x00\n        /* \"contracts/ERC20/LinkDaoPresale.sol\":39230:39274  numCheckpoints[delegatee] = nCheckpoints + 1 */\n      0x0100\n      exp\n      dup2\n      sload\n      dup2\n      0xffffffff\n      mul\n      not\n      and\n      swap1\n      dup4\n      0xffffffff\n      and\n      mul\n      or\n      swap1\n      sstore\n      pop\n        /* \"contracts/ERC20/LinkDaoPresale.sol\":38861:39286  if (\r... */\n    tag_273:\n        /* \"contracts/ERC20/LinkDaoPresale.sol\":39324:39333  delegatee */\n      dup5\n        /* \"contracts/ERC20/LinkDaoPresale.sol\":39303:39354  DelegateVotesChanged(delegatee, oldVotes, newVotes) */\n      0xffffffffffffffffffffffffffffffffffffffff\n      and\n      0xdec2bacdd2f05b59de34da9b523dff8be42e5e38e818c82fdb0bae774387a724\n        /* \"contracts/ERC20/LinkDaoPresale.sol\":39335:39343  oldVotes */\n      dup5\n        /* \"contracts/ERC20/LinkDaoPresale.sol\":39345:39353  newVotes */\n      dup5\n        /* \"contracts/ERC20/LinkDaoPresale.sol\":39303:39354  DelegateVotesChanged(delegatee, oldVotes, newVotes) */\n      mload(0x40)\n      dup1\n      dup4\n      dup2\n      mstore\n      0x20\n      add\n      dup3\n      dup2\n      mstore\n      0x20\n      add\n      swap3\n      pop\n      pop\n      pop\n      mload(0x40)\n      dup1\n      swap2\n      sub\n      swap1\n      log2\n        /* \"contracts/ERC20/LinkDaoPresale.sol\":38550:39362  function _writeCheckpoint(\r... */\n      pop\n      pop\n      pop\n      pop\n      pop\n      jump\t// out\n        /* \"contracts/ERC20/LinkDaoPresale.sol\":39370:39566  function safe32(uint256 n, string memory errorMessage)\r... */\n    tag_270:\n        /* \"contracts/ERC20/LinkDaoPresale.sol\":39475:39481  uint32 */\n      0x00\n        /* \"contracts/ERC20/LinkDaoPresale.sol\":39511:39516  2**32 */\n      0x0100000000\n        /* \"contracts/ERC20/LinkDaoPresale.sol\":39507:39508  n */\n      dup4\n        /* \"contracts/ERC20/LinkDaoPresale.sol\":39507:39516  n < 2**32 */\n      lt\n        /* \"contracts/ERC20/LinkDaoPresale.sol\":39518:39530  errorMessage */\n      dup3\n        /* \"contracts/ERC20/LinkDaoPresale.sol\":39499:39531  require(n < 2**32, errorMessage) */\n      swap1\n      tag_275\n      jumpi\n      mload(0x40)\n      0x08c379a000000000000000000000000000000000000000000000000000000000\n      dup2\n      mstore\n      0x04\n      add\n      dup1\n      dup1\n      0x20\n      add\n      dup3\n      dup2\n      sub\n      dup3\n      mstore\n      dup4\n      dup2\n      dup2\n      mload\n      dup2\n      mstore\n      0x20\n      add\n      swap2\n      pop\n      dup1\n      mload\n      swap1\n      0x20\n      add\n      swap1\n      dup1\n      dup4\n      dup4\n      0x00\n    tag_276:\n      dup4\n      dup2\n      lt\n      iszero\n      tag_278\n      jumpi\n      dup1\n      dup3\n      add\n      mload\n      dup2\n      dup5\n      add\n      mstore\n      0x20\n      dup2\n      add\n      swap1\n      pop\n      jump(tag_276)\n    tag_278:\n      pop\n      pop\n      pop\n      pop\n      swap1\n      pop\n      swap1\n      dup2\n      add\n      swap1\n      0x1f\n      and\n      dup1\n      iszero\n      tag_279\n      jumpi\n      dup1\n      dup3\n      sub\n      dup1\n      mload\n      0x01\n      dup4\n      0x20\n      sub\n      0x0100\n      exp\n      sub\n      not\n      and\n      dup2\n      mstore\n      0x20\n      add\n      swap2\n      pop\n    tag_279:\n      pop\n      swap3\n      pop\n      pop\n      pop\n      mload(0x40)\n      dup1\n      swap2\n      sub\n      swap1\n      revert\n    tag_275:\n      pop\n        /* \"contracts/ERC20/LinkDaoPresale.sol\":39556:39557  n */\n      dup3\n        /* \"contracts/ERC20/LinkDaoPresale.sol\":39542:39558  return uint32(n) */\n      swap1\n      pop\n        /* \"contracts/ERC20/LinkDaoPresale.sol\":39370:39566  function safe32(uint256 n, string memory errorMessage)\r... */\n      swap3\n      swap2\n      pop\n      pop\n      jump\t// out\n    tag_175:\n      mload(0x40)\n      dup1\n      0x40\n      add\n      0x40\n      mstore\n      dup1\n      and(0xffffffff, 0x00)\n      dup2\n      mstore\n      0x20\n      add\n      0x00\n      dup2\n      mstore\n      pop\n      swap1\n      jump\t// out\n    stop\n    data_0d26cf302d50b28de74be656b11d67092b32131e5712d1bcf08c4e976dacda57 42455032303a207472616e736665722066726f6d20746865207a65726f2061646472657373\n    data_1441cfbef485de93bedecc35b3d10fa2992db382c4c9c583a6e423a140abe4a4 42455032303a20617070726f76652066726f6d20746865207a65726f2061646472657373\n    data_245f15ff17f551913a7a18385165551503906a406f905ac1c2437281a7cd0cfe 4f776e61626c653a206e6577206f776e657220697320746865207a65726f2061646472657373\n    data_4f3506f4ba71c79c3cbd442a3afeb30e9b27af2d84e116a4385b34e267d2287e 42455032303a207472616e7366657220616d6f756e74206578636565647320616c6c6f77616e6365\n    data_81059427b8f63564074807495b4c8e967e2fdd4ccf6e51507624801253f7a792 4c4b443a3a64656c656761746542795369673a20696e76616c6964206e6f6e6365\n    data_91729f24e3de9b08ef1a027d714e0ea4443ff0d20feded96130f3eac77262d16 4c4b443a3a6765745072696f72566f7465733a206e6f74207965742064657465726d696e6564\n    data_9b22412eb6f83238358775eee00c41dc066fb13c06bb4138a84bc254e849185a 4c4b443a3a64656c656761746542795369673a207369676e61747572652065787069726564\n    data_a91efd7a65ef5b4ae4d6568d674798b78a5a89184dd296c100513251c22d3e73 42455032303a207472616e7366657220616d6f756e7420657863656564732062616c616e6365\n    data_ade9efcb59e42e439ffe61509b352b1af56d64ccb68d80b039b7b69578f371d2 42455032303a207472616e7366657220746f20746865207a65726f2061646472657373\n    data_b7060b3538dcd3ddc8a941c91636a8115a1aa46914747fd9809d543bbb46cd22 42455032303a2064656372656173656420616c6c6f77616e63652062656c6f77207a65726f\n    data_c93524b224f0ab0aedb650c64507c5179ea1d4e790dee8935b3799393f69b3b1 4c4b443a3a5f7772697465436865636b706f696e743a20626c6f636b206e756d62657220657863656564732033322062697473\n    data_e7130dd79b7e74c8b6dc57312630e5bf7caa78185197c7fadeb232b2ec02b57a 4c4b443a3a64656c656761746542795369673a20696e76616c6964207369676e6174757265\n    data_f10e7571e18b354270dee950932fb6a745efc79414b2b2556185a4ed6a1af0d5 42455032303a20617070726f766520746f20746865207a65726f2061646472657373\n\n    auxdata: 0xa2646970667358221220b148c0c288ba50d0cd26732ce95cafeb580c1838b2af19837d7babda97ed5ee064736f6c634300060c0033\n}\n",
				"bytecode": {
					"linkReferences": {},
					"object": "60806040523480156200001157600080fd5b506040518060400160405280600781526020017f4c696e6b44616f000000000000000000000000000000000000000000000000008152506040518060400160405280600381526020017f4c4b440000000000000000000000000000000000000000000000000000000000815250600062000090620001a260201b60201c565b9050806000806101000a81548173ffffffffffffffffffffffffffffffffffffffff021916908373ffffffffffffffffffffffffffffffffffffffff1602179055508073ffffffffffffffffffffffffffffffffffffffff16600073ffffffffffffffffffffffffffffffffffffffff167f8be0079c531659141344cd1fd0a4f28419497f9722a3daafe3b4186f6b6457e060405160405180910390a3508160049080519060200190620001469291906200043c565b5080600590805190602001906200015f9291906200043c565b506012600660006101000a81548160ff021916908360ff16021790555062000199336a084595161401484a000000620001aa60201b60201c565b505050620004e2565b600033905090565b60008073ffffffffffffffffffffffffffffffffffffffff168373ffffffffffffffffffffffffffffffffffffffff1614156200024f576040517f08c379a000000000000000000000000000000000000000000000000000000000815260040180806020018281038252601f8152602001807f42455032303a206d696e7420746f20746865207a65726f20616464726573730081525060200191505060405180910390fd5b6a084595161401484a0000006200027760035484620003b360201b62001dab1790919060201c565b1115620002885760009050620003ad565b620002a482600354620003b360201b62001dab1790919060201c565b6003819055506200030382600160008673ffffffffffffffffffffffffffffffffffffffff1673ffffffffffffffffffffffffffffffffffffffff16815260200190815260200160002054620003b360201b62001dab1790919060201c565b600160008573ffffffffffffffffffffffffffffffffffffffff1673ffffffffffffffffffffffffffffffffffffffff168152602001908152602001600020819055508273ffffffffffffffffffffffffffffffffffffffff16600073ffffffffffffffffffffffffffffffffffffffff167fddf252ad1be2c89b69c2b068fc378daa952ba7f163c4a11628f55a4df523b3ef846040518082815260200191505060405180910390a35b92915050565b60008082840190508381101562000432576040517f08c379a000000000000000000000000000000000000000000000000000000000815260040180806020018281038252601b8152602001807f536166654d6174683a206164646974696f6e206f766572666c6f77000000000081525060200191505060405180910390fd5b8091505092915050565b828054600181600116156101000203166002900490600052602060002090601f016020900481019282601f106200047f57805160ff1916838001178555620004b0565b82800160010185558215620004b0579182015b82811115620004af57825182559160200191906001019062000492565b5b509050620004bf9190620004c3565b5090565b5b80821115620004de576000816000905550600101620004c4565b5090565b6130d580620004f26000396000f3fe608060405234801561001057600080fd5b50600436106101cf5760003560e01c8063782d6fe111610104578063a9059cbb116100a2578063dd62ed3e11610071578063dd62ed3e1461097e578063e7a324dc146109f6578063f1127ed814610a14578063f2fde38b14610a89576101cf565b8063a9059cbb1461082b578063b4b5ea571461088f578063c3cda520146108e7578063d5abeb0114610960576101cf565b80638da5cb5b116100de5780638da5cb5b146106cc57806395d89b4114610700578063a0712d6814610783578063a457c2d7146107c7576101cf565b8063782d6fe1146105de5780637ecebe0014610640578063893d20e814610698576101cf565b806339509351116101715780635c19a95c1161014b5780635c19a95c146104da5780636fcfff451461051e57806370a082311461057c578063715018a6146105d4576101cf565b806339509351146103ba57806340c10f191461041e578063587cde1e1461046c576101cf565b806318160ddd116101ad57806318160ddd146102d957806320606b70146102f757806323b872dd14610315578063313ce56714610399576101cf565b806306fdde03146101d4578063095ea7b3146102575780630c16ea83146102bb575b600080fd5b6101dc610acd565b6040518080602001828103825283818151815260200191508051906020019080838360005b8381101561021c578082015181840152602081019050610201565b50505050905090810190601f1680156102495780820380516001836020036101000a031916815260200191505b509250505060405180910390f35b6102a36004803603604081101561026d57600080fd5b81019080803573ffffffffffffffffffffffffffffffffffffffff16906020019092919080359060200190929190505050610b6f565b60405180821515815260200191505060405180910390f35b6102c3610b8d565b6040518082815260200191505060405180910390f35b6102e1610ba0565b6040518082815260200191505060405180910390f35b6102ff610baa565b6040518082815260200191505060405180910390f35b6103816004803603606081101561032b57600080fd5b81019080803573ffffffffffffffffffffffffffffffffffffffff169060200190929190803573ffffffffffffffffffffffffffffffffffffffff16906020019092919080359060200190929190505050610bce565b60405180821515815260200191505060405180910390f35b6103a1610ca7565b604051808260ff16815260200191505060405180910390f35b610406600480360360408110156103d057600080fd5b81019080803573ffffffffffffffffffffffffffffffffffffffff16906020019092919080359060200190929190505050610cbe565b60405180821515815260200191505060405180910390f35b61046a6004803603604081101561043457600080fd5b81019080803573ffffffffffffffffffffffffffffffffffffffff16906020019092919080359060200190929190505050610d71565b005b6104ae6004803603602081101561048257600080fd5b81019080803573ffffffffffffffffffffffffffffffffffffffff169060200190929190505050610eb3565b604051808273ffffffffffffffffffffffffffffffffffffffff16815260200191505060405180910390f35b61051c600480360360208110156104f057600080fd5b81019080803573ffffffffffffffffffffffffffffffffffffffff169060200190929190505050610f1c565b005b6105606004803603602081101561053457600080fd5b81019080803573ffffffffffffffffffffffffffffffffffffffff169060200190929190505050610f29565b604051808263ffffffff16815260200191505060405180910390f35b6105be6004803603602081101561059257600080fd5b81019080803573ffffffffffffffffffffffffffffffffffffffff169060200190929190505050610f4c565b6040518082815260200191505060405180910390f35b6105dc610f95565b005b61062a600480360360408110156105f457600080fd5b81019080803573ffffffffffffffffffffffffffffffffffffffff1690602001909291908035906020019092919050505061111b565b6040518082815260200191505060405180910390f35b6106826004803603602081101561065657600080fd5b81019080803573ffffffffffffffffffffffffffffffffffffffff1690602001909291905050506114dc565b6040518082815260200191505060405180910390f35b6106a06114f4565b604051808273ffffffffffffffffffffffffffffffffffffffff16815260200191505060405180910390f35b6106d4611503565b604051808273ffffffffffffffffffffffffffffffffffffffff16815260200191505060405180910390f35b61070861152c565b6040518080602001828103825283818151815260200191508051906020019080838360005b8381101561074857808201518184015260208101905061072d565b50505050905090810190601f1680156107755780820380516001836020036101000a031916815260200191505b509250505060405180910390f35b6107af6004803603602081101561079957600080fd5b81019080803590602001909291905050506115ce565b60405180821515815260200191505060405180910390f35b610813600480360360408110156107dd57600080fd5b81019080803573ffffffffffffffffffffffffffffffffffffffff169060200190929190803590602001909291905050506116b3565b60405180821515815260200191505060405180910390f35b6108776004803603604081101561084157600080fd5b81019080803573ffffffffffffffffffffffffffffffffffffffff16906020019092919080359060200190929190505050611780565b60405180821515815260200191505060405180910390f35b6108d1600480360360208110156108a557600080fd5b81019080803573ffffffffffffffffffffffffffffffffffffffff16906020019092919050505061179e565b6040518082815260200191505060405180910390f35b61095e600480360360c08110156108fd57600080fd5b81019080803573ffffffffffffffffffffffffffffffffffffffff1690602001909291908035906020019092919080359060200190929190803560ff1690602001909291908035906020019092919080359060200190929190505050611874565b005b610968611bd8565b6040518082815260200191505060405180910390f35b6109e06004803603604081101561099457600080fd5b81019080803573ffffffffffffffffffffffffffffffffffffffff169060200190929190803573ffffffffffffffffffffffffffffffffffffffff169060200190929190505050611beb565b6040518082815260200191505060405180910390f35b6109fe611c72565b6040518082815260200191505060405180910390f35b610a6660048036036040811015610a2a57600080fd5b81019080803573ffffffffffffffffffffffffffffffffffffffff169060200190929190803563ffffffff169060200190929190505050611c96565b604051808363ffffffff1681526020018281526020019250505060405180910390f35b610acb60048036036020811015610a9f57600080fd5b81019080803573ffffffffffffffffffffffffffffffffffffffff169060200190929190505050611cd7565b005b606060048054600181600116156101000203166002900480601f016020809104026020016040519081016040528092919081815260200182805460018160011615610100020316600290048015610b655780601f10610b3a57610100808354040283529160200191610b65565b820191906000526020600020905b815481529060010190602001808311610b4857829003601f168201915b5050505050905090565b6000610b83610b7c611e33565b8484611e3b565b6001905092915050565b60006a084595161401484a000000905090565b6000600354905090565b7f8cad95687ba82c2ce50e74f7b754645e5117c3a5bec8151c0726d5857980a86681565b6000610bdb848484612032565b610c9c84610be7611e33565b610c9785604051806060016040528060288152602001612f2460289139600260008b73ffffffffffffffffffffffffffffffffffffffff1673ffffffffffffffffffffffffffffffffffffffff1681526020019081526020016000206000610c4d611e33565b73ffffffffffffffffffffffffffffffffffffffff1673ffffffffffffffffffffffffffffffffffffffff168152602001908152602001600020546122ec9092919063ffffffff16565b611e3b565b600190509392505050565b6000600660009054906101000a900460ff16905090565b6000610d67610ccb611e33565b84610d628560026000610cdc611e33565b73ffffffffffffffffffffffffffffffffffffffff1673ffffffffffffffffffffffffffffffffffffffff16815260200190815260200160002060008973ffffffffffffffffffffffffffffffffffffffff1673ffffffffffffffffffffffffffffffffffffffff16815260200190815260200160002054611dab90919063ffffffff16565b611e3b565b6001905092915050565b610d79611e33565b73ffffffffffffffffffffffffffffffffffffffff1660008054906101000a900473ffffffffffffffffffffffffffffffffffffffff1673ffffffffffffffffffffffffffffffffffffffff1614610e39576040517f08c379a00000000000000000000000000000000000000000000000000000000081526004018080602001828103825260208152602001807f4f776e61626c653a2063616c6c6572206973206e6f7420746865206f776e657281525060200191505060405180910390fd5b610e4382826123ac565b50610eaf6000600760008573ffffffffffffffffffffffffffffffffffffffff1673ffffffffffffffffffffffffffffffffffffffff16815260200190815260200160002060009054906101000a900473ffffffffffffffffffffffffffffffffffffffff168361259d565b5050565b6000600760008373ffffffffffffffffffffffffffffffffffffffff1673ffffffffffffffffffffffffffffffffffffffff16815260200190815260200160002060009054906101000a900473ffffffffffffffffffffffffffffffffffffffff169050919050565b610f26338261283a565b50565b60096020528060005260406000206000915054906101000a900463ffffffff1681565b6000600160008373ffffffffffffffffffffffffffffffffffffffff1673ffffffffffffffffffffffffffffffffffffffff168152602001908152602001600020549050919050565b610f9d611e33565b73ffffffffffffffffffffffffffffffffffffffff1660008054906101000a900473ffffffffffffffffffffffffffffffffffffffff1673ffffffffffffffffffffffffffffffffffffffff161461105d576040517f08c379a00000000000000000000000000000000000000000000000000000000081526004018080602001828103825260208152602001807f4f776e61626c653a2063616c6c6572206973206e6f7420746865206f776e657281525060200191505060405180910390fd5b600073ffffffffffffffffffffffffffffffffffffffff1660008054906101000a900473ffffffffffffffffffffffffffffffffffffffff1673ffffffffffffffffffffffffffffffffffffffff167f8be0079c531659141344cd1fd0a4f28419497f9722a3daafe3b4186f6b6457e060405160405180910390a360008060006101000a81548173ffffffffffffffffffffffffffffffffffffffff021916908373ffffffffffffffffffffffffffffffffffffffff160217905550565b6000438210611175576040517f08c379a0000000000000000000000000000000000000000000000000000000008152600401808060200182810382526026815260200180612f6d6026913960400191505060405180910390fd5b6000600960008573ffffffffffffffffffffffffffffffffffffffff1673ffffffffffffffffffffffffffffffffffffffff16815260200190815260200160002060009054906101000a900463ffffffff16905060008163ffffffff1614156111e25760009150506114d6565b82600860008673ffffffffffffffffffffffffffffffffffffffff1673ffffffffffffffffffffffffffffffffffffffff16815260200190815260200160002060006001840363ffffffff1663ffffffff16815260200190815260200160002060000160009054906101000a900463ffffffff1663ffffffff16116112cc57600860008573ffffffffffffffffffffffffffffffffffffffff1673ffffffffffffffffffffffffffffffffffffffff16815260200190815260200160002060006001830363ffffffff1663ffffffff168152602001908152602001600020600101549150506114d6565b82600860008673ffffffffffffffffffffffffffffffffffffffff1673ffffffffffffffffffffffffffffffffffffffff16815260200190815260200160002060008063ffffffff16815260200190815260200160002060000160009054906101000a900463ffffffff1663ffffffff16111561134d5760009150506114d6565b6000806001830390505b8163ffffffff168163ffffffff161115611470576000600283830363ffffffff168161137f57fe5b048203905061138c612e94565b600860008973ffffffffffffffffffffffffffffffffffffffff1673ffffffffffffffffffffffffffffffffffffffff16815260200190815260200160002060008363ffffffff1663ffffffff1681526020019081526020016000206040518060400160405290816000820160009054906101000a900463ffffffff1663ffffffff1663ffffffff168152602001600182015481525050905086816000015163ffffffff161415611448578060200151955050505050506114d6565b86816000015163ffffffff16101561146257819350611469565b6001820392505b5050611357565b600860008773ffffffffffffffffffffffffffffffffffffffff1673ffffffffffffffffffffffffffffffffffffffff16815260200190815260200160002060008363ffffffff1663ffffffff1681526020019081526020016000206001015493505050505b92915050565b600a6020528060005260406000206000915090505481565b60006114fe611503565b905090565b60008060009054906101000a900473ffffffffffffffffffffffffffffffffffffffff16905090565b606060058054600181600116156101000203166002900480601f0160208091040260200160405190810160405280929190818152602001828054600181600116156101000203166002900480156115c45780601f10611599576101008083540402835291602001916115c4565b820191906000526020600020905b8154815290600101906020018083116115a757829003601f168201915b5050505050905090565b60006115d8611e33565b73ffffffffffffffffffffffffffffffffffffffff1660008054906101000a900473ffffffffffffffffffffffffffffffffffffffff1673ffffffffffffffffffffffffffffffffffffffff1614611698576040517f08c379a00000000000000000000000000000000000000000000000000000000081526004018080602001828103825260208152602001807f4f776e61626c653a2063616c6c6572206973206e6f7420746865206f776e657281525060200191505060405180910390fd5b6116a96116a3611e33565b836123ac565b5060019050919050565b60006117766116c0611e33565b846117718560405180606001604052806025815260200161300160259139600260006116ea611e33565b73ffffffffffffffffffffffffffffffffffffffff1673ffffffffffffffffffffffffffffffffffffffff16815260200190815260200160002060008a73ffffffffffffffffffffffffffffffffffffffff1673ffffffffffffffffffffffffffffffffffffffff168152602001908152602001600020546122ec9092919063ffffffff16565b611e3b565b6001905092915050565b600061179461178d611e33565b8484612032565b6001905092915050565b600080600960008473ffffffffffffffffffffffffffffffffffffffff1673ffffffffffffffffffffffffffffffffffffffff16815260200190815260200160002060009054906101000a900463ffffffff16905060008163ffffffff161161180857600061186c565b600860008473ffffffffffffffffffffffffffffffffffffffff1673ffffffffffffffffffffffffffffffffffffffff16815260200190815260200160002060006001830363ffffffff1663ffffffff168152602001908152602001600020600101545b915050919050565b60007f8cad95687ba82c2ce50e74f7b754645e5117c3a5bec8151c0726d5857980a86661189f610acd565b805190602001206118ae6129ab565b30604051602001808581526020018481526020018381526020018273ffffffffffffffffffffffffffffffffffffffff16815260200194505050505060405160208183030381529060405280519060200120905060007fe48329057bfd03d55e49b547132e39cffd9c1820ad7b9d4c5307691425d15adf888888604051602001808581526020018473ffffffffffffffffffffffffffffffffffffffff1681526020018381526020018281526020019450505050506040516020818303038152906040528051906020012090506000828260405160200180807f190100000000000000000000000000000000000000000000000000000000000081525060020183815260200182815260200192505050604051602081830303815290604052805190602001209050600060018288888860405160008152602001604052604051808581526020018460ff1681526020018381526020018281526020019450505050506020604051602081039080840390855afa158015611a32573d6000803e3d6000fd5b505050602060405103519050600073ffffffffffffffffffffffffffffffffffffffff168173ffffffffffffffffffffffffffffffffffffffff161415611ac4576040517f08c379a00000000000000000000000000000000000000000000000000000000081526004018080602001828103825260258152602001806130596025913960400191505060405180910390fd5b600a60008273ffffffffffffffffffffffffffffffffffffffff1673ffffffffffffffffffffffffffffffffffffffff1681526020019081526020016000206000815480929190600101919050558914611b69576040517f08c379a0000000000000000000000000000000000000000000000000000000008152600401808060200182810382526021815260200180612f4c6021913960400191505060405180910390fd5b87421115611bc2576040517f08c379a0000000000000000000000000000000000000000000000000000000008152600401808060200182810382526025815260200180612f936025913960400191505060405180910390fd5b611bcc818b61283a565b50505050505050505050565b60006a084595161401484a000000905090565b6000600260008473ffffffffffffffffffffffffffffffffffffffff1673ffffffffffffffffffffffffffffffffffffffff16815260200190815260200160002060008373ffffffffffffffffffffffffffffffffffffffff1673ffffffffffffffffffffffffffffffffffffffff16815260200190815260200160002054905092915050565b7fe48329057bfd03d55e49b547132e39cffd9c1820ad7b9d4c5307691425d15adf81565b6008602052816000526040600020602052806000526040600020600091509150508060000160009054906101000a900463ffffffff16908060010154905082565b611cdf611e33565b73ffffffffffffffffffffffffffffffffffffffff1660008054906101000a900473ffffffffffffffffffffffffffffffffffffffff1673ffffffffffffffffffffffffffffffffffffffff1614611d9f576040517f08c379a00000000000000000000000000000000000000000000000000000000081526004018080602001828103825260208152602001807f4f776e61626c653a2063616c6c6572206973206e6f7420746865206f776e657281525060200191505060405180910390fd5b611da8816129b8565b50565b600080828401905083811015611e29576040517f08c379a000000000000000000000000000000000000000000000000000000000815260040180806020018281038252601b8152602001807f536166654d6174683a206164646974696f6e206f766572666c6f77000000000081525060200191505060405180910390fd5b8091505092915050565b600033905090565b600073ffffffffffffffffffffffffffffffffffffffff168373ffffffffffffffffffffffffffffffffffffffff161415611ec1576040517f08c379a0000000000000000000000000000000000000000000000000000000008152600401808060200182810382526024815260200180612eda6024913960400191505060405180910390fd5b600073ffffffffffffffffffffffffffffffffffffffff168273ffffffffffffffffffffffffffffffffffffffff161415611f47576040517f08c379a000000000000000000000000000000000000000000000000000000000815260040180806020018281038252602281526020018061307e6022913960400191505060405180910390fd5b80600260008573ffffffffffffffffffffffffffffffffffffffff1673ffffffffffffffffffffffffffffffffffffffff16815260200190815260200160002060008473ffffffffffffffffffffffffffffffffffffffff1673ffffffffffffffffffffffffffffffffffffffff168152602001908152602001600020819055508173ffffffffffffffffffffffffffffffffffffffff168373ffffffffffffffffffffffffffffffffffffffff167f8c5be1e5ebec7d5bd14f71427d1e84f3dd0314c0f7b2291e5b200ac8c7c3b925836040518082815260200191505060405180910390a3505050565b600073ffffffffffffffffffffffffffffffffffffffff168373ffffffffffffffffffffffffffffffffffffffff1614156120b8576040517f08c379a0000000000000000000000000000000000000000000000000000000008152600401808060200182810382526025815260200180612eb56025913960400191505060405180910390fd5b600073ffffffffffffffffffffffffffffffffffffffff168273ffffffffffffffffffffffffffffffffffffffff16141561213e576040517f08c379a0000000000000000000000000000000000000000000000000000000008152600401808060200182810382526023815260200180612fde6023913960400191505060405180910390fd5b6121aa81604051806060016040528060268152602001612fb860269139600160008773ffffffffffffffffffffffffffffffffffffffff1673ffffffffffffffffffffffffffffffffffffffff168152602001908152602001600020546122ec9092919063ffffffff16565b600160008573ffffffffffffffffffffffffffffffffffffffff1673ffffffffffffffffffffffffffffffffffffffff1681526020019081526020016000208190555061223f81600160008573ffffffffffffffffffffffffffffffffffffffff1673ffffffffffffffffffffffffffffffffffffffff16815260200190815260200160002054611dab90919063ffffffff16565b600160008473ffffffffffffffffffffffffffffffffffffffff1673ffffffffffffffffffffffffffffffffffffffff168152602001908152602001600020819055508173ffffffffffffffffffffffffffffffffffffffff168373ffffffffffffffffffffffffffffffffffffffff167fddf252ad1be2c89b69c2b068fc378daa952ba7f163c4a11628f55a4df523b3ef836040518082815260200191505060405180910390a3505050565b6000838311158290612399576040517f08c379a00000000000000000000000000000000000000000000000000000000081526004018080602001828103825283818151815260200191508051906020019080838360005b8381101561235e578082015181840152602081019050612343565b50505050905090810190601f16801561238b5780820380516001836020036101000a031916815260200191505b509250505060405180910390fd5b5060008385039050809150509392505050565b60008073ffffffffffffffffffffffffffffffffffffffff168373ffffffffffffffffffffffffffffffffffffffff161415612450576040517f08c379a000000000000000000000000000000000000000000000000000000000815260040180806020018281038252601f8152602001807f42455032303a206d696e7420746f20746865207a65726f20616464726573730081525060200191505060405180910390fd5b6a084595161401484a00000061247160035484611dab90919063ffffffff16565b11156124805760009050612597565b61249582600354611dab90919063ffffffff16565b6003819055506124ed82600160008673ffffffffffffffffffffffffffffffffffffffff1673ffffffffffffffffffffffffffffffffffffffff16815260200190815260200160002054611dab90919063ffffffff16565b600160008573ffffffffffffffffffffffffffffffffffffffff1673ffffffffffffffffffffffffffffffffffffffff168152602001908152602001600020819055508273ffffffffffffffffffffffffffffffffffffffff16600073ffffffffffffffffffffffffffffffffffffffff167fddf252ad1be2c89b69c2b068fc378daa952ba7f163c4a11628f55a4df523b3ef846040518082815260200191505060405180910390a35b92915050565b8173ffffffffffffffffffffffffffffffffffffffff168373ffffffffffffffffffffffffffffffffffffffff16141580156125d95750600081115b1561283557600073ffffffffffffffffffffffffffffffffffffffff168373ffffffffffffffffffffffffffffffffffffffff1614612709576000600960008573ffffffffffffffffffffffffffffffffffffffff1673ffffffffffffffffffffffffffffffffffffffff16815260200190815260200160002060009054906101000a900463ffffffff1690506000808263ffffffff161161267c5760006126e0565b600860008673ffffffffffffffffffffffffffffffffffffffff1673ffffffffffffffffffffffffffffffffffffffff16815260200190815260200160002060006001840363ffffffff1663ffffffff168152602001908152602001600020600101545b905060006126f78483612afb90919063ffffffff16565b905061270586848484612b45565b5050505b600073ffffffffffffffffffffffffffffffffffffffff168273ffffffffffffffffffffffffffffffffffffffff1614612834576000600960008473ffffffffffffffffffffffffffffffffffffffff1673ffffffffffffffffffffffffffffffffffffffff16815260200190815260200160002060009054906101000a900463ffffffff1690506000808263ffffffff16116127a757600061280b565b600860008573ffffffffffffffffffffffffffffffffffffffff1673ffffffffffffffffffffffffffffffffffffffff16815260200190815260200160002060006001840363ffffffff1663ffffffff168152602001908152602001600020600101545b905060006128228483611dab90919063ffffffff16565b905061283085848484612b45565b5050505b5b505050565b6000600760008473ffffffffffffffffffffffffffffffffffffffff1673ffffffffffffffffffffffffffffffffffffffff16815260200190815260200160002060009054906101000a900473ffffffffffffffffffffffffffffffffffffffff16905060006128a984610f4c565b905082600760008673ffffffffffffffffffffffffffffffffffffffff1673ffffffffffffffffffffffffffffffffffffffff16815260200190815260200160002060006101000a81548173ffffffffffffffffffffffffffffffffffffffff021916908373ffffffffffffffffffffffffffffffffffffffff1602179055508273ffffffffffffffffffffffffffffffffffffffff168273ffffffffffffffffffffffffffffffffffffffff168573ffffffffffffffffffffffffffffffffffffffff167f3134e8a2e6d97e929a7e54011ea5485d7d196dd5f0ba4d4ef95803e8e3fc257f60405160405180910390a46129a582848361259d565b50505050565b6000804690508091505090565b600073ffffffffffffffffffffffffffffffffffffffff168173ffffffffffffffffffffffffffffffffffffffff161415612a3e576040517f08c379a0000000000000000000000000000000000000000000000000000000008152600401808060200182810382526026815260200180612efe6026913960400191505060405180910390fd5b8073ffffffffffffffffffffffffffffffffffffffff1660008054906101000a900473ffffffffffffffffffffffffffffffffffffffff1673ffffffffffffffffffffffffffffffffffffffff167f8be0079c531659141344cd1fd0a4f28419497f9722a3daafe3b4186f6b6457e060405160405180910390a3806000806101000a81548173ffffffffffffffffffffffffffffffffffffffff021916908373ffffffffffffffffffffffffffffffffffffffff16021790555050565b6000612b3d83836040518060400160405280601e81526020017f536166654d6174683a207375627472616374696f6e206f766572666c6f7700008152506122ec565b905092915050565b6000612b694360405180606001604052806033815260200161302660339139612dd9565b905060008463ffffffff16118015612bfe57508063ffffffff16600860008773ffffffffffffffffffffffffffffffffffffffff1673ffffffffffffffffffffffffffffffffffffffff16815260200190815260200160002060006001870363ffffffff1663ffffffff16815260200190815260200160002060000160009054906101000a900463ffffffff1663ffffffff16145b15612c6f5781600860008773ffffffffffffffffffffffffffffffffffffffff1673ffffffffffffffffffffffffffffffffffffffff16815260200190815260200160002060006001870363ffffffff1663ffffffff16815260200190815260200160002060010181905550612d7c565b60405180604001604052808263ffffffff16815260200183815250600860008773ffffffffffffffffffffffffffffffffffffffff1673ffffffffffffffffffffffffffffffffffffffff16815260200190815260200160002060008663ffffffff1663ffffffff16815260200190815260200160002060008201518160000160006101000a81548163ffffffff021916908363ffffffff1602179055506020820151816001015590505060018401600960008773ffffffffffffffffffffffffffffffffffffffff1673ffffffffffffffffffffffffffffffffffffffff16815260200190815260200160002060006101000a81548163ffffffff021916908363ffffffff1602179055505b8473ffffffffffffffffffffffffffffffffffffffff167fdec2bacdd2f05b59de34da9b523dff8be42e5e38e818c82fdb0bae774387a7248484604051808381526020018281526020019250505060405180910390a25050505050565b600064010000000083108290612e8a576040517f08c379a00000000000000000000000000000000000000000000000000000000081526004018080602001828103825283818151815260200191508051906020019080838360005b83811015612e4f578082015181840152602081019050612e34565b50505050905090810190601f168015612e7c5780820380516001836020036101000a031916815260200191505b509250505060405180910390fd5b5082905092915050565b6040518060400160405280600063ffffffff16815260200160008152509056fe42455032303a207472616e736665722066726f6d20746865207a65726f206164647265737342455032303a20617070726f76652066726f6d20746865207a65726f20616464726573734f776e61626c653a206e6577206f776e657220697320746865207a65726f206164647265737342455032303a207472616e7366657220616d6f756e74206578636565647320616c6c6f77616e63654c4b443a3a64656c656761746542795369673a20696e76616c6964206e6f6e63654c4b443a3a6765745072696f72566f7465733a206e6f74207965742064657465726d696e65644c4b443a3a64656c656761746542795369673a207369676e6174757265206578706972656442455032303a207472616e7366657220616d6f756e7420657863656564732062616c616e636542455032303a207472616e7366657220746f20746865207a65726f206164647265737342455032303a2064656372656173656420616c6c6f77616e63652062656c6f77207a65726f4c4b443a3a5f7772697465436865636b706f696e743a20626c6f636b206e756d626572206578636565647320333220626974734c4b443a3a64656c656761746542795369673a20696e76616c6964207369676e617475726542455032303a20617070726f766520746f20746865207a65726f2061646472657373a2646970667358221220b148c0c288ba50d0cd26732ce95cafeb580c1838b2af19837d7babda97ed5ee064736f6c634300060c0033",
					"opcodes": "PUSH1 0x80 PUSH1 0x40 MSTORE CALLVALUE DUP1 ISZERO PUSH3 0x11 JUMPI PUSH1 0x0 DUP1 REVERT JUMPDEST POP PUSH1 0x40 MLOAD DUP1 PUSH1 0x40 ADD PUSH1 0x40 MSTORE DUP1 PUSH1 0x7 DUP2 MSTORE PUSH1 0x20 ADD PUSH32 0x4C696E6B44616F00000000000000000000000000000000000000000000000000 DUP2 MSTORE POP PUSH1 0x40 MLOAD DUP1 PUSH1 0x40 ADD PUSH1 0x40 MSTORE DUP1 PUSH1 0x3 DUP2 MSTORE PUSH1 0x20 ADD PUSH32 0x4C4B440000000000000000000000000000000000000000000000000000000000 DUP2 MSTORE POP PUSH1 0x0 PUSH3 0x90 PUSH3 0x1A2 PUSH1 0x20 SHL PUSH1 0x20 SHR JUMP JUMPDEST SWAP1 POP DUP1 PUSH1 0x0 DUP1 PUSH2 0x100 EXP DUP2 SLOAD DUP2 PUSH20 0xFFFFFFFFFFFFFFFFFFFFFFFFFFFFFFFFFFFFFFFF MUL NOT AND SWAP1 DUP4 PUSH20 0xFFFFFFFFFFFFFFFFFFFFFFFFFFFFFFFFFFFFFFFF AND MUL OR SWAP1 SSTORE POP DUP1 PUSH20 0xFFFFFFFFFFFFFFFFFFFFFFFFFFFFFFFFFFFFFFFF AND PUSH1 0x0 PUSH20 0xFFFFFFFFFFFFFFFFFFFFFFFFFFFFFFFFFFFFFFFF AND PUSH32 0x8BE0079C531659141344CD1FD0A4F28419497F9722A3DAAFE3B4186F6B6457E0 PUSH1 0x40 MLOAD PUSH1 0x40 MLOAD DUP1 SWAP2 SUB SWAP1 LOG3 POP DUP2 PUSH1 0x4 SWAP1 DUP1 MLOAD SWAP1 PUSH1 0x20 ADD SWAP1 PUSH3 0x146 SWAP3 SWAP2 SWAP1 PUSH3 0x43C JUMP JUMPDEST POP DUP1 PUSH1 0x5 SWAP1 DUP1 MLOAD SWAP1 PUSH1 0x20 ADD SWAP1 PUSH3 0x15F SWAP3 SWAP2 SWAP1 PUSH3 0x43C JUMP JUMPDEST POP PUSH1 0x12 PUSH1 0x6 PUSH1 0x0 PUSH2 0x100 EXP DUP2 SLOAD DUP2 PUSH1 0xFF MUL NOT AND SWAP1 DUP4 PUSH1 0xFF AND MUL OR SWAP1 SSTORE POP PUSH3 0x199 CALLER PUSH11 0x84595161401484A000000 PUSH3 0x1AA PUSH1 0x20 SHL PUSH1 0x20 SHR JUMP JUMPDEST POP POP POP PUSH3 0x4E2 JUMP JUMPDEST PUSH1 0x0 CALLER SWAP1 POP SWAP1 JUMP JUMPDEST PUSH1 0x0 DUP1 PUSH20 0xFFFFFFFFFFFFFFFFFFFFFFFFFFFFFFFFFFFFFFFF AND DUP4 PUSH20 0xFFFFFFFFFFFFFFFFFFFFFFFFFFFFFFFFFFFFFFFF AND EQ ISZERO PUSH3 0x24F JUMPI PUSH1 0x40 MLOAD PUSH32 0x8C379A000000000000000000000000000000000000000000000000000000000 DUP2 MSTORE PUSH1 0x4 ADD DUP1 DUP1 PUSH1 0x20 ADD DUP3 DUP2 SUB DUP3 MSTORE PUSH1 0x1F DUP2 MSTORE PUSH1 0x20 ADD DUP1 PUSH32 0x42455032303A206D696E7420746F20746865207A65726F206164647265737300 DUP2 MSTORE POP PUSH1 0x20 ADD SWAP2 POP POP PUSH1 0x40 MLOAD DUP1 SWAP2 SUB SWAP1 REVERT JUMPDEST PUSH11 0x84595161401484A000000 PUSH3 0x277 PUSH1 0x3 SLOAD DUP5 PUSH3 0x3B3 PUSH1 0x20 SHL PUSH3 0x1DAB OR SWAP1 SWAP2 SWAP1 PUSH1 0x20 SHR JUMP JUMPDEST GT ISZERO PUSH3 0x288 JUMPI PUSH1 0x0 SWAP1 POP PUSH3 0x3AD JUMP JUMPDEST PUSH3 0x2A4 DUP3 PUSH1 0x3 SLOAD PUSH3 0x3B3 PUSH1 0x20 SHL PUSH3 0x1DAB OR SWAP1 SWAP2 SWAP1 PUSH1 0x20 SHR JUMP JUMPDEST PUSH1 0x3 DUP2 SWAP1 SSTORE POP PUSH3 0x303 DUP3 PUSH1 0x1 PUSH1 0x0 DUP7 PUSH20 0xFFFFFFFFFFFFFFFFFFFFFFFFFFFFFFFFFFFFFFFF AND PUSH20 0xFFFFFFFFFFFFFFFFFFFFFFFFFFFFFFFFFFFFFFFF AND DUP2 MSTORE PUSH1 0x20 ADD SWAP1 DUP2 MSTORE PUSH1 0x20 ADD PUSH1 0x0 KECCAK256 SLOAD PUSH3 0x3B3 PUSH1 0x20 SHL PUSH3 0x1DAB OR SWAP1 SWAP2 SWAP1 PUSH1 0x20 SHR JUMP JUMPDEST PUSH1 0x1 PUSH1 0x0 DUP6 PUSH20 0xFFFFFFFFFFFFFFFFFFFFFFFFFFFFFFFFFFFFFFFF AND PUSH20 0xFFFFFFFFFFFFFFFFFFFFFFFFFFFFFFFFFFFFFFFF AND DUP2 MSTORE PUSH1 0x20 ADD SWAP1 DUP2 MSTORE PUSH1 0x20 ADD PUSH1 0x0 KECCAK256 DUP2 SWAP1 SSTORE POP DUP3 PUSH20 0xFFFFFFFFFFFFFFFFFFFFFFFFFFFFFFFFFFFFFFFF AND PUSH1 0x0 PUSH20 0xFFFFFFFFFFFFFFFFFFFFFFFFFFFFFFFFFFFFFFFF AND PUSH32 0xDDF252AD1BE2C89B69C2B068FC378DAA952BA7F163C4A11628F55A4DF523B3EF DUP5 PUSH1 0x40 MLOAD DUP1 DUP3 DUP2 MSTORE PUSH1 0x20 ADD SWAP2 POP POP PUSH1 0x40 MLOAD DUP1 SWAP2 SUB SWAP1 LOG3 JUMPDEST SWAP3 SWAP2 POP POP JUMP JUMPDEST PUSH1 0x0 DUP1 DUP3 DUP5 ADD SWAP1 POP DUP4 DUP2 LT ISZERO PUSH3 0x432 JUMPI PUSH1 0x40 MLOAD PUSH32 0x8C379A000000000000000000000000000000000000000000000000000000000 DUP2 MSTORE PUSH1 0x4 ADD DUP1 DUP1 PUSH1 0x20 ADD DUP3 DUP2 SUB DUP3 MSTORE PUSH1 0x1B DUP2 MSTORE PUSH1 0x20 ADD DUP1 PUSH32 0x536166654D6174683A206164646974696F6E206F766572666C6F770000000000 DUP2 MSTORE POP PUSH1 0x20 ADD SWAP2 POP POP PUSH1 0x40 MLOAD DUP1 SWAP2 SUB SWAP1 REVERT JUMPDEST DUP1 SWAP2 POP POP SWAP3 SWAP2 POP POP JUMP JUMPDEST DUP3 DUP1 SLOAD PUSH1 0x1 DUP2 PUSH1 0x1 AND ISZERO PUSH2 0x100 MUL SUB AND PUSH1 0x2 SWAP1 DIV SWAP1 PUSH1 0x0 MSTORE PUSH1 0x20 PUSH1 0x0 KECCAK256 SWAP1 PUSH1 0x1F ADD PUSH1 0x20 SWAP1 DIV DUP2 ADD SWAP3 DUP3 PUSH1 0x1F LT PUSH3 0x47F JUMPI DUP1 MLOAD PUSH1 0xFF NOT AND DUP4 DUP1 ADD OR DUP6 SSTORE PUSH3 0x4B0 JUMP JUMPDEST DUP3 DUP1 ADD PUSH1 0x1 ADD DUP6 SSTORE DUP3 ISZERO PUSH3 0x4B0 JUMPI SWAP2 DUP3 ADD JUMPDEST DUP3 DUP2 GT ISZERO PUSH3 0x4AF JUMPI DUP3 MLOAD DUP3 SSTORE SWAP2 PUSH1 0x20 ADD SWAP2 SWAP1 PUSH1 0x1 ADD SWAP1 PUSH3 0x492 JUMP JUMPDEST JUMPDEST POP SWAP1 POP PUSH3 0x4BF SWAP2 SWAP1 PUSH3 0x4C3 JUMP JUMPDEST POP SWAP1 JUMP JUMPDEST JUMPDEST DUP1 DUP3 GT ISZERO PUSH3 0x4DE JUMPI PUSH1 0x0 DUP2 PUSH1 0x0 SWAP1 SSTORE POP PUSH1 0x1 ADD PUSH3 0x4C4 JUMP JUMPDEST POP SWAP1 JUMP JUMPDEST PUSH2 0x30D5 DUP1 PUSH3 0x4F2 PUSH1 0x0 CODECOPY PUSH1 0x0 RETURN INVALID PUSH1 0x80 PUSH1 0x40 MSTORE CALLVALUE DUP1 ISZERO PUSH2 0x10 JUMPI PUSH1 0x0 DUP1 REVERT JUMPDEST POP PUSH1 0x4 CALLDATASIZE LT PUSH2 0x1CF JUMPI PUSH1 0x0 CALLDATALOAD PUSH1 0xE0 SHR DUP1 PUSH4 0x782D6FE1 GT PUSH2 0x104 JUMPI DUP1 PUSH4 0xA9059CBB GT PUSH2 0xA2 JUMPI DUP1 PUSH4 0xDD62ED3E GT PUSH2 0x71 JUMPI DUP1 PUSH4 0xDD62ED3E EQ PUSH2 0x97E JUMPI DUP1 PUSH4 0xE7A324DC EQ PUSH2 0x9F6 JUMPI DUP1 PUSH4 0xF1127ED8 EQ PUSH2 0xA14 JUMPI DUP1 PUSH4 0xF2FDE38B EQ PUSH2 0xA89 JUMPI PUSH2 0x1CF JUMP JUMPDEST DUP1 PUSH4 0xA9059CBB EQ PUSH2 0x82B JUMPI DUP1 PUSH4 0xB4B5EA57 EQ PUSH2 0x88F JUMPI DUP1 PUSH4 0xC3CDA520 EQ PUSH2 0x8E7 JUMPI DUP1 PUSH4 0xD5ABEB01 EQ PUSH2 0x960 JUMPI PUSH2 0x1CF JUMP JUMPDEST DUP1 PUSH4 0x8DA5CB5B GT PUSH2 0xDE JUMPI DUP1 PUSH4 0x8DA5CB5B EQ PUSH2 0x6CC JUMPI DUP1 PUSH4 0x95D89B41 EQ PUSH2 0x700 JUMPI DUP1 PUSH4 0xA0712D68 EQ PUSH2 0x783 JUMPI DUP1 PUSH4 0xA457C2D7 EQ PUSH2 0x7C7 JUMPI PUSH2 0x1CF JUMP JUMPDEST DUP1 PUSH4 0x782D6FE1 EQ PUSH2 0x5DE JUMPI DUP1 PUSH4 0x7ECEBE00 EQ PUSH2 0x640 JUMPI DUP1 PUSH4 0x893D20E8 EQ PUSH2 0x698 JUMPI PUSH2 0x1CF JUMP JUMPDEST DUP1 PUSH4 0x39509351 GT PUSH2 0x171 JUMPI DUP1 PUSH4 0x5C19A95C GT PUSH2 0x14B JUMPI DUP1 PUSH4 0x5C19A95C EQ PUSH2 0x4DA JUMPI DUP1 PUSH4 0x6FCFFF45 EQ PUSH2 0x51E JUMPI DUP1 PUSH4 0x70A08231 EQ PUSH2 0x57C JUMPI DUP1 PUSH4 0x715018A6 EQ PUSH2 0x5D4 JUMPI PUSH2 0x1CF JUMP JUMPDEST DUP1 PUSH4 0x39509351 EQ PUSH2 0x3BA JUMPI DUP1 PUSH4 0x40C10F19 EQ PUSH2 0x41E JUMPI DUP1 PUSH4 0x587CDE1E EQ PUSH2 0x46C JUMPI PUSH2 0x1CF JUMP JUMPDEST DUP1 PUSH4 0x18160DDD GT PUSH2 0x1AD JUMPI DUP1 PUSH4 0x18160DDD EQ PUSH2 0x2D9 JUMPI DUP1 PUSH4 0x20606B70 EQ PUSH2 0x2F7 JUMPI DUP1 PUSH4 0x23B872DD EQ PUSH2 0x315 JUMPI DUP1 PUSH4 0x313CE567 EQ PUSH2 0x399 JUMPI PUSH2 0x1CF JUMP JUMPDEST DUP1 PUSH4 0x6FDDE03 EQ PUSH2 0x1D4 JUMPI DUP1 PUSH4 0x95EA7B3 EQ PUSH2 0x257 JUMPI DUP1 PUSH4 0xC16EA83 EQ PUSH2 0x2BB JUMPI JUMPDEST PUSH1 0x0 DUP1 REVERT JUMPDEST PUSH2 0x1DC PUSH2 0xACD JUMP JUMPDEST PUSH1 0x40 MLOAD DUP1 DUP1 PUSH1 0x20 ADD DUP3 DUP2 SUB DUP3 MSTORE DUP4 DUP2 DUP2 MLOAD DUP2 MSTORE PUSH1 0x20 ADD SWAP2 POP DUP1 MLOAD SWAP1 PUSH1 0x20 ADD SWAP1 DUP1 DUP4 DUP4 PUSH1 0x0 JUMPDEST DUP4 DUP2 LT ISZERO PUSH2 0x21C JUMPI DUP1 DUP3 ADD MLOAD DUP2 DUP5 ADD MSTORE PUSH1 0x20 DUP2 ADD SWAP1 POP PUSH2 0x201 JUMP JUMPDEST POP POP POP POP SWAP1 POP SWAP1 DUP2 ADD SWAP1 PUSH1 0x1F AND DUP1 ISZERO PUSH2 0x249 JUMPI DUP1 DUP3 SUB DUP1 MLOAD PUSH1 0x1 DUP4 PUSH1 0x20 SUB PUSH2 0x100 EXP SUB NOT AND DUP2 MSTORE PUSH1 0x20 ADD SWAP2 POP JUMPDEST POP SWAP3 POP POP POP PUSH1 0x40 MLOAD DUP1 SWAP2 SUB SWAP1 RETURN JUMPDEST PUSH2 0x2A3 PUSH1 0x4 DUP1 CALLDATASIZE SUB PUSH1 0x40 DUP2 LT ISZERO PUSH2 0x26D JUMPI PUSH1 0x0 DUP1 REVERT JUMPDEST DUP2 ADD SWAP1 DUP1 DUP1 CALLDATALOAD PUSH20 0xFFFFFFFFFFFFFFFFFFFFFFFFFFFFFFFFFFFFFFFF AND SWAP1 PUSH1 0x20 ADD SWAP1 SWAP3 SWAP2 SWAP1 DUP1 CALLDATALOAD SWAP1 PUSH1 0x20 ADD SWAP1 SWAP3 SWAP2 SWAP1 POP POP POP PUSH2 0xB6F JUMP JUMPDEST PUSH1 0x40 MLOAD DUP1 DUP3 ISZERO ISZERO DUP2 MSTORE PUSH1 0x20 ADD SWAP2 POP POP PUSH1 0x40 MLOAD DUP1 SWAP2 SUB SWAP1 RETURN JUMPDEST PUSH2 0x2C3 PUSH2 0xB8D JUMP JUMPDEST PUSH1 0x40 MLOAD DUP1 DUP3 DUP2 MSTORE PUSH1 0x20 ADD SWAP2 POP POP PUSH1 0x40 MLOAD DUP1 SWAP2 SUB SWAP1 RETURN JUMPDEST PUSH2 0x2E1 PUSH2 0xBA0 JUMP JUMPDEST PUSH1 0x40 MLOAD DUP1 DUP3 DUP2 MSTORE PUSH1 0x20 ADD SWAP2 POP POP PUSH1 0x40 MLOAD DUP1 SWAP2 SUB SWAP1 RETURN JUMPDEST PUSH2 0x2FF PUSH2 0xBAA JUMP JUMPDEST PUSH1 0x40 MLOAD DUP1 DUP3 DUP2 MSTORE PUSH1 0x20 ADD SWAP2 POP POP PUSH1 0x40 MLOAD DUP1 SWAP2 SUB SWAP1 RETURN JUMPDEST PUSH2 0x381 PUSH1 0x4 DUP1 CALLDATASIZE SUB PUSH1 0x60 DUP2 LT ISZERO PUSH2 0x32B JUMPI PUSH1 0x0 DUP1 REVERT JUMPDEST DUP2 ADD SWAP1 DUP1 DUP1 CALLDATALOAD PUSH20 0xFFFFFFFFFFFFFFFFFFFFFFFFFFFFFFFFFFFFFFFF AND SWAP1 PUSH1 0x20 ADD SWAP1 SWAP3 SWAP2 SWAP1 DUP1 CALLDATALOAD PUSH20 0xFFFFFFFFFFFFFFFFFFFFFFFFFFFFFFFFFFFFFFFF AND SWAP1 PUSH1 0x20 ADD SWAP1 SWAP3 SWAP2 SWAP1 DUP1 CALLDATALOAD SWAP1 PUSH1 0x20 ADD SWAP1 SWAP3 SWAP2 SWAP1 POP POP POP PUSH2 0xBCE JUMP JUMPDEST PUSH1 0x40 MLOAD DUP1 DUP3 ISZERO ISZERO DUP2 MSTORE PUSH1 0x20 ADD SWAP2 POP POP PUSH1 0x40 MLOAD DUP1 SWAP2 SUB SWAP1 RETURN JUMPDEST PUSH2 0x3A1 PUSH2 0xCA7 JUMP JUMPDEST PUSH1 0x40 MLOAD DUP1 DUP3 PUSH1 0xFF AND DUP2 MSTORE PUSH1 0x20 ADD SWAP2 POP POP PUSH1 0x40 MLOAD DUP1 SWAP2 SUB SWAP1 RETURN JUMPDEST PUSH2 0x406 PUSH1 0x4 DUP1 CALLDATASIZE SUB PUSH1 0x40 DUP2 LT ISZERO PUSH2 0x3D0 JUMPI PUSH1 0x0 DUP1 REVERT JUMPDEST DUP2 ADD SWAP1 DUP1 DUP1 CALLDATALOAD PUSH20 0xFFFFFFFFFFFFFFFFFFFFFFFFFFFFFFFFFFFFFFFF AND SWAP1 PUSH1 0x20 ADD SWAP1 SWAP3 SWAP2 SWAP1 DUP1 CALLDATALOAD SWAP1 PUSH1 0x20 ADD SWAP1 SWAP3 SWAP2 SWAP1 POP POP POP PUSH2 0xCBE JUMP JUMPDEST PUSH1 0x40 MLOAD DUP1 DUP3 ISZERO ISZERO DUP2 MSTORE PUSH1 0x20 ADD SWAP2 POP POP PUSH1 0x40 MLOAD DUP1 SWAP2 SUB SWAP1 RETURN JUMPDEST PUSH2 0x46A PUSH1 0x4 DUP1 CALLDATASIZE SUB PUSH1 0x40 DUP2 LT ISZERO PUSH2 0x434 JUMPI PUSH1 0x0 DUP1 REVERT JUMPDEST DUP2 ADD SWAP1 DUP1 DUP1 CALLDATALOAD PUSH20 0xFFFFFFFFFFFFFFFFFFFFFFFFFFFFFFFFFFFFFFFF AND SWAP1 PUSH1 0x20 ADD SWAP1 SWAP3 SWAP2 SWAP1 DUP1 CALLDATALOAD SWAP1 PUSH1 0x20 ADD SWAP1 SWAP3 SWAP2 SWAP1 POP POP POP PUSH2 0xD71 JUMP JUMPDEST STOP JUMPDEST PUSH2 0x4AE PUSH1 0x4 DUP1 CALLDATASIZE SUB PUSH1 0x20 DUP2 LT ISZERO PUSH2 0x482 JUMPI PUSH1 0x0 DUP1 REVERT JUMPDEST DUP2 ADD SWAP1 DUP1 DUP1 CALLDATALOAD PUSH20 0xFFFFFFFFFFFFFFFFFFFFFFFFFFFFFFFFFFFFFFFF AND SWAP1 PUSH1 0x20 ADD SWAP1 SWAP3 SWAP2 SWAP1 POP POP POP PUSH2 0xEB3 JUMP JUMPDEST PUSH1 0x40 MLOAD DUP1 DUP3 PUSH20 0xFFFFFFFFFFFFFFFFFFFFFFFFFFFFFFFFFFFFFFFF AND DUP2 MSTORE PUSH1 0x20 ADD SWAP2 POP POP PUSH1 0x40 MLOAD DUP1 SWAP2 SUB SWAP1 RETURN JUMPDEST PUSH2 0x51C PUSH1 0x4 DUP1 CALLDATASIZE SUB PUSH1 0x20 DUP2 LT ISZERO PUSH2 0x4F0 JUMPI PUSH1 0x0 DUP1 REVERT JUMPDEST DUP2 ADD SWAP1 DUP1 DUP1 CALLDATALOAD PUSH20 0xFFFFFFFFFFFFFFFFFFFFFFFFFFFFFFFFFFFFFFFF AND SWAP1 PUSH1 0x20 ADD SWAP1 SWAP3 SWAP2 SWAP1 POP POP POP PUSH2 0xF1C JUMP JUMPDEST STOP JUMPDEST PUSH2 0x560 PUSH1 0x4 DUP1 CALLDATASIZE SUB PUSH1 0x20 DUP2 LT ISZERO PUSH2 0x534 JUMPI PUSH1 0x0 DUP1 REVERT JUMPDEST DUP2 ADD SWAP1 DUP1 DUP1 CALLDATALOAD PUSH20 0xFFFFFFFFFFFFFFFFFFFFFFFFFFFFFFFFFFFFFFFF AND SWAP1 PUSH1 0x20 ADD SWAP1 SWAP3 SWAP2 SWAP1 POP POP POP PUSH2 0xF29 JUMP JUMPDEST PUSH1 0x40 MLOAD DUP1 DUP3 PUSH4 0xFFFFFFFF AND DUP2 MSTORE PUSH1 0x20 ADD SWAP2 POP POP PUSH1 0x40 MLOAD DUP1 SWAP2 SUB SWAP1 RETURN JUMPDEST PUSH2 0x5BE PUSH1 0x4 DUP1 CALLDATASIZE SUB PUSH1 0x20 DUP2 LT ISZERO PUSH2 0x592 JUMPI PUSH1 0x0 DUP1 REVERT JUMPDEST DUP2 ADD SWAP1 DUP1 DUP1 CALLDATALOAD PUSH20 0xFFFFFFFFFFFFFFFFFFFFFFFFFFFFFFFFFFFFFFFF AND SWAP1 PUSH1 0x20 ADD SWAP1 SWAP3 SWAP2 SWAP1 POP POP POP PUSH2 0xF4C JUMP JUMPDEST PUSH1 0x40 MLOAD DUP1 DUP3 DUP2 MSTORE PUSH1 0x20 ADD SWAP2 POP POP PUSH1 0x40 MLOAD DUP1 SWAP2 SUB SWAP1 RETURN JUMPDEST PUSH2 0x5DC PUSH2 0xF95 JUMP JUMPDEST STOP JUMPDEST PUSH2 0x62A PUSH1 0x4 DUP1 CALLDATASIZE SUB PUSH1 0x40 DUP2 LT ISZERO PUSH2 0x5F4 JUMPI PUSH1 0x0 DUP1 REVERT JUMPDEST DUP2 ADD SWAP1 DUP1 DUP1 CALLDATALOAD PUSH20 0xFFFFFFFFFFFFFFFFFFFFFFFFFFFFFFFFFFFFFFFF AND SWAP1 PUSH1 0x20 ADD SWAP1 SWAP3 SWAP2 SWAP1 DUP1 CALLDATALOAD SWAP1 PUSH1 0x20 ADD SWAP1 SWAP3 SWAP2 SWAP1 POP POP POP PUSH2 0x111B JUMP JUMPDEST PUSH1 0x40 MLOAD DUP1 DUP3 DUP2 MSTORE PUSH1 0x20 ADD SWAP2 POP POP PUSH1 0x40 MLOAD DUP1 SWAP2 SUB SWAP1 RETURN JUMPDEST PUSH2 0x682 PUSH1 0x4 DUP1 CALLDATASIZE SUB PUSH1 0x20 DUP2 LT ISZERO PUSH2 0x656 JUMPI PUSH1 0x0 DUP1 REVERT JUMPDEST DUP2 ADD SWAP1 DUP1 DUP1 CALLDATALOAD PUSH20 0xFFFFFFFFFFFFFFFFFFFFFFFFFFFFFFFFFFFFFFFF AND SWAP1 PUSH1 0x20 ADD SWAP1 SWAP3 SWAP2 SWAP1 POP POP POP PUSH2 0x14DC JUMP JUMPDEST PUSH1 0x40 MLOAD DUP1 DUP3 DUP2 MSTORE PUSH1 0x20 ADD SWAP2 POP POP PUSH1 0x40 MLOAD DUP1 SWAP2 SUB SWAP1 RETURN JUMPDEST PUSH2 0x6A0 PUSH2 0x14F4 JUMP JUMPDEST PUSH1 0x40 MLOAD DUP1 DUP3 PUSH20 0xFFFFFFFFFFFFFFFFFFFFFFFFFFFFFFFFFFFFFFFF AND DUP2 MSTORE PUSH1 0x20 ADD SWAP2 POP POP PUSH1 0x40 MLOAD DUP1 SWAP2 SUB SWAP1 RETURN JUMPDEST PUSH2 0x6D4 PUSH2 0x1503 JUMP JUMPDEST PUSH1 0x40 MLOAD DUP1 DUP3 PUSH20 0xFFFFFFFFFFFFFFFFFFFFFFFFFFFFFFFFFFFFFFFF AND DUP2 MSTORE PUSH1 0x20 ADD SWAP2 POP POP PUSH1 0x40 MLOAD DUP1 SWAP2 SUB SWAP1 RETURN JUMPDEST PUSH2 0x708 PUSH2 0x152C JUMP JUMPDEST PUSH1 0x40 MLOAD DUP1 DUP1 PUSH1 0x20 ADD DUP3 DUP2 SUB DUP3 MSTORE DUP4 DUP2 DUP2 MLOAD DUP2 MSTORE PUSH1 0x20 ADD SWAP2 POP DUP1 MLOAD SWAP1 PUSH1 0x20 ADD SWAP1 DUP1 DUP4 DUP4 PUSH1 0x0 JUMPDEST DUP4 DUP2 LT ISZERO PUSH2 0x748 JUMPI DUP1 DUP3 ADD MLOAD DUP2 DUP5 ADD MSTORE PUSH1 0x20 DUP2 ADD SWAP1 POP PUSH2 0x72D JUMP JUMPDEST POP POP POP POP SWAP1 POP SWAP1 DUP2 ADD SWAP1 PUSH1 0x1F AND DUP1 ISZERO PUSH2 0x775 JUMPI DUP1 DUP3 SUB DUP1 MLOAD PUSH1 0x1 DUP4 PUSH1 0x20 SUB PUSH2 0x100 EXP SUB NOT AND DUP2 MSTORE PUSH1 0x20 ADD SWAP2 POP JUMPDEST POP SWAP3 POP POP POP PUSH1 0x40 MLOAD DUP1 SWAP2 SUB SWAP1 RETURN JUMPDEST PUSH2 0x7AF PUSH1 0x4 DUP1 CALLDATASIZE SUB PUSH1 0x20 DUP2 LT ISZERO PUSH2 0x799 JUMPI PUSH1 0x0 DUP1 REVERT JUMPDEST DUP2 ADD SWAP1 DUP1 DUP1 CALLDATALOAD SWAP1 PUSH1 0x20 ADD SWAP1 SWAP3 SWAP2 SWAP1 POP POP POP PUSH2 0x15CE JUMP JUMPDEST PUSH1 0x40 MLOAD DUP1 DUP3 ISZERO ISZERO DUP2 MSTORE PUSH1 0x20 ADD SWAP2 POP POP PUSH1 0x40 MLOAD DUP1 SWAP2 SUB SWAP1 RETURN JUMPDEST PUSH2 0x813 PUSH1 0x4 DUP1 CALLDATASIZE SUB PUSH1 0x40 DUP2 LT ISZERO PUSH2 0x7DD JUMPI PUSH1 0x0 DUP1 REVERT JUMPDEST DUP2 ADD SWAP1 DUP1 DUP1 CALLDATALOAD PUSH20 0xFFFFFFFFFFFFFFFFFFFFFFFFFFFFFFFFFFFFFFFF AND SWAP1 PUSH1 0x20 ADD SWAP1 SWAP3 SWAP2 SWAP1 DUP1 CALLDATALOAD SWAP1 PUSH1 0x20 ADD SWAP1 SWAP3 SWAP2 SWAP1 POP POP POP PUSH2 0x16B3 JUMP JUMPDEST PUSH1 0x40 MLOAD DUP1 DUP3 ISZERO ISZERO DUP2 MSTORE PUSH1 0x20 ADD SWAP2 POP POP PUSH1 0x40 MLOAD DUP1 SWAP2 SUB SWAP1 RETURN JUMPDEST PUSH2 0x877 PUSH1 0x4 DUP1 CALLDATASIZE SUB PUSH1 0x40 DUP2 LT ISZERO PUSH2 0x841 JUMPI PUSH1 0x0 DUP1 REVERT JUMPDEST DUP2 ADD SWAP1 DUP1 DUP1 CALLDATALOAD PUSH20 0xFFFFFFFFFFFFFFFFFFFFFFFFFFFFFFFFFFFFFFFF AND SWAP1 PUSH1 0x20 ADD SWAP1 SWAP3 SWAP2 SWAP1 DUP1 CALLDATALOAD SWAP1 PUSH1 0x20 ADD SWAP1 SWAP3 SWAP2 SWAP1 POP POP POP PUSH2 0x1780 JUMP JUMPDEST PUSH1 0x40 MLOAD DUP1 DUP3 ISZERO ISZERO DUP2 MSTORE PUSH1 0x20 ADD SWAP2 POP POP PUSH1 0x40 MLOAD DUP1 SWAP2 SUB SWAP1 RETURN JUMPDEST PUSH2 0x8D1 PUSH1 0x4 DUP1 CALLDATASIZE SUB PUSH1 0x20 DUP2 LT ISZERO PUSH2 0x8A5 JUMPI PUSH1 0x0 DUP1 REVERT JUMPDEST DUP2 ADD SWAP1 DUP1 DUP1 CALLDATALOAD PUSH20 0xFFFFFFFFFFFFFFFFFFFFFFFFFFFFFFFFFFFFFFFF AND SWAP1 PUSH1 0x20 ADD SWAP1 SWAP3 SWAP2 SWAP1 POP POP POP PUSH2 0x179E JUMP JUMPDEST PUSH1 0x40 MLOAD DUP1 DUP3 DUP2 MSTORE PUSH1 0x20 ADD SWAP2 POP POP PUSH1 0x40 MLOAD DUP1 SWAP2 SUB SWAP1 RETURN JUMPDEST PUSH2 0x95E PUSH1 0x4 DUP1 CALLDATASIZE SUB PUSH1 0xC0 DUP2 LT ISZERO PUSH2 0x8FD JUMPI PUSH1 0x0 DUP1 REVERT JUMPDEST DUP2 ADD SWAP1 DUP1 DUP1 CALLDATALOAD PUSH20 0xFFFFFFFFFFFFFFFFFFFFFFFFFFFFFFFFFFFFFFFF AND SWAP1 PUSH1 0x20 ADD SWAP1 SWAP3 SWAP2 SWAP1 DUP1 CALLDATALOAD SWAP1 PUSH1 0x20 ADD SWAP1 SWAP3 SWAP2 SWAP1 DUP1 CALLDATALOAD SWAP1 PUSH1 0x20 ADD SWAP1 SWAP3 SWAP2 SWAP1 DUP1 CALLDATALOAD PUSH1 0xFF AND SWAP1 PUSH1 0x20 ADD SWAP1 SWAP3 SWAP2 SWAP1 DUP1 CALLDATALOAD SWAP1 PUSH1 0x20 ADD SWAP1 SWAP3 SWAP2 SWAP1 DUP1 CALLDATALOAD SWAP1 PUSH1 0x20 ADD SWAP1 SWAP3 SWAP2 SWAP1 POP POP POP PUSH2 0x1874 JUMP JUMPDEST STOP JUMPDEST PUSH2 0x968 PUSH2 0x1BD8 JUMP JUMPDEST PUSH1 0x40 MLOAD DUP1 DUP3 DUP2 MSTORE PUSH1 0x20 ADD SWAP2 POP POP PUSH1 0x40 MLOAD DUP1 SWAP2 SUB SWAP1 RETURN JUMPDEST PUSH2 0x9E0 PUSH1 0x4 DUP1 CALLDATASIZE SUB PUSH1 0x40 DUP2 LT ISZERO PUSH2 0x994 JUMPI PUSH1 0x0 DUP1 REVERT JUMPDEST DUP2 ADD SWAP1 DUP1 DUP1 CALLDATALOAD PUSH20 0xFFFFFFFFFFFFFFFFFFFFFFFFFFFFFFFFFFFFFFFF AND SWAP1 PUSH1 0x20 ADD SWAP1 SWAP3 SWAP2 SWAP1 DUP1 CALLDATALOAD PUSH20 0xFFFFFFFFFFFFFFFFFFFFFFFFFFFFFFFFFFFFFFFF AND SWAP1 PUSH1 0x20 ADD SWAP1 SWAP3 SWAP2 SWAP1 POP POP POP PUSH2 0x1BEB JUMP JUMPDEST PUSH1 0x40 MLOAD DUP1 DUP3 DUP2 MSTORE PUSH1 0x20 ADD SWAP2 POP POP PUSH1 0x40 MLOAD DUP1 SWAP2 SUB SWAP1 RETURN JUMPDEST PUSH2 0x9FE PUSH2 0x1C72 JUMP JUMPDEST PUSH1 0x40 MLOAD DUP1 DUP3 DUP2 MSTORE PUSH1 0x20 ADD SWAP2 POP POP PUSH1 0x40 MLOAD DUP1 SWAP2 SUB SWAP1 RETURN JUMPDEST PUSH2 0xA66 PUSH1 0x4 DUP1 CALLDATASIZE SUB PUSH1 0x40 DUP2 LT ISZERO PUSH2 0xA2A JUMPI PUSH1 0x0 DUP1 REVERT JUMPDEST DUP2 ADD SWAP1 DUP1 DUP1 CALLDATALOAD PUSH20 0xFFFFFFFFFFFFFFFFFFFFFFFFFFFFFFFFFFFFFFFF AND SWAP1 PUSH1 0x20 ADD SWAP1 SWAP3 SWAP2 SWAP1 DUP1 CALLDATALOAD PUSH4 0xFFFFFFFF AND SWAP1 PUSH1 0x20 ADD SWAP1 SWAP3 SWAP2 SWAP1 POP POP POP PUSH2 0x1C96 JUMP JUMPDEST PUSH1 0x40 MLOAD DUP1 DUP4 PUSH4 0xFFFFFFFF AND DUP2 MSTORE PUSH1 0x20 ADD DUP3 DUP2 MSTORE PUSH1 0x20 ADD SWAP3 POP POP POP PUSH1 0x40 MLOAD DUP1 SWAP2 SUB SWAP1 RETURN JUMPDEST PUSH2 0xACB PUSH1 0x4 DUP1 CALLDATASIZE SUB PUSH1 0x20 DUP2 LT ISZERO PUSH2 0xA9F JUMPI PUSH1 0x0 DUP1 REVERT JUMPDEST DUP2 ADD SWAP1 DUP1 DUP1 CALLDATALOAD PUSH20 0xFFFFFFFFFFFFFFFFFFFFFFFFFFFFFFFFFFFFFFFF AND SWAP1 PUSH1 0x20 ADD SWAP1 SWAP3 SWAP2 SWAP1 POP POP POP PUSH2 0x1CD7 JUMP JUMPDEST STOP JUMPDEST PUSH1 0x60 PUSH1 0x4 DUP1 SLOAD PUSH1 0x1 DUP2 PUSH1 0x1 AND ISZERO PUSH2 0x100 MUL SUB AND PUSH1 0x2 SWAP1 DIV DUP1 PUSH1 0x1F ADD PUSH1 0x20 DUP1 SWAP2 DIV MUL PUSH1 0x20 ADD PUSH1 0x40 MLOAD SWAP1 DUP2 ADD PUSH1 0x40 MSTORE DUP1 SWAP3 SWAP2 SWAP1 DUP2 DUP2 MSTORE PUSH1 0x20 ADD DUP3 DUP1 SLOAD PUSH1 0x1 DUP2 PUSH1 0x1 AND ISZERO PUSH2 0x100 MUL SUB AND PUSH1 0x2 SWAP1 DIV DUP1 ISZERO PUSH2 0xB65 JUMPI DUP1 PUSH1 0x1F LT PUSH2 0xB3A JUMPI PUSH2 0x100 DUP1 DUP4 SLOAD DIV MUL DUP4 MSTORE SWAP2 PUSH1 0x20 ADD SWAP2 PUSH2 0xB65 JUMP JUMPDEST DUP3 ADD SWAP2 SWAP1 PUSH1 0x0 MSTORE PUSH1 0x20 PUSH1 0x0 KECCAK256 SWAP1 JUMPDEST DUP2 SLOAD DUP2 MSTORE SWAP1 PUSH1 0x1 ADD SWAP1 PUSH1 0x20 ADD DUP1 DUP4 GT PUSH2 0xB48 JUMPI DUP3 SWAP1 SUB PUSH1 0x1F AND DUP3 ADD SWAP2 JUMPDEST POP POP POP POP POP SWAP1 POP SWAP1 JUMP JUMPDEST PUSH1 0x0 PUSH2 0xB83 PUSH2 0xB7C PUSH2 0x1E33 JUMP JUMPDEST DUP5 DUP5 PUSH2 0x1E3B JUMP JUMPDEST PUSH1 0x1 SWAP1 POP SWAP3 SWAP2 POP POP JUMP JUMPDEST PUSH1 0x0 PUSH11 0x84595161401484A000000 SWAP1 POP SWAP1 JUMP JUMPDEST PUSH1 0x0 PUSH1 0x3 SLOAD SWAP1 POP SWAP1 JUMP JUMPDEST PUSH32 0x8CAD95687BA82C2CE50E74F7B754645E5117C3A5BEC8151C0726D5857980A866 DUP2 JUMP JUMPDEST PUSH1 0x0 PUSH2 0xBDB DUP5 DUP5 DUP5 PUSH2 0x2032 JUMP JUMPDEST PUSH2 0xC9C DUP5 PUSH2 0xBE7 PUSH2 0x1E33 JUMP JUMPDEST PUSH2 0xC97 DUP6 PUSH1 0x40 MLOAD DUP1 PUSH1 0x60 ADD PUSH1 0x40 MSTORE DUP1 PUSH1 0x28 DUP2 MSTORE PUSH1 0x20 ADD PUSH2 0x2F24 PUSH1 0x28 SWAP2 CODECOPY PUSH1 0x2 PUSH1 0x0 DUP12 PUSH20 0xFFFFFFFFFFFFFFFFFFFFFFFFFFFFFFFFFFFFFFFF AND PUSH20 0xFFFFFFFFFFFFFFFFFFFFFFFFFFFFFFFFFFFFFFFF AND DUP2 MSTORE PUSH1 0x20 ADD SWAP1 DUP2 MSTORE PUSH1 0x20 ADD PUSH1 0x0 KECCAK256 PUSH1 0x0 PUSH2 0xC4D PUSH2 0x1E33 JUMP JUMPDEST PUSH20 0xFFFFFFFFFFFFFFFFFFFFFFFFFFFFFFFFFFFFFFFF AND PUSH20 0xFFFFFFFFFFFFFFFFFFFFFFFFFFFFFFFFFFFFFFFF AND DUP2 MSTORE PUSH1 0x20 ADD SWAP1 DUP2 MSTORE PUSH1 0x20 ADD PUSH1 0x0 KECCAK256 SLOAD PUSH2 0x22EC SWAP1 SWAP3 SWAP2 SWAP1 PUSH4 0xFFFFFFFF AND JUMP JUMPDEST PUSH2 0x1E3B JUMP JUMPDEST PUSH1 0x1 SWAP1 POP SWAP4 SWAP3 POP POP POP JUMP JUMPDEST PUSH1 0x0 PUSH1 0x6 PUSH1 0x0 SWAP1 SLOAD SWAP1 PUSH2 0x100 EXP SWAP1 DIV PUSH1 0xFF AND SWAP1 POP SWAP1 JUMP JUMPDEST PUSH1 0x0 PUSH2 0xD67 PUSH2 0xCCB PUSH2 0x1E33 JUMP JUMPDEST DUP5 PUSH2 0xD62 DUP6 PUSH1 0x2 PUSH1 0x0 PUSH2 0xCDC PUSH2 0x1E33 JUMP JUMPDEST PUSH20 0xFFFFFFFFFFFFFFFFFFFFFFFFFFFFFFFFFFFFFFFF AND PUSH20 0xFFFFFFFFFFFFFFFFFFFFFFFFFFFFFFFFFFFFFFFF AND DUP2 MSTORE PUSH1 0x20 ADD SWAP1 DUP2 MSTORE PUSH1 0x20 ADD PUSH1 0x0 KECCAK256 PUSH1 0x0 DUP10 PUSH20 0xFFFFFFFFFFFFFFFFFFFFFFFFFFFFFFFFFFFFFFFF AND PUSH20 0xFFFFFFFFFFFFFFFFFFFFFFFFFFFFFFFFFFFFFFFF AND DUP2 MSTORE PUSH1 0x20 ADD SWAP1 DUP2 MSTORE PUSH1 0x20 ADD PUSH1 0x0 KECCAK256 SLOAD PUSH2 0x1DAB SWAP1 SWAP2 SWAP1 PUSH4 0xFFFFFFFF AND JUMP JUMPDEST PUSH2 0x1E3B JUMP JUMPDEST PUSH1 0x1 SWAP1 POP SWAP3 SWAP2 POP POP JUMP JUMPDEST PUSH2 0xD79 PUSH2 0x1E33 JUMP JUMPDEST PUSH20 0xFFFFFFFFFFFFFFFFFFFFFFFFFFFFFFFFFFFFFFFF AND PUSH1 0x0 DUP1 SLOAD SWAP1 PUSH2 0x100 EXP SWAP1 DIV PUSH20 0xFFFFFFFFFFFFFFFFFFFFFFFFFFFFFFFFFFFFFFFF AND PUSH20 0xFFFFFFFFFFFFFFFFFFFFFFFFFFFFFFFFFFFFFFFF AND EQ PUSH2 0xE39 JUMPI PUSH1 0x40 MLOAD PUSH32 0x8C379A000000000000000000000000000000000000000000000000000000000 DUP2 MSTORE PUSH1 0x4 ADD DUP1 DUP1 PUSH1 0x20 ADD DUP3 DUP2 SUB DUP3 MSTORE PUSH1 0x20 DUP2 MSTORE PUSH1 0x20 ADD DUP1 PUSH32 0x4F776E61626C653A2063616C6C6572206973206E6F7420746865206F776E6572 DUP2 MSTORE POP PUSH1 0x20 ADD SWAP2 POP POP PUSH1 0x40 MLOAD DUP1 SWAP2 SUB SWAP1 REVERT JUMPDEST PUSH2 0xE43 DUP3 DUP3 PUSH2 0x23AC JUMP JUMPDEST POP PUSH2 0xEAF PUSH1 0x0 PUSH1 0x7 PUSH1 0x0 DUP6 PUSH20 0xFFFFFFFFFFFFFFFFFFFFFFFFFFFFFFFFFFFFFFFF AND PUSH20 0xFFFFFFFFFFFFFFFFFFFFFFFFFFFFFFFFFFFFFFFF AND DUP2 MSTORE PUSH1 0x20 ADD SWAP1 DUP2 MSTORE PUSH1 0x20 ADD PUSH1 0x0 KECCAK256 PUSH1 0x0 SWAP1 SLOAD SWAP1 PUSH2 0x100 EXP SWAP1 DIV PUSH20 0xFFFFFFFFFFFFFFFFFFFFFFFFFFFFFFFFFFFFFFFF AND DUP4 PUSH2 0x259D JUMP JUMPDEST POP POP JUMP JUMPDEST PUSH1 0x0 PUSH1 0x7 PUSH1 0x0 DUP4 PUSH20 0xFFFFFFFFFFFFFFFFFFFFFFFFFFFFFFFFFFFFFFFF AND PUSH20 0xFFFFFFFFFFFFFFFFFFFFFFFFFFFFFFFFFFFFFFFF AND DUP2 MSTORE PUSH1 0x20 ADD SWAP1 DUP2 MSTORE PUSH1 0x20 ADD PUSH1 0x0 KECCAK256 PUSH1 0x0 SWAP1 SLOAD SWAP1 PUSH2 0x100 EXP SWAP1 DIV PUSH20 0xFFFFFFFFFFFFFFFFFFFFFFFFFFFFFFFFFFFFFFFF AND SWAP1 POP SWAP2 SWAP1 POP JUMP JUMPDEST PUSH2 0xF26 CALLER DUP3 PUSH2 0x283A JUMP JUMPDEST POP JUMP JUMPDEST PUSH1 0x9 PUSH1 0x20 MSTORE DUP1 PUSH1 0x0 MSTORE PUSH1 0x40 PUSH1 0x0 KECCAK256 PUSH1 0x0 SWAP2 POP SLOAD SWAP1 PUSH2 0x100 EXP SWAP1 DIV PUSH4 0xFFFFFFFF AND DUP2 JUMP JUMPDEST PUSH1 0x0 PUSH1 0x1 PUSH1 0x0 DUP4 PUSH20 0xFFFFFFFFFFFFFFFFFFFFFFFFFFFFFFFFFFFFFFFF AND PUSH20 0xFFFFFFFFFFFFFFFFFFFFFFFFFFFFFFFFFFFFFFFF AND DUP2 MSTORE PUSH1 0x20 ADD SWAP1 DUP2 MSTORE PUSH1 0x20 ADD PUSH1 0x0 KECCAK256 SLOAD SWAP1 POP SWAP2 SWAP1 POP JUMP JUMPDEST PUSH2 0xF9D PUSH2 0x1E33 JUMP JUMPDEST PUSH20 0xFFFFFFFFFFFFFFFFFFFFFFFFFFFFFFFFFFFFFFFF AND PUSH1 0x0 DUP1 SLOAD SWAP1 PUSH2 0x100 EXP SWAP1 DIV PUSH20 0xFFFFFFFFFFFFFFFFFFFFFFFFFFFFFFFFFFFFFFFF AND PUSH20 0xFFFFFFFFFFFFFFFFFFFFFFFFFFFFFFFFFFFFFFFF AND EQ PUSH2 0x105D JUMPI PUSH1 0x40 MLOAD PUSH32 0x8C379A000000000000000000000000000000000000000000000000000000000 DUP2 MSTORE PUSH1 0x4 ADD DUP1 DUP1 PUSH1 0x20 ADD DUP3 DUP2 SUB DUP3 MSTORE PUSH1 0x20 DUP2 MSTORE PUSH1 0x20 ADD DUP1 PUSH32 0x4F776E61626C653A2063616C6C6572206973206E6F7420746865206F776E6572 DUP2 MSTORE POP PUSH1 0x20 ADD SWAP2 POP POP PUSH1 0x40 MLOAD DUP1 SWAP2 SUB SWAP1 REVERT JUMPDEST PUSH1 0x0 PUSH20 0xFFFFFFFFFFFFFFFFFFFFFFFFFFFFFFFFFFFFFFFF AND PUSH1 0x0 DUP1 SLOAD SWAP1 PUSH2 0x100 EXP SWAP1 DIV PUSH20 0xFFFFFFFFFFFFFFFFFFFFFFFFFFFFFFFFFFFFFFFF AND PUSH20 0xFFFFFFFFFFFFFFFFFFFFFFFFFFFFFFFFFFFFFFFF AND PUSH32 0x8BE0079C531659141344CD1FD0A4F28419497F9722A3DAAFE3B4186F6B6457E0 PUSH1 0x40 MLOAD PUSH1 0x40 MLOAD DUP1 SWAP2 SUB SWAP1 LOG3 PUSH1 0x0 DUP1 PUSH1 0x0 PUSH2 0x100 EXP DUP2 SLOAD DUP2 PUSH20 0xFFFFFFFFFFFFFFFFFFFFFFFFFFFFFFFFFFFFFFFF MUL NOT AND SWAP1 DUP4 PUSH20 0xFFFFFFFFFFFFFFFFFFFFFFFFFFFFFFFFFFFFFFFF AND MUL OR SWAP1 SSTORE POP JUMP JUMPDEST PUSH1 0x0 NUMBER DUP3 LT PUSH2 0x1175 JUMPI PUSH1 0x40 MLOAD PUSH32 0x8C379A000000000000000000000000000000000000000000000000000000000 DUP2 MSTORE PUSH1 0x4 ADD DUP1 DUP1 PUSH1 0x20 ADD DUP3 DUP2 SUB DUP3 MSTORE PUSH1 0x26 DUP2 MSTORE PUSH1 0x20 ADD DUP1 PUSH2 0x2F6D PUSH1 0x26 SWAP2 CODECOPY PUSH1 0x40 ADD SWAP2 POP POP PUSH1 0x40 MLOAD DUP1 SWAP2 SUB SWAP1 REVERT JUMPDEST PUSH1 0x0 PUSH1 0x9 PUSH1 0x0 DUP6 PUSH20 0xFFFFFFFFFFFFFFFFFFFFFFFFFFFFFFFFFFFFFFFF AND PUSH20 0xFFFFFFFFFFFFFFFFFFFFFFFFFFFFFFFFFFFFFFFF AND DUP2 MSTORE PUSH1 0x20 ADD SWAP1 DUP2 MSTORE PUSH1 0x20 ADD PUSH1 0x0 KECCAK256 PUSH1 0x0 SWAP1 SLOAD SWAP1 PUSH2 0x100 EXP SWAP1 DIV PUSH4 0xFFFFFFFF AND SWAP1 POP PUSH1 0x0 DUP2 PUSH4 0xFFFFFFFF AND EQ ISZERO PUSH2 0x11E2 JUMPI PUSH1 0x0 SWAP2 POP POP PUSH2 0x14D6 JUMP JUMPDEST DUP3 PUSH1 0x8 PUSH1 0x0 DUP7 PUSH20 0xFFFFFFFFFFFFFFFFFFFFFFFFFFFFFFFFFFFFFFFF AND PUSH20 0xFFFFFFFFFFFFFFFFFFFFFFFFFFFFFFFFFFFFFFFF AND DUP2 MSTORE PUSH1 0x20 ADD SWAP1 DUP2 MSTORE PUSH1 0x20 ADD PUSH1 0x0 KECCAK256 PUSH1 0x0 PUSH1 0x1 DUP5 SUB PUSH4 0xFFFFFFFF AND PUSH4 0xFFFFFFFF AND DUP2 MSTORE PUSH1 0x20 ADD SWAP1 DUP2 MSTORE PUSH1 0x20 ADD PUSH1 0x0 KECCAK256 PUSH1 0x0 ADD PUSH1 0x0 SWAP1 SLOAD SWAP1 PUSH2 0x100 EXP SWAP1 DIV PUSH4 0xFFFFFFFF AND PUSH4 0xFFFFFFFF AND GT PUSH2 0x12CC JUMPI PUSH1 0x8 PUSH1 0x0 DUP6 PUSH20 0xFFFFFFFFFFFFFFFFFFFFFFFFFFFFFFFFFFFFFFFF AND PUSH20 0xFFFFFFFFFFFFFFFFFFFFFFFFFFFFFFFFFFFFFFFF AND DUP2 MSTORE PUSH1 0x20 ADD SWAP1 DUP2 MSTORE PUSH1 0x20 ADD PUSH1 0x0 KECCAK256 PUSH1 0x0 PUSH1 0x1 DUP4 SUB PUSH4 0xFFFFFFFF AND PUSH4 0xFFFFFFFF AND DUP2 MSTORE PUSH1 0x20 ADD SWAP1 DUP2 MSTORE PUSH1 0x20 ADD PUSH1 0x0 KECCAK256 PUSH1 0x1 ADD SLOAD SWAP2 POP POP PUSH2 0x14D6 JUMP JUMPDEST DUP3 PUSH1 0x8 PUSH1 0x0 DUP7 PUSH20 0xFFFFFFFFFFFFFFFFFFFFFFFFFFFFFFFFFFFFFFFF AND PUSH20 0xFFFFFFFFFFFFFFFFFFFFFFFFFFFFFFFFFFFFFFFF AND DUP2 MSTORE PUSH1 0x20 ADD SWAP1 DUP2 MSTORE PUSH1 0x20 ADD PUSH1 0x0 KECCAK256 PUSH1 0x0 DUP1 PUSH4 0xFFFFFFFF AND DUP2 MSTORE PUSH1 0x20 ADD SWAP1 DUP2 MSTORE PUSH1 0x20 ADD PUSH1 0x0 KECCAK256 PUSH1 0x0 ADD PUSH1 0x0 SWAP1 SLOAD SWAP1 PUSH2 0x100 EXP SWAP1 DIV PUSH4 0xFFFFFFFF AND PUSH4 0xFFFFFFFF AND GT ISZERO PUSH2 0x134D JUMPI PUSH1 0x0 SWAP2 POP POP PUSH2 0x14D6 JUMP JUMPDEST PUSH1 0x0 DUP1 PUSH1 0x1 DUP4 SUB SWAP1 POP JUMPDEST DUP2 PUSH4 0xFFFFFFFF AND DUP2 PUSH4 0xFFFFFFFF AND GT ISZERO PUSH2 0x1470 JUMPI PUSH1 0x0 PUSH1 0x2 DUP4 DUP4 SUB PUSH4 0xFFFFFFFF AND DUP2 PUSH2 0x137F JUMPI INVALID JUMPDEST DIV DUP3 SUB SWAP1 POP PUSH2 0x138C PUSH2 0x2E94 JUMP JUMPDEST PUSH1 0x8 PUSH1 0x0 DUP10 PUSH20 0xFFFFFFFFFFFFFFFFFFFFFFFFFFFFFFFFFFFFFFFF AND PUSH20 0xFFFFFFFFFFFFFFFFFFFFFFFFFFFFFFFFFFFFFFFF AND DUP2 MSTORE PUSH1 0x20 ADD SWAP1 DUP2 MSTORE PUSH1 0x20 ADD PUSH1 0x0 KECCAK256 PUSH1 0x0 DUP4 PUSH4 0xFFFFFFFF AND PUSH4 0xFFFFFFFF AND DUP2 MSTORE PUSH1 0x20 ADD SWAP1 DUP2 MSTORE PUSH1 0x20 ADD PUSH1 0x0 KECCAK256 PUSH1 0x40 MLOAD DUP1 PUSH1 0x40 ADD PUSH1 0x40 MSTORE SWAP1 DUP2 PUSH1 0x0 DUP3 ADD PUSH1 0x0 SWAP1 SLOAD SWAP1 PUSH2 0x100 EXP SWAP1 DIV PUSH4 0xFFFFFFFF AND PUSH4 0xFFFFFFFF AND PUSH4 0xFFFFFFFF AND DUP2 MSTORE PUSH1 0x20 ADD PUSH1 0x1 DUP3 ADD SLOAD DUP2 MSTORE POP POP SWAP1 POP DUP7 DUP2 PUSH1 0x0 ADD MLOAD PUSH4 0xFFFFFFFF AND EQ ISZERO PUSH2 0x1448 JUMPI DUP1 PUSH1 0x20 ADD MLOAD SWAP6 POP POP POP POP POP POP PUSH2 0x14D6 JUMP JUMPDEST DUP7 DUP2 PUSH1 0x0 ADD MLOAD PUSH4 0xFFFFFFFF AND LT ISZERO PUSH2 0x1462 JUMPI DUP2 SWAP4 POP PUSH2 0x1469 JUMP JUMPDEST PUSH1 0x1 DUP3 SUB SWAP3 POP JUMPDEST POP POP PUSH2 0x1357 JUMP JUMPDEST PUSH1 0x8 PUSH1 0x0 DUP8 PUSH20 0xFFFFFFFFFFFFFFFFFFFFFFFFFFFFFFFFFFFFFFFF AND PUSH20 0xFFFFFFFFFFFFFFFFFFFFFFFFFFFFFFFFFFFFFFFF AND DUP2 MSTORE PUSH1 0x20 ADD SWAP1 DUP2 MSTORE PUSH1 0x20 ADD PUSH1 0x0 KECCAK256 PUSH1 0x0 DUP4 PUSH4 0xFFFFFFFF AND PUSH4 0xFFFFFFFF AND DUP2 MSTORE PUSH1 0x20 ADD SWAP1 DUP2 MSTORE PUSH1 0x20 ADD PUSH1 0x0 KECCAK256 PUSH1 0x1 ADD SLOAD SWAP4 POP POP POP POP JUMPDEST SWAP3 SWAP2 POP POP JUMP JUMPDEST PUSH1 0xA PUSH1 0x20 MSTORE DUP1 PUSH1 0x0 MSTORE PUSH1 0x40 PUSH1 0x0 KECCAK256 PUSH1 0x0 SWAP2 POP SWAP1 POP SLOAD DUP2 JUMP JUMPDEST PUSH1 0x0 PUSH2 0x14FE PUSH2 0x1503 JUMP JUMPDEST SWAP1 POP SWAP1 JUMP JUMPDEST PUSH1 0x0 DUP1 PUSH1 0x0 SWAP1 SLOAD SWAP1 PUSH2 0x100 EXP SWAP1 DIV PUSH20 0xFFFFFFFFFFFFFFFFFFFFFFFFFFFFFFFFFFFFFFFF AND SWAP1 POP SWAP1 JUMP JUMPDEST PUSH1 0x60 PUSH1 0x5 DUP1 SLOAD PUSH1 0x1 DUP2 PUSH1 0x1 AND ISZERO PUSH2 0x100 MUL SUB AND PUSH1 0x2 SWAP1 DIV DUP1 PUSH1 0x1F ADD PUSH1 0x20 DUP1 SWAP2 DIV MUL PUSH1 0x20 ADD PUSH1 0x40 MLOAD SWAP1 DUP2 ADD PUSH1 0x40 MSTORE DUP1 SWAP3 SWAP2 SWAP1 DUP2 DUP2 MSTORE PUSH1 0x20 ADD DUP3 DUP1 SLOAD PUSH1 0x1 DUP2 PUSH1 0x1 AND ISZERO PUSH2 0x100 MUL SUB AND PUSH1 0x2 SWAP1 DIV DUP1 ISZERO PUSH2 0x15C4 JUMPI DUP1 PUSH1 0x1F LT PUSH2 0x1599 JUMPI PUSH2 0x100 DUP1 DUP4 SLOAD DIV MUL DUP4 MSTORE SWAP2 PUSH1 0x20 ADD SWAP2 PUSH2 0x15C4 JUMP JUMPDEST DUP3 ADD SWAP2 SWAP1 PUSH1 0x0 MSTORE PUSH1 0x20 PUSH1 0x0 KECCAK256 SWAP1 JUMPDEST DUP2 SLOAD DUP2 MSTORE SWAP1 PUSH1 0x1 ADD SWAP1 PUSH1 0x20 ADD DUP1 DUP4 GT PUSH2 0x15A7 JUMPI DUP3 SWAP1 SUB PUSH1 0x1F AND DUP3 ADD SWAP2 JUMPDEST POP POP POP POP POP SWAP1 POP SWAP1 JUMP JUMPDEST PUSH1 0x0 PUSH2 0x15D8 PUSH2 0x1E33 JUMP JUMPDEST PUSH20 0xFFFFFFFFFFFFFFFFFFFFFFFFFFFFFFFFFFFFFFFF AND PUSH1 0x0 DUP1 SLOAD SWAP1 PUSH2 0x100 EXP SWAP1 DIV PUSH20 0xFFFFFFFFFFFFFFFFFFFFFFFFFFFFFFFFFFFFFFFF AND PUSH20 0xFFFFFFFFFFFFFFFFFFFFFFFFFFFFFFFFFFFFFFFF AND EQ PUSH2 0x1698 JUMPI PUSH1 0x40 MLOAD PUSH32 0x8C379A000000000000000000000000000000000000000000000000000000000 DUP2 MSTORE PUSH1 0x4 ADD DUP1 DUP1 PUSH1 0x20 ADD DUP3 DUP2 SUB DUP3 MSTORE PUSH1 0x20 DUP2 MSTORE PUSH1 0x20 ADD DUP1 PUSH32 0x4F776E61626C653A2063616C6C6572206973206E6F7420746865206F776E6572 DUP2 MSTORE POP PUSH1 0x20 ADD SWAP2 POP POP PUSH1 0x40 MLOAD DUP1 SWAP2 SUB SWAP1 REVERT JUMPDEST PUSH2 0x16A9 PUSH2 0x16A3 PUSH2 0x1E33 JUMP JUMPDEST DUP4 PUSH2 0x23AC JUMP JUMPDEST POP PUSH1 0x1 SWAP1 POP SWAP2 SWAP1 POP JUMP JUMPDEST PUSH1 0x0 PUSH2 0x1776 PUSH2 0x16C0 PUSH2 0x1E33 JUMP JUMPDEST DUP5 PUSH2 0x1771 DUP6 PUSH1 0x40 MLOAD DUP1 PUSH1 0x60 ADD PUSH1 0x40 MSTORE DUP1 PUSH1 0x25 DUP2 MSTORE PUSH1 0x20 ADD PUSH2 0x3001 PUSH1 0x25 SWAP2 CODECOPY PUSH1 0x2 PUSH1 0x0 PUSH2 0x16EA PUSH2 0x1E33 JUMP JUMPDEST PUSH20 0xFFFFFFFFFFFFFFFFFFFFFFFFFFFFFFFFFFFFFFFF AND PUSH20 0xFFFFFFFFFFFFFFFFFFFFFFFFFFFFFFFFFFFFFFFF AND DUP2 MSTORE PUSH1 0x20 ADD SWAP1 DUP2 MSTORE PUSH1 0x20 ADD PUSH1 0x0 KECCAK256 PUSH1 0x0 DUP11 PUSH20 0xFFFFFFFFFFFFFFFFFFFFFFFFFFFFFFFFFFFFFFFF AND PUSH20 0xFFFFFFFFFFFFFFFFFFFFFFFFFFFFFFFFFFFFFFFF AND DUP2 MSTORE PUSH1 0x20 ADD SWAP1 DUP2 MSTORE PUSH1 0x20 ADD PUSH1 0x0 KECCAK256 SLOAD PUSH2 0x22EC SWAP1 SWAP3 SWAP2 SWAP1 PUSH4 0xFFFFFFFF AND JUMP JUMPDEST PUSH2 0x1E3B JUMP JUMPDEST PUSH1 0x1 SWAP1 POP SWAP3 SWAP2 POP POP JUMP JUMPDEST PUSH1 0x0 PUSH2 0x1794 PUSH2 0x178D PUSH2 0x1E33 JUMP JUMPDEST DUP5 DUP5 PUSH2 0x2032 JUMP JUMPDEST PUSH1 0x1 SWAP1 POP SWAP3 SWAP2 POP POP JUMP JUMPDEST PUSH1 0x0 DUP1 PUSH1 0x9 PUSH1 0x0 DUP5 PUSH20 0xFFFFFFFFFFFFFFFFFFFFFFFFFFFFFFFFFFFFFFFF AND PUSH20 0xFFFFFFFFFFFFFFFFFFFFFFFFFFFFFFFFFFFFFFFF AND DUP2 MSTORE PUSH1 0x20 ADD SWAP1 DUP2 MSTORE PUSH1 0x20 ADD PUSH1 0x0 KECCAK256 PUSH1 0x0 SWAP1 SLOAD SWAP1 PUSH2 0x100 EXP SWAP1 DIV PUSH4 0xFFFFFFFF AND SWAP1 POP PUSH1 0x0 DUP2 PUSH4 0xFFFFFFFF AND GT PUSH2 0x1808 JUMPI PUSH1 0x0 PUSH2 0x186C JUMP JUMPDEST PUSH1 0x8 PUSH1 0x0 DUP5 PUSH20 0xFFFFFFFFFFFFFFFFFFFFFFFFFFFFFFFFFFFFFFFF AND PUSH20 0xFFFFFFFFFFFFFFFFFFFFFFFFFFFFFFFFFFFFFFFF AND DUP2 MSTORE PUSH1 0x20 ADD SWAP1 DUP2 MSTORE PUSH1 0x20 ADD PUSH1 0x0 KECCAK256 PUSH1 0x0 PUSH1 0x1 DUP4 SUB PUSH4 0xFFFFFFFF AND PUSH4 0xFFFFFFFF AND DUP2 MSTORE PUSH1 0x20 ADD SWAP1 DUP2 MSTORE PUSH1 0x20 ADD PUSH1 0x0 KECCAK256 PUSH1 0x1 ADD SLOAD JUMPDEST SWAP2 POP POP SWAP2 SWAP1 POP JUMP JUMPDEST PUSH1 0x0 PUSH32 0x8CAD95687BA82C2CE50E74F7B754645E5117C3A5BEC8151C0726D5857980A866 PUSH2 0x189F PUSH2 0xACD JUMP JUMPDEST DUP1 MLOAD SWAP1 PUSH1 0x20 ADD KECCAK256 PUSH2 0x18AE PUSH2 0x29AB JUMP JUMPDEST ADDRESS PUSH1 0x40 MLOAD PUSH1 0x20 ADD DUP1 DUP6 DUP2 MSTORE PUSH1 0x20 ADD DUP5 DUP2 MSTORE PUSH1 0x20 ADD DUP4 DUP2 MSTORE PUSH1 0x20 ADD DUP3 PUSH20 0xFFFFFFFFFFFFFFFFFFFFFFFFFFFFFFFFFFFFFFFF AND DUP2 MSTORE PUSH1 0x20 ADD SWAP5 POP POP POP POP POP PUSH1 0x40 MLOAD PUSH1 0x20 DUP2 DUP4 SUB SUB DUP2 MSTORE SWAP1 PUSH1 0x40 MSTORE DUP1 MLOAD SWAP1 PUSH1 0x20 ADD KECCAK256 SWAP1 POP PUSH1 0x0 PUSH32 0xE48329057BFD03D55E49B547132E39CFFD9C1820AD7B9D4C5307691425D15ADF DUP9 DUP9 DUP9 PUSH1 0x40 MLOAD PUSH1 0x20 ADD DUP1 DUP6 DUP2 MSTORE PUSH1 0x20 ADD DUP5 PUSH20 0xFFFFFFFFFFFFFFFFFFFFFFFFFFFFFFFFFFFFFFFF AND DUP2 MSTORE PUSH1 0x20 ADD DUP4 DUP2 MSTORE PUSH1 0x20 ADD DUP3 DUP2 MSTORE PUSH1 0x20 ADD SWAP5 POP POP POP POP POP PUSH1 0x40 MLOAD PUSH1 0x20 DUP2 DUP4 SUB SUB DUP2 MSTORE SWAP1 PUSH1 0x40 MSTORE DUP1 MLOAD SWAP1 PUSH1 0x20 ADD KECCAK256 SWAP1 POP PUSH1 0x0 DUP3 DUP3 PUSH1 0x40 MLOAD PUSH1 0x20 ADD DUP1 DUP1 PUSH32 0x1901000000000000000000000000000000000000000000000000000000000000 DUP2 MSTORE POP PUSH1 0x2 ADD DUP4 DUP2 MSTORE PUSH1 0x20 ADD DUP3 DUP2 MSTORE PUSH1 0x20 ADD SWAP3 POP POP POP PUSH1 0x40 MLOAD PUSH1 0x20 DUP2 DUP4 SUB SUB DUP2 MSTORE SWAP1 PUSH1 0x40 MSTORE DUP1 MLOAD SWAP1 PUSH1 0x20 ADD KECCAK256 SWAP1 POP PUSH1 0x0 PUSH1 0x1 DUP3 DUP9 DUP9 DUP9 PUSH1 0x40 MLOAD PUSH1 0x0 DUP2 MSTORE PUSH1 0x20 ADD PUSH1 0x40 MSTORE PUSH1 0x40 MLOAD DUP1 DUP6 DUP2 MSTORE PUSH1 0x20 ADD DUP5 PUSH1 0xFF AND DUP2 MSTORE PUSH1 0x20 ADD DUP4 DUP2 MSTORE PUSH1 0x20 ADD DUP3 DUP2 MSTORE PUSH1 0x20 ADD SWAP5 POP POP POP POP POP PUSH1 0x20 PUSH1 0x40 MLOAD PUSH1 0x20 DUP2 SUB SWAP1 DUP1 DUP5 SUB SWAP1 DUP6 GAS STATICCALL ISZERO DUP1 ISZERO PUSH2 0x1A32 JUMPI RETURNDATASIZE PUSH1 0x0 DUP1 RETURNDATACOPY RETURNDATASIZE PUSH1 0x0 REVERT JUMPDEST POP POP POP PUSH1 0x20 PUSH1 0x40 MLOAD SUB MLOAD SWAP1 POP PUSH1 0x0 PUSH20 0xFFFFFFFFFFFFFFFFFFFFFFFFFFFFFFFFFFFFFFFF AND DUP2 PUSH20 0xFFFFFFFFFFFFFFFFFFFFFFFFFFFFFFFFFFFFFFFF AND EQ ISZERO PUSH2 0x1AC4 JUMPI PUSH1 0x40 MLOAD PUSH32 0x8C379A000000000000000000000000000000000000000000000000000000000 DUP2 MSTORE PUSH1 0x4 ADD DUP1 DUP1 PUSH1 0x20 ADD DUP3 DUP2 SUB DUP3 MSTORE PUSH1 0x25 DUP2 MSTORE PUSH1 0x20 ADD DUP1 PUSH2 0x3059 PUSH1 0x25 SWAP2 CODECOPY PUSH1 0x40 ADD SWAP2 POP POP PUSH1 0x40 MLOAD DUP1 SWAP2 SUB SWAP1 REVERT JUMPDEST PUSH1 0xA PUSH1 0x0 DUP3 PUSH20 0xFFFFFFFFFFFFFFFFFFFFFFFFFFFFFFFFFFFFFFFF AND PUSH20 0xFFFFFFFFFFFFFFFFFFFFFFFFFFFFFFFFFFFFFFFF AND DUP2 MSTORE PUSH1 0x20 ADD SWAP1 DUP2 MSTORE PUSH1 0x20 ADD PUSH1 0x0 KECCAK256 PUSH1 0x0 DUP2 SLOAD DUP1 SWAP3 SWAP2 SWAP1 PUSH1 0x1 ADD SWAP2 SWAP1 POP SSTORE DUP10 EQ PUSH2 0x1B69 JUMPI PUSH1 0x40 MLOAD PUSH32 0x8C379A000000000000000000000000000000000000000000000000000000000 DUP2 MSTORE PUSH1 0x4 ADD DUP1 DUP1 PUSH1 0x20 ADD DUP3 DUP2 SUB DUP3 MSTORE PUSH1 0x21 DUP2 MSTORE PUSH1 0x20 ADD DUP1 PUSH2 0x2F4C PUSH1 0x21 SWAP2 CODECOPY PUSH1 0x40 ADD SWAP2 POP POP PUSH1 0x40 MLOAD DUP1 SWAP2 SUB SWAP1 REVERT JUMPDEST DUP8 TIMESTAMP GT ISZERO PUSH2 0x1BC2 JUMPI PUSH1 0x40 MLOAD PUSH32 0x8C379A000000000000000000000000000000000000000000000000000000000 DUP2 MSTORE PUSH1 0x4 ADD DUP1 DUP1 PUSH1 0x20 ADD DUP3 DUP2 SUB DUP3 MSTORE PUSH1 0x25 DUP2 MSTORE PUSH1 0x20 ADD DUP1 PUSH2 0x2F93 PUSH1 0x25 SWAP2 CODECOPY PUSH1 0x40 ADD SWAP2 POP POP PUSH1 0x40 MLOAD DUP1 SWAP2 SUB SWAP1 REVERT JUMPDEST PUSH2 0x1BCC DUP2 DUP12 PUSH2 0x283A JUMP JUMPDEST POP POP POP POP POP POP POP POP POP POP JUMP JUMPDEST PUSH1 0x0 PUSH11 0x84595161401484A000000 SWAP1 POP SWAP1 JUMP JUMPDEST PUSH1 0x0 PUSH1 0x2 PUSH1 0x0 DUP5 PUSH20 0xFFFFFFFFFFFFFFFFFFFFFFFFFFFFFFFFFFFFFFFF AND PUSH20 0xFFFFFFFFFFFFFFFFFFFFFFFFFFFFFFFFFFFFFFFF AND DUP2 MSTORE PUSH1 0x20 ADD SWAP1 DUP2 MSTORE PUSH1 0x20 ADD PUSH1 0x0 KECCAK256 PUSH1 0x0 DUP4 PUSH20 0xFFFFFFFFFFFFFFFFFFFFFFFFFFFFFFFFFFFFFFFF AND PUSH20 0xFFFFFFFFFFFFFFFFFFFFFFFFFFFFFFFFFFFFFFFF AND DUP2 MSTORE PUSH1 0x20 ADD SWAP1 DUP2 MSTORE PUSH1 0x20 ADD PUSH1 0x0 KECCAK256 SLOAD SWAP1 POP SWAP3 SWAP2 POP POP JUMP JUMPDEST PUSH32 0xE48329057BFD03D55E49B547132E39CFFD9C1820AD7B9D4C5307691425D15ADF DUP2 JUMP JUMPDEST PUSH1 0x8 PUSH1 0x20 MSTORE DUP2 PUSH1 0x0 MSTORE PUSH1 0x40 PUSH1 0x0 KECCAK256 PUSH1 0x20 MSTORE DUP1 PUSH1 0x0 MSTORE PUSH1 0x40 PUSH1 0x0 KECCAK256 PUSH1 0x0 SWAP2 POP SWAP2 POP POP DUP1 PUSH1 0x0 ADD PUSH1 0x0 SWAP1 SLOAD SWAP1 PUSH2 0x100 EXP SWAP1 DIV PUSH4 0xFFFFFFFF AND SWAP1 DUP1 PUSH1 0x1 ADD SLOAD SWAP1 POP DUP3 JUMP JUMPDEST PUSH2 0x1CDF PUSH2 0x1E33 JUMP JUMPDEST PUSH20 0xFFFFFFFFFFFFFFFFFFFFFFFFFFFFFFFFFFFFFFFF AND PUSH1 0x0 DUP1 SLOAD SWAP1 PUSH2 0x100 EXP SWAP1 DIV PUSH20 0xFFFFFFFFFFFFFFFFFFFFFFFFFFFFFFFFFFFFFFFF AND PUSH20 0xFFFFFFFFFFFFFFFFFFFFFFFFFFFFFFFFFFFFFFFF AND EQ PUSH2 0x1D9F JUMPI PUSH1 0x40 MLOAD PUSH32 0x8C379A000000000000000000000000000000000000000000000000000000000 DUP2 MSTORE PUSH1 0x4 ADD DUP1 DUP1 PUSH1 0x20 ADD DUP3 DUP2 SUB DUP3 MSTORE PUSH1 0x20 DUP2 MSTORE PUSH1 0x20 ADD DUP1 PUSH32 0x4F776E61626C653A2063616C6C6572206973206E6F7420746865206F776E6572 DUP2 MSTORE POP PUSH1 0x20 ADD SWAP2 POP POP PUSH1 0x40 MLOAD DUP1 SWAP2 SUB SWAP1 REVERT JUMPDEST PUSH2 0x1DA8 DUP2 PUSH2 0x29B8 JUMP JUMPDEST POP JUMP JUMPDEST PUSH1 0x0 DUP1 DUP3 DUP5 ADD SWAP1 POP DUP4 DUP2 LT ISZERO PUSH2 0x1E29 JUMPI PUSH1 0x40 MLOAD PUSH32 0x8C379A000000000000000000000000000000000000000000000000000000000 DUP2 MSTORE PUSH1 0x4 ADD DUP1 DUP1 PUSH1 0x20 ADD DUP3 DUP2 SUB DUP3 MSTORE PUSH1 0x1B DUP2 MSTORE PUSH1 0x20 ADD DUP1 PUSH32 0x536166654D6174683A206164646974696F6E206F766572666C6F770000000000 DUP2 MSTORE POP PUSH1 0x20 ADD SWAP2 POP POP PUSH1 0x40 MLOAD DUP1 SWAP2 SUB SWAP1 REVERT JUMPDEST DUP1 SWAP2 POP POP SWAP3 SWAP2 POP POP JUMP JUMPDEST PUSH1 0x0 CALLER SWAP1 POP SWAP1 JUMP JUMPDEST PUSH1 0x0 PUSH20 0xFFFFFFFFFFFFFFFFFFFFFFFFFFFFFFFFFFFFFFFF AND DUP4 PUSH20 0xFFFFFFFFFFFFFFFFFFFFFFFFFFFFFFFFFFFFFFFF AND EQ ISZERO PUSH2 0x1EC1 JUMPI PUSH1 0x40 MLOAD PUSH32 0x8C379A000000000000000000000000000000000000000000000000000000000 DUP2 MSTORE PUSH1 0x4 ADD DUP1 DUP1 PUSH1 0x20 ADD DUP3 DUP2 SUB DUP3 MSTORE PUSH1 0x24 DUP2 MSTORE PUSH1 0x20 ADD DUP1 PUSH2 0x2EDA PUSH1 0x24 SWAP2 CODECOPY PUSH1 0x40 ADD SWAP2 POP POP PUSH1 0x40 MLOAD DUP1 SWAP2 SUB SWAP1 REVERT JUMPDEST PUSH1 0x0 PUSH20 0xFFFFFFFFFFFFFFFFFFFFFFFFFFFFFFFFFFFFFFFF AND DUP3 PUSH20 0xFFFFFFFFFFFFFFFFFFFFFFFFFFFFFFFFFFFFFFFF AND EQ ISZERO PUSH2 0x1F47 JUMPI PUSH1 0x40 MLOAD PUSH32 0x8C379A000000000000000000000000000000000000000000000000000000000 DUP2 MSTORE PUSH1 0x4 ADD DUP1 DUP1 PUSH1 0x20 ADD DUP3 DUP2 SUB DUP3 MSTORE PUSH1 0x22 DUP2 MSTORE PUSH1 0x20 ADD DUP1 PUSH2 0x307E PUSH1 0x22 SWAP2 CODECOPY PUSH1 0x40 ADD SWAP2 POP POP PUSH1 0x40 MLOAD DUP1 SWAP2 SUB SWAP1 REVERT JUMPDEST DUP1 PUSH1 0x2 PUSH1 0x0 DUP6 PUSH20 0xFFFFFFFFFFFFFFFFFFFFFFFFFFFFFFFFFFFFFFFF AND PUSH20 0xFFFFFFFFFFFFFFFFFFFFFFFFFFFFFFFFFFFFFFFF AND DUP2 MSTORE PUSH1 0x20 ADD SWAP1 DUP2 MSTORE PUSH1 0x20 ADD PUSH1 0x0 KECCAK256 PUSH1 0x0 DUP5 PUSH20 0xFFFFFFFFFFFFFFFFFFFFFFFFFFFFFFFFFFFFFFFF AND PUSH20 0xFFFFFFFFFFFFFFFFFFFFFFFFFFFFFFFFFFFFFFFF AND DUP2 MSTORE PUSH1 0x20 ADD SWAP1 DUP2 MSTORE PUSH1 0x20 ADD PUSH1 0x0 KECCAK256 DUP2 SWAP1 SSTORE POP DUP2 PUSH20 0xFFFFFFFFFFFFFFFFFFFFFFFFFFFFFFFFFFFFFFFF AND DUP4 PUSH20 0xFFFFFFFFFFFFFFFFFFFFFFFFFFFFFFFFFFFFFFFF AND PUSH32 0x8C5BE1E5EBEC7D5BD14F71427D1E84F3DD0314C0F7B2291E5B200AC8C7C3B925 DUP4 PUSH1 0x40 MLOAD DUP1 DUP3 DUP2 MSTORE PUSH1 0x20 ADD SWAP2 POP POP PUSH1 0x40 MLOAD DUP1 SWAP2 SUB SWAP1 LOG3 POP POP POP JUMP JUMPDEST PUSH1 0x0 PUSH20 0xFFFFFFFFFFFFFFFFFFFFFFFFFFFFFFFFFFFFFFFF AND DUP4 PUSH20 0xFFFFFFFFFFFFFFFFFFFFFFFFFFFFFFFFFFFFFFFF AND EQ ISZERO PUSH2 0x20B8 JUMPI PUSH1 0x40 MLOAD PUSH32 0x8C379A000000000000000000000000000000000000000000000000000000000 DUP2 MSTORE PUSH1 0x4 ADD DUP1 DUP1 PUSH1 0x20 ADD DUP3 DUP2 SUB DUP3 MSTORE PUSH1 0x25 DUP2 MSTORE PUSH1 0x20 ADD DUP1 PUSH2 0x2EB5 PUSH1 0x25 SWAP2 CODECOPY PUSH1 0x40 ADD SWAP2 POP POP PUSH1 0x40 MLOAD DUP1 SWAP2 SUB SWAP1 REVERT JUMPDEST PUSH1 0x0 PUSH20 0xFFFFFFFFFFFFFFFFFFFFFFFFFFFFFFFFFFFFFFFF AND DUP3 PUSH20 0xFFFFFFFFFFFFFFFFFFFFFFFFFFFFFFFFFFFFFFFF AND EQ ISZERO PUSH2 0x213E JUMPI PUSH1 0x40 MLOAD PUSH32 0x8C379A000000000000000000000000000000000000000000000000000000000 DUP2 MSTORE PUSH1 0x4 ADD DUP1 DUP1 PUSH1 0x20 ADD DUP3 DUP2 SUB DUP3 MSTORE PUSH1 0x23 DUP2 MSTORE PUSH1 0x20 ADD DUP1 PUSH2 0x2FDE PUSH1 0x23 SWAP2 CODECOPY PUSH1 0x40 ADD SWAP2 POP POP PUSH1 0x40 MLOAD DUP1 SWAP2 SUB SWAP1 REVERT JUMPDEST PUSH2 0x21AA DUP2 PUSH1 0x40 MLOAD DUP1 PUSH1 0x60 ADD PUSH1 0x40 MSTORE DUP1 PUSH1 0x26 DUP2 MSTORE PUSH1 0x20 ADD PUSH2 0x2FB8 PUSH1 0x26 SWAP2 CODECOPY PUSH1 0x1 PUSH1 0x0 DUP8 PUSH20 0xFFFFFFFFFFFFFFFFFFFFFFFFFFFFFFFFFFFFFFFF AND PUSH20 0xFFFFFFFFFFFFFFFFFFFFFFFFFFFFFFFFFFFFFFFF AND DUP2 MSTORE PUSH1 0x20 ADD SWAP1 DUP2 MSTORE PUSH1 0x20 ADD PUSH1 0x0 KECCAK256 SLOAD PUSH2 0x22EC SWAP1 SWAP3 SWAP2 SWAP1 PUSH4 0xFFFFFFFF AND JUMP JUMPDEST PUSH1 0x1 PUSH1 0x0 DUP6 PUSH20 0xFFFFFFFFFFFFFFFFFFFFFFFFFFFFFFFFFFFFFFFF AND PUSH20 0xFFFFFFFFFFFFFFFFFFFFFFFFFFFFFFFFFFFFFFFF AND DUP2 MSTORE PUSH1 0x20 ADD SWAP1 DUP2 MSTORE PUSH1 0x20 ADD PUSH1 0x0 KECCAK256 DUP2 SWAP1 SSTORE POP PUSH2 0x223F DUP2 PUSH1 0x1 PUSH1 0x0 DUP6 PUSH20 0xFFFFFFFFFFFFFFFFFFFFFFFFFFFFFFFFFFFFFFFF AND PUSH20 0xFFFFFFFFFFFFFFFFFFFFFFFFFFFFFFFFFFFFFFFF AND DUP2 MSTORE PUSH1 0x20 ADD SWAP1 DUP2 MSTORE PUSH1 0x20 ADD PUSH1 0x0 KECCAK256 SLOAD PUSH2 0x1DAB SWAP1 SWAP2 SWAP1 PUSH4 0xFFFFFFFF AND JUMP JUMPDEST PUSH1 0x1 PUSH1 0x0 DUP5 PUSH20 0xFFFFFFFFFFFFFFFFFFFFFFFFFFFFFFFFFFFFFFFF AND PUSH20 0xFFFFFFFFFFFFFFFFFFFFFFFFFFFFFFFFFFFFFFFF AND DUP2 MSTORE PUSH1 0x20 ADD SWAP1 DUP2 MSTORE PUSH1 0x20 ADD PUSH1 0x0 KECCAK256 DUP2 SWAP1 SSTORE POP DUP2 PUSH20 0xFFFFFFFFFFFFFFFFFFFFFFFFFFFFFFFFFFFFFFFF AND DUP4 PUSH20 0xFFFFFFFFFFFFFFFFFFFFFFFFFFFFFFFFFFFFFFFF AND PUSH32 0xDDF252AD1BE2C89B69C2B068FC378DAA952BA7F163C4A11628F55A4DF523B3EF DUP4 PUSH1 0x40 MLOAD DUP1 DUP3 DUP2 MSTORE PUSH1 0x20 ADD SWAP2 POP POP PUSH1 0x40 MLOAD DUP1 SWAP2 SUB SWAP1 LOG3 POP POP POP JUMP JUMPDEST PUSH1 0x0 DUP4 DUP4 GT ISZERO DUP3 SWAP1 PUSH2 0x2399 JUMPI PUSH1 0x40 MLOAD PUSH32 0x8C379A000000000000000000000000000000000000000000000000000000000 DUP2 MSTORE PUSH1 0x4 ADD DUP1 DUP1 PUSH1 0x20 ADD DUP3 DUP2 SUB DUP3 MSTORE DUP4 DUP2 DUP2 MLOAD DUP2 MSTORE PUSH1 0x20 ADD SWAP2 POP DUP1 MLOAD SWAP1 PUSH1 0x20 ADD SWAP1 DUP1 DUP4 DUP4 PUSH1 0x0 JUMPDEST DUP4 DUP2 LT ISZERO PUSH2 0x235E JUMPI DUP1 DUP3 ADD MLOAD DUP2 DUP5 ADD MSTORE PUSH1 0x20 DUP2 ADD SWAP1 POP PUSH2 0x2343 JUMP JUMPDEST POP POP POP POP SWAP1 POP SWAP1 DUP2 ADD SWAP1 PUSH1 0x1F AND DUP1 ISZERO PUSH2 0x238B JUMPI DUP1 DUP3 SUB DUP1 MLOAD PUSH1 0x1 DUP4 PUSH1 0x20 SUB PUSH2 0x100 EXP SUB NOT AND DUP2 MSTORE PUSH1 0x20 ADD SWAP2 POP JUMPDEST POP SWAP3 POP POP POP PUSH1 0x40 MLOAD DUP1 SWAP2 SUB SWAP1 REVERT JUMPDEST POP PUSH1 0x0 DUP4 DUP6 SUB SWAP1 POP DUP1 SWAP2 POP POP SWAP4 SWAP3 POP POP POP JUMP JUMPDEST PUSH1 0x0 DUP1 PUSH20 0xFFFFFFFFFFFFFFFFFFFFFFFFFFFFFFFFFFFFFFFF AND DUP4 PUSH20 0xFFFFFFFFFFFFFFFFFFFFFFFFFFFFFFFFFFFFFFFF AND EQ ISZERO PUSH2 0x2450 JUMPI PUSH1 0x40 MLOAD PUSH32 0x8C379A000000000000000000000000000000000000000000000000000000000 DUP2 MSTORE PUSH1 0x4 ADD DUP1 DUP1 PUSH1 0x20 ADD DUP3 DUP2 SUB DUP3 MSTORE PUSH1 0x1F DUP2 MSTORE PUSH1 0x20 ADD DUP1 PUSH32 0x42455032303A206D696E7420746F20746865207A65726F206164647265737300 DUP2 MSTORE POP PUSH1 0x20 ADD SWAP2 POP POP PUSH1 0x40 MLOAD DUP1 SWAP2 SUB SWAP1 REVERT JUMPDEST PUSH11 0x84595161401484A000000 PUSH2 0x2471 PUSH1 0x3 SLOAD DUP5 PUSH2 0x1DAB SWAP1 SWAP2 SWAP1 PUSH4 0xFFFFFFFF AND JUMP JUMPDEST GT ISZERO PUSH2 0x2480 JUMPI PUSH1 0x0 SWAP1 POP PUSH2 0x2597 JUMP JUMPDEST PUSH2 0x2495 DUP3 PUSH1 0x3 SLOAD PUSH2 0x1DAB SWAP1 SWAP2 SWAP1 PUSH4 0xFFFFFFFF AND JUMP JUMPDEST PUSH1 0x3 DUP2 SWAP1 SSTORE POP PUSH2 0x24ED DUP3 PUSH1 0x1 PUSH1 0x0 DUP7 PUSH20 0xFFFFFFFFFFFFFFFFFFFFFFFFFFFFFFFFFFFFFFFF AND PUSH20 0xFFFFFFFFFFFFFFFFFFFFFFFFFFFFFFFFFFFFFFFF AND DUP2 MSTORE PUSH1 0x20 ADD SWAP1 DUP2 MSTORE PUSH1 0x20 ADD PUSH1 0x0 KECCAK256 SLOAD PUSH2 0x1DAB SWAP1 SWAP2 SWAP1 PUSH4 0xFFFFFFFF AND JUMP JUMPDEST PUSH1 0x1 PUSH1 0x0 DUP6 PUSH20 0xFFFFFFFFFFFFFFFFFFFFFFFFFFFFFFFFFFFFFFFF AND PUSH20 0xFFFFFFFFFFFFFFFFFFFFFFFFFFFFFFFFFFFFFFFF AND DUP2 MSTORE PUSH1 0x20 ADD SWAP1 DUP2 MSTORE PUSH1 0x20 ADD PUSH1 0x0 KECCAK256 DUP2 SWAP1 SSTORE POP DUP3 PUSH20 0xFFFFFFFFFFFFFFFFFFFFFFFFFFFFFFFFFFFFFFFF AND PUSH1 0x0 PUSH20 0xFFFFFFFFFFFFFFFFFFFFFFFFFFFFFFFFFFFFFFFF AND PUSH32 0xDDF252AD1BE2C89B69C2B068FC378DAA952BA7F163C4A11628F55A4DF523B3EF DUP5 PUSH1 0x40 MLOAD DUP1 DUP3 DUP2 MSTORE PUSH1 0x20 ADD SWAP2 POP POP PUSH1 0x40 MLOAD DUP1 SWAP2 SUB SWAP1 LOG3 JUMPDEST SWAP3 SWAP2 POP POP JUMP JUMPDEST DUP2 PUSH20 0xFFFFFFFFFFFFFFFFFFFFFFFFFFFFFFFFFFFFFFFF AND DUP4 PUSH20 0xFFFFFFFFFFFFFFFFFFFFFFFFFFFFFFFFFFFFFFFF AND EQ ISZERO DUP1 ISZERO PUSH2 0x25D9 JUMPI POP PUSH1 0x0 DUP2 GT JUMPDEST ISZERO PUSH2 0x2835 JUMPI PUSH1 0x0 PUSH20 0xFFFFFFFFFFFFFFFFFFFFFFFFFFFFFFFFFFFFFFFF AND DUP4 PUSH20 0xFFFFFFFFFFFFFFFFFFFFFFFFFFFFFFFFFFFFFFFF AND EQ PUSH2 0x2709 JUMPI PUSH1 0x0 PUSH1 0x9 PUSH1 0x0 DUP6 PUSH20 0xFFFFFFFFFFFFFFFFFFFFFFFFFFFFFFFFFFFFFFFF AND PUSH20 0xFFFFFFFFFFFFFFFFFFFFFFFFFFFFFFFFFFFFFFFF AND DUP2 MSTORE PUSH1 0x20 ADD SWAP1 DUP2 MSTORE PUSH1 0x20 ADD PUSH1 0x0 KECCAK256 PUSH1 0x0 SWAP1 SLOAD SWAP1 PUSH2 0x100 EXP SWAP1 DIV PUSH4 0xFFFFFFFF AND SWAP1 POP PUSH1 0x0 DUP1 DUP3 PUSH4 0xFFFFFFFF AND GT PUSH2 0x267C JUMPI PUSH1 0x0 PUSH2 0x26E0 JUMP JUMPDEST PUSH1 0x8 PUSH1 0x0 DUP7 PUSH20 0xFFFFFFFFFFFFFFFFFFFFFFFFFFFFFFFFFFFFFFFF AND PUSH20 0xFFFFFFFFFFFFFFFFFFFFFFFFFFFFFFFFFFFFFFFF AND DUP2 MSTORE PUSH1 0x20 ADD SWAP1 DUP2 MSTORE PUSH1 0x20 ADD PUSH1 0x0 KECCAK256 PUSH1 0x0 PUSH1 0x1 DUP5 SUB PUSH4 0xFFFFFFFF AND PUSH4 0xFFFFFFFF AND DUP2 MSTORE PUSH1 0x20 ADD SWAP1 DUP2 MSTORE PUSH1 0x20 ADD PUSH1 0x0 KECCAK256 PUSH1 0x1 ADD SLOAD JUMPDEST SWAP1 POP PUSH1 0x0 PUSH2 0x26F7 DUP5 DUP4 PUSH2 0x2AFB SWAP1 SWAP2 SWAP1 PUSH4 0xFFFFFFFF AND JUMP JUMPDEST SWAP1 POP PUSH2 0x2705 DUP7 DUP5 DUP5 DUP5 PUSH2 0x2B45 JUMP JUMPDEST POP POP POP JUMPDEST PUSH1 0x0 PUSH20 0xFFFFFFFFFFFFFFFFFFFFFFFFFFFFFFFFFFFFFFFF AND DUP3 PUSH20 0xFFFFFFFFFFFFFFFFFFFFFFFFFFFFFFFFFFFFFFFF AND EQ PUSH2 0x2834 JUMPI PUSH1 0x0 PUSH1 0x9 PUSH1 0x0 DUP5 PUSH20 0xFFFFFFFFFFFFFFFFFFFFFFFFFFFFFFFFFFFFFFFF AND PUSH20 0xFFFFFFFFFFFFFFFFFFFFFFFFFFFFFFFFFFFFFFFF AND DUP2 MSTORE PUSH1 0x20 ADD SWAP1 DUP2 MSTORE PUSH1 0x20 ADD PUSH1 0x0 KECCAK256 PUSH1 0x0 SWAP1 SLOAD SWAP1 PUSH2 0x100 EXP SWAP1 DIV PUSH4 0xFFFFFFFF AND SWAP1 POP PUSH1 0x0 DUP1 DUP3 PUSH4 0xFFFFFFFF AND GT PUSH2 0x27A7 JUMPI PUSH1 0x0 PUSH2 0x280B JUMP JUMPDEST PUSH1 0x8 PUSH1 0x0 DUP6 PUSH20 0xFFFFFFFFFFFFFFFFFFFFFFFFFFFFFFFFFFFFFFFF AND PUSH20 0xFFFFFFFFFFFFFFFFFFFFFFFFFFFFFFFFFFFFFFFF AND DUP2 MSTORE PUSH1 0x20 ADD SWAP1 DUP2 MSTORE PUSH1 0x20 ADD PUSH1 0x0 KECCAK256 PUSH1 0x0 PUSH1 0x1 DUP5 SUB PUSH4 0xFFFFFFFF AND PUSH4 0xFFFFFFFF AND DUP2 MSTORE PUSH1 0x20 ADD SWAP1 DUP2 MSTORE PUSH1 0x20 ADD PUSH1 0x0 KECCAK256 PUSH1 0x1 ADD SLOAD JUMPDEST SWAP1 POP PUSH1 0x0 PUSH2 0x2822 DUP5 DUP4 PUSH2 0x1DAB SWAP1 SWAP2 SWAP1 PUSH4 0xFFFFFFFF AND JUMP JUMPDEST SWAP1 POP PUSH2 0x2830 DUP6 DUP5 DUP5 DUP5 PUSH2 0x2B45 JUMP JUMPDEST POP POP POP JUMPDEST JUMPDEST POP POP POP JUMP JUMPDEST PUSH1 0x0 PUSH1 0x7 PUSH1 0x0 DUP5 PUSH20 0xFFFFFFFFFFFFFFFFFFFFFFFFFFFFFFFFFFFFFFFF AND PUSH20 0xFFFFFFFFFFFFFFFFFFFFFFFFFFFFFFFFFFFFFFFF AND DUP2 MSTORE PUSH1 0x20 ADD SWAP1 DUP2 MSTORE PUSH1 0x20 ADD PUSH1 0x0 KECCAK256 PUSH1 0x0 SWAP1 SLOAD SWAP1 PUSH2 0x100 EXP SWAP1 DIV PUSH20 0xFFFFFFFFFFFFFFFFFFFFFFFFFFFFFFFFFFFFFFFF AND SWAP1 POP PUSH1 0x0 PUSH2 0x28A9 DUP5 PUSH2 0xF4C JUMP JUMPDEST SWAP1 POP DUP3 PUSH1 0x7 PUSH1 0x0 DUP7 PUSH20 0xFFFFFFFFFFFFFFFFFFFFFFFFFFFFFFFFFFFFFFFF AND PUSH20 0xFFFFFFFFFFFFFFFFFFFFFFFFFFFFFFFFFFFFFFFF AND DUP2 MSTORE PUSH1 0x20 ADD SWAP1 DUP2 MSTORE PUSH1 0x20 ADD PUSH1 0x0 KECCAK256 PUSH1 0x0 PUSH2 0x100 EXP DUP2 SLOAD DUP2 PUSH20 0xFFFFFFFFFFFFFFFFFFFFFFFFFFFFFFFFFFFFFFFF MUL NOT AND SWAP1 DUP4 PUSH20 0xFFFFFFFFFFFFFFFFFFFFFFFFFFFFFFFFFFFFFFFF AND MUL OR SWAP1 SSTORE POP DUP3 PUSH20 0xFFFFFFFFFFFFFFFFFFFFFFFFFFFFFFFFFFFFFFFF AND DUP3 PUSH20 0xFFFFFFFFFFFFFFFFFFFFFFFFFFFFFFFFFFFFFFFF AND DUP6 PUSH20 0xFFFFFFFFFFFFFFFFFFFFFFFFFFFFFFFFFFFFFFFF AND PUSH32 0x3134E8A2E6D97E929A7E54011EA5485D7D196DD5F0BA4D4EF95803E8E3FC257F PUSH1 0x40 MLOAD PUSH1 0x40 MLOAD DUP1 SWAP2 SUB SWAP1 LOG4 PUSH2 0x29A5 DUP3 DUP5 DUP4 PUSH2 0x259D JUMP JUMPDEST POP POP POP POP JUMP JUMPDEST PUSH1 0x0 DUP1 CHAINID SWAP1 POP DUP1 SWAP2 POP POP SWAP1 JUMP JUMPDEST PUSH1 0x0 PUSH20 0xFFFFFFFFFFFFFFFFFFFFFFFFFFFFFFFFFFFFFFFF AND DUP2 PUSH20 0xFFFFFFFFFFFFFFFFFFFFFFFFFFFFFFFFFFFFFFFF AND EQ ISZERO PUSH2 0x2A3E JUMPI PUSH1 0x40 MLOAD PUSH32 0x8C379A000000000000000000000000000000000000000000000000000000000 DUP2 MSTORE PUSH1 0x4 ADD DUP1 DUP1 PUSH1 0x20 ADD DUP3 DUP2 SUB DUP3 MSTORE PUSH1 0x26 DUP2 MSTORE PUSH1 0x20 ADD DUP1 PUSH2 0x2EFE PUSH1 0x26 SWAP2 CODECOPY PUSH1 0x40 ADD SWAP2 POP POP PUSH1 0x40 MLOAD DUP1 SWAP2 SUB SWAP1 REVERT JUMPDEST DUP1 PUSH20 0xFFFFFFFFFFFFFFFFFFFFFFFFFFFFFFFFFFFFFFFF AND PUSH1 0x0 DUP1 SLOAD SWAP1 PUSH2 0x100 EXP SWAP1 DIV PUSH20 0xFFFFFFFFFFFFFFFFFFFFFFFFFFFFFFFFFFFFFFFF AND PUSH20 0xFFFFFFFFFFFFFFFFFFFFFFFFFFFFFFFFFFFFFFFF AND PUSH32 0x8BE0079C531659141344CD1FD0A4F28419497F9722A3DAAFE3B4186F6B6457E0 PUSH1 0x40 MLOAD PUSH1 0x40 MLOAD DUP1 SWAP2 SUB SWAP1 LOG3 DUP1 PUSH1 0x0 DUP1 PUSH2 0x100 EXP DUP2 SLOAD DUP2 PUSH20 0xFFFFFFFFFFFFFFFFFFFFFFFFFFFFFFFFFFFFFFFF MUL NOT AND SWAP1 DUP4 PUSH20 0xFFFFFFFFFFFFFFFFFFFFFFFFFFFFFFFFFFFFFFFF AND MUL OR SWAP1 SSTORE POP POP JUMP JUMPDEST PUSH1 0x0 PUSH2 0x2B3D DUP4 DUP4 PUSH1 0x40 MLOAD DUP1 PUSH1 0x40 ADD PUSH1 0x40 MSTORE DUP1 PUSH1 0x1E DUP2 MSTORE PUSH1 0x20 ADD PUSH32 0x536166654D6174683A207375627472616374696F6E206F766572666C6F770000 DUP2 MSTORE POP PUSH2 0x22EC JUMP JUMPDEST SWAP1 POP SWAP3 SWAP2 POP POP JUMP JUMPDEST PUSH1 0x0 PUSH2 0x2B69 NUMBER PUSH1 0x40 MLOAD DUP1 PUSH1 0x60 ADD PUSH1 0x40 MSTORE DUP1 PUSH1 0x33 DUP2 MSTORE PUSH1 0x20 ADD PUSH2 0x3026 PUSH1 0x33 SWAP2 CODECOPY PUSH2 0x2DD9 JUMP JUMPDEST SWAP1 POP PUSH1 0x0 DUP5 PUSH4 0xFFFFFFFF AND GT DUP1 ISZERO PUSH2 0x2BFE JUMPI POP DUP1 PUSH4 0xFFFFFFFF AND PUSH1 0x8 PUSH1 0x0 DUP8 PUSH20 0xFFFFFFFFFFFFFFFFFFFFFFFFFFFFFFFFFFFFFFFF AND PUSH20 0xFFFFFFFFFFFFFFFFFFFFFFFFFFFFFFFFFFFFFFFF AND DUP2 MSTORE PUSH1 0x20 ADD SWAP1 DUP2 MSTORE PUSH1 0x20 ADD PUSH1 0x0 KECCAK256 PUSH1 0x0 PUSH1 0x1 DUP8 SUB PUSH4 0xFFFFFFFF AND PUSH4 0xFFFFFFFF AND DUP2 MSTORE PUSH1 0x20 ADD SWAP1 DUP2 MSTORE PUSH1 0x20 ADD PUSH1 0x0 KECCAK256 PUSH1 0x0 ADD PUSH1 0x0 SWAP1 SLOAD SWAP1 PUSH2 0x100 EXP SWAP1 DIV PUSH4 0xFFFFFFFF AND PUSH4 0xFFFFFFFF AND EQ JUMPDEST ISZERO PUSH2 0x2C6F JUMPI DUP2 PUSH1 0x8 PUSH1 0x0 DUP8 PUSH20 0xFFFFFFFFFFFFFFFFFFFFFFFFFFFFFFFFFFFFFFFF AND PUSH20 0xFFFFFFFFFFFFFFFFFFFFFFFFFFFFFFFFFFFFFFFF AND DUP2 MSTORE PUSH1 0x20 ADD SWAP1 DUP2 MSTORE PUSH1 0x20 ADD PUSH1 0x0 KECCAK256 PUSH1 0x0 PUSH1 0x1 DUP8 SUB PUSH4 0xFFFFFFFF AND PUSH4 0xFFFFFFFF AND DUP2 MSTORE PUSH1 0x20 ADD SWAP1 DUP2 MSTORE PUSH1 0x20 ADD PUSH1 0x0 KECCAK256 PUSH1 0x1 ADD DUP2 SWAP1 SSTORE POP PUSH2 0x2D7C JUMP JUMPDEST PUSH1 0x40 MLOAD DUP1 PUSH1 0x40 ADD PUSH1 0x40 MSTORE DUP1 DUP3 PUSH4 0xFFFFFFFF AND DUP2 MSTORE PUSH1 0x20 ADD DUP4 DUP2 MSTORE POP PUSH1 0x8 PUSH1 0x0 DUP8 PUSH20 0xFFFFFFFFFFFFFFFFFFFFFFFFFFFFFFFFFFFFFFFF AND PUSH20 0xFFFFFFFFFFFFFFFFFFFFFFFFFFFFFFFFFFFFFFFF AND DUP2 MSTORE PUSH1 0x20 ADD SWAP1 DUP2 MSTORE PUSH1 0x20 ADD PUSH1 0x0 KECCAK256 PUSH1 0x0 DUP7 PUSH4 0xFFFFFFFF AND PUSH4 0xFFFFFFFF AND DUP2 MSTORE PUSH1 0x20 ADD SWAP1 DUP2 MSTORE PUSH1 0x20 ADD PUSH1 0x0 KECCAK256 PUSH1 0x0 DUP3 ADD MLOAD DUP2 PUSH1 0x0 ADD PUSH1 0x0 PUSH2 0x100 EXP DUP2 SLOAD DUP2 PUSH4 0xFFFFFFFF MUL NOT AND SWAP1 DUP4 PUSH4 0xFFFFFFFF AND MUL OR SWAP1 SSTORE POP PUSH1 0x20 DUP3 ADD MLOAD DUP2 PUSH1 0x1 ADD SSTORE SWAP1 POP POP PUSH1 0x1 DUP5 ADD PUSH1 0x9 PUSH1 0x0 DUP8 PUSH20 0xFFFFFFFFFFFFFFFFFFFFFFFFFFFFFFFFFFFFFFFF AND PUSH20 0xFFFFFFFFFFFFFFFFFFFFFFFFFFFFFFFFFFFFFFFF AND DUP2 MSTORE PUSH1 0x20 ADD SWAP1 DUP2 MSTORE PUSH1 0x20 ADD PUSH1 0x0 KECCAK256 PUSH1 0x0 PUSH2 0x100 EXP DUP2 SLOAD DUP2 PUSH4 0xFFFFFFFF MUL NOT AND SWAP1 DUP4 PUSH4 0xFFFFFFFF AND MUL OR SWAP1 SSTORE POP JUMPDEST DUP5 PUSH20 0xFFFFFFFFFFFFFFFFFFFFFFFFFFFFFFFFFFFFFFFF AND PUSH32 0xDEC2BACDD2F05B59DE34DA9B523DFF8BE42E5E38E818C82FDB0BAE774387A724 DUP5 DUP5 PUSH1 0x40 MLOAD DUP1 DUP4 DUP2 MSTORE PUSH1 0x20 ADD DUP3 DUP2 MSTORE PUSH1 0x20 ADD SWAP3 POP POP POP PUSH1 0x40 MLOAD DUP1 SWAP2 SUB SWAP1 LOG2 POP POP POP POP POP JUMP JUMPDEST PUSH1 0x0 PUSH5 0x100000000 DUP4 LT DUP3 SWAP1 PUSH2 0x2E8A JUMPI PUSH1 0x40 MLOAD PUSH32 0x8C379A000000000000000000000000000000000000000000000000000000000 DUP2 MSTORE PUSH1 0x4 ADD DUP1 DUP1 PUSH1 0x20 ADD DUP3 DUP2 SUB DUP3 MSTORE DUP4 DUP2 DUP2 MLOAD DUP2 MSTORE PUSH1 0x20 ADD SWAP2 POP DUP1 MLOAD SWAP1 PUSH1 0x20 ADD SWAP1 DUP1 DUP4 DUP4 PUSH1 0x0 JUMPDEST DUP4 DUP2 LT ISZERO PUSH2 0x2E4F JUMPI DUP1 DUP3 ADD MLOAD DUP2 DUP5 ADD MSTORE PUSH1 0x20 DUP2 ADD SWAP1 POP PUSH2 0x2E34 JUMP JUMPDEST POP POP POP POP SWAP1 POP SWAP1 DUP2 ADD SWAP1 PUSH1 0x1F AND DUP1 ISZERO PUSH2 0x2E7C JUMPI DUP1 DUP3 SUB DUP1 MLOAD PUSH1 0x1 DUP4 PUSH1 0x20 SUB PUSH2 0x100 EXP SUB NOT AND DUP2 MSTORE PUSH1 0x20 ADD SWAP2 POP JUMPDEST POP SWAP3 POP POP POP PUSH1 0x40 MLOAD DUP1 SWAP2 SUB SWAP1 REVERT JUMPDEST POP DUP3 SWAP1 POP SWAP3 SWAP2 POP POP JUMP JUMPDEST PUSH1 0x40 MLOAD DUP1 PUSH1 0x40 ADD PUSH1 0x40 MSTORE DUP1 PUSH1 0x0 PUSH4 0xFFFFFFFF AND DUP2 MSTORE PUSH1 0x20 ADD PUSH1 0x0 DUP2 MSTORE POP SWAP1 JUMP INVALID TIMESTAMP GASLIMIT POP ORIGIN ADDRESS GASPRICE KECCAK256 PUSH21 0x72616E736665722066726F6D20746865207A65726F KECCAK256 PUSH2 0x6464 PUSH19 0x65737342455032303A20617070726F76652066 PUSH19 0x6F6D20746865207A65726F2061646472657373 0x4F PUSH24 0x6E61626C653A206E6577206F776E65722069732074686520 PUSH27 0x65726F206164647265737342455032303A207472616E7366657220 PUSH2 0x6D6F PUSH22 0x6E74206578636565647320616C6C6F77616E63654C4B DIFFICULTY GASPRICE GASPRICE PUSH5 0x656C656761 PUSH21 0x6542795369673A20696E76616C6964206E6F6E6365 0x4C 0x4B DIFFICULTY GASPRICE GASPRICE PUSH8 0x65745072696F7256 PUSH16 0x7465733A206E6F742079657420646574 PUSH6 0x726D696E6564 0x4C 0x4B DIFFICULTY GASPRICE GASPRICE PUSH5 0x656C656761 PUSH21 0x6542795369673A207369676E617475726520657870 PUSH10 0x72656442455032303A20 PUSH21 0x72616E7366657220616D6F756E7420657863656564 PUSH20 0x2062616C616E636542455032303A207472616E73 PUSH7 0x657220746F2074 PUSH9 0x65207A65726F206164 PUSH5 0x7265737342 GASLIMIT POP ORIGIN ADDRESS GASPRICE KECCAK256 PUSH5 0x6563726561 PUSH20 0x656420616C6C6F77616E63652062656C6F77207A PUSH6 0x726F4C4B443A GASPRICE 0x5F PUSH24 0x72697465436865636B706F696E743A20626C6F636B206E75 PUSH14 0x6265722065786365656473203332 KECCAK256 PUSH3 0x697473 0x4C 0x4B DIFFICULTY GASPRICE GASPRICE PUSH5 0x656C656761 PUSH21 0x6542795369673A20696E76616C6964207369676E61 PUSH21 0x75726542455032303A20617070726F766520746F20 PUSH21 0x6865207A65726F2061646472657373A26469706673 PC 0x22 SLT KECCAK256 0xB1 0x48 0xC0 0xC2 DUP9 0xBA POP 0xD0 0xCD 0x26 PUSH20 0x2CE95CAFEB580C1838B2AF19837D7BABDA97ED5E 0xE0 PUSH5 0x736F6C6343 STOP MOD 0xC STOP CALLER "
				},
				"gasEstimates": {
					"creation": {
						"codeDepositCost": "2500200",
						"executionCost": "infinite",
						"totalCost": "infinite"
					},
					"external": {
						"DELEGATION_TYPEHASH()": "271",
						"DOMAIN_TYPEHASH()": "273",
						"allowance(address,address)": "1365",
						"approve(address,uint256)": "infinite",
						"balanceOf(address)": "1285",
						"checkpoints(address,uint32)": "2243",
						"decimals()": "1167",
						"decreaseAllowance(address,uint256)": "infinite",
						"delegate(address)": "infinite",
						"delegateBySig(address,uint256,uint256,uint8,bytes32,bytes32)": "infinite",
						"delegates(address)": "1328",
						"getCurrentVotes(address)": "2334",
						"getOwner()": "1180",
						"getPriorVotes(address,uint256)": "infinite",
						"increaseAllowance(address,uint256)": "infinite",
						"maxSupply()": "324",
						"mint(address,uint256)": "infinite",
						"mint(uint256)": "infinite",
						"name()": "infinite",
						"nonces(address)": "1237",
						"numCheckpoints(address)": "1267",
						"owner()": "1100",
						"preMineSupply()": "304",
						"renounceOwnership()": "24402",
						"symbol()": "infinite",
						"totalSupply()": "1059",
						"transfer(address,uint256)": "infinite",
						"transferFrom(address,address,uint256)": "infinite",
						"transferOwnership(address)": "infinite"
					},
					"internal": {
						"_delegate(address,address)": "infinite",
						"_moveDelegates(address,address,uint256)": "infinite",
						"_writeCheckpoint(address,uint32,uint256,uint256)": "infinite",
						"getChainId()": "35",
						"safe32(uint256,string memory)": "infinite"
					}
				},
				"methodIdentifiers": {
					"DELEGATION_TYPEHASH()": "e7a324dc",
					"DOMAIN_TYPEHASH()": "20606b70",
					"allowance(address,address)": "dd62ed3e",
					"approve(address,uint256)": "095ea7b3",
					"balanceOf(address)": "70a08231",
					"checkpoints(address,uint32)": "f1127ed8",
					"decimals()": "313ce567",
					"decreaseAllowance(address,uint256)": "a457c2d7",
					"delegate(address)": "5c19a95c",
					"delegateBySig(address,uint256,uint256,uint8,bytes32,bytes32)": "c3cda520",
					"delegates(address)": "587cde1e",
					"getCurrentVotes(address)": "b4b5ea57",
					"getOwner()": "893d20e8",
					"getPriorVotes(address,uint256)": "782d6fe1",
					"increaseAllowance(address,uint256)": "39509351",
					"maxSupply()": "d5abeb01",
					"mint(address,uint256)": "40c10f19",
					"mint(uint256)": "a0712d68",
					"name()": "06fdde03",
					"nonces(address)": "7ecebe00",
					"numCheckpoints(address)": "6fcfff45",
					"owner()": "8da5cb5b",
					"preMineSupply()": "0c16ea83",
					"renounceOwnership()": "715018a6",
					"symbol()": "95d89b41",
					"totalSupply()": "18160ddd",
					"transfer(address,uint256)": "a9059cbb",
					"transferFrom(address,address,uint256)": "23b872dd",
					"transferOwnership(address)": "f2fde38b"
				}
			},
			"storageLayout": {
				"storage": [
					{
						"astId": 31,
						"contract": "contracts/ERC20/LinkDaoPresale.sol:LINKDAO_Token",
						"label": "_owner",
						"offset": 0,
						"slot": "0",
						"type": "t_address"
					},
					{
						"astId": 748,
						"contract": "contracts/ERC20/LinkDaoPresale.sol:LINKDAO_Token",
						"label": "_balances",
						"offset": 0,
						"slot": "1",
						"type": "t_mapping(t_address,t_uint256)"
					},
					{
						"astId": 754,
						"contract": "contracts/ERC20/LinkDaoPresale.sol:LINKDAO_Token",
						"label": "_allowances",
						"offset": 0,
						"slot": "2",
						"type": "t_mapping(t_address,t_mapping(t_address,t_uint256))"
					},
					{
						"astId": 756,
						"contract": "contracts/ERC20/LinkDaoPresale.sol:LINKDAO_Token",
						"label": "_totalSupply",
						"offset": 0,
						"slot": "3",
						"type": "t_uint256"
					},
					{
						"astId": 758,
						"contract": "contracts/ERC20/LinkDaoPresale.sol:LINKDAO_Token",
						"label": "_name",
						"offset": 0,
						"slot": "4",
						"type": "t_string_storage"
					},
					{
						"astId": 760,
						"contract": "contracts/ERC20/LinkDaoPresale.sol:LINKDAO_Token",
						"label": "_symbol",
						"offset": 0,
						"slot": "5",
						"type": "t_string_storage"
					},
					{
						"astId": 762,
						"contract": "contracts/ERC20/LinkDaoPresale.sol:LINKDAO_Token",
						"label": "_decimals",
						"offset": 0,
						"slot": "6",
						"type": "t_uint8"
					},
					{
						"astId": 1322,
						"contract": "contracts/ERC20/LinkDaoPresale.sol:LINKDAO_Token",
						"label": "_delegates",
						"offset": 0,
						"slot": "7",
						"type": "t_mapping(t_address,t_address)"
					},
					{
						"astId": 1334,
						"contract": "contracts/ERC20/LinkDaoPresale.sol:LINKDAO_Token",
						"label": "checkpoints",
						"offset": 0,
						"slot": "8",
						"type": "t_mapping(t_address,t_mapping(t_uint32,t_struct(Checkpoint)1327_storage))"
					},
					{
						"astId": 1339,
						"contract": "contracts/ERC20/LinkDaoPresale.sol:LINKDAO_Token",
						"label": "numCheckpoints",
						"offset": 0,
						"slot": "9",
						"type": "t_mapping(t_address,t_uint32)"
					},
					{
						"astId": 1356,
						"contract": "contracts/ERC20/LinkDaoPresale.sol:LINKDAO_Token",
						"label": "nonces",
						"offset": 0,
						"slot": "10",
						"type": "t_mapping(t_address,t_uint256)"
					}
				],
				"types": {
					"t_address": {
						"encoding": "inplace",
						"label": "address",
						"numberOfBytes": "20"
					},
					"t_mapping(t_address,t_address)": {
						"encoding": "mapping",
						"key": "t_address",
						"label": "mapping(address => address)",
						"numberOfBytes": "32",
						"value": "t_address"
					},
					"t_mapping(t_address,t_mapping(t_address,t_uint256))": {
						"encoding": "mapping",
						"key": "t_address",
						"label": "mapping(address => mapping(address => uint256))",
						"numberOfBytes": "32",
						"value": "t_mapping(t_address,t_uint256)"
					},
					"t_mapping(t_address,t_mapping(t_uint32,t_struct(Checkpoint)1327_storage))": {
						"encoding": "mapping",
						"key": "t_address",
						"label": "mapping(address => mapping(uint32 => struct LINKDAO_Token.Checkpoint))",
						"numberOfBytes": "32",
						"value": "t_mapping(t_uint32,t_struct(Checkpoint)1327_storage)"
					},
					"t_mapping(t_address,t_uint256)": {
						"encoding": "mapping",
						"key": "t_address",
						"label": "mapping(address => uint256)",
						"numberOfBytes": "32",
						"value": "t_uint256"
					},
					"t_mapping(t_address,t_uint32)": {
						"encoding": "mapping",
						"key": "t_address",
						"label": "mapping(address => uint32)",
						"numberOfBytes": "32",
						"value": "t_uint32"
					},
					"t_mapping(t_uint32,t_struct(Checkpoint)1327_storage)": {
						"encoding": "mapping",
						"key": "t_uint32",
						"label": "mapping(uint32 => struct LINKDAO_Token.Checkpoint)",
						"numberOfBytes": "32",
						"value": "t_struct(Checkpoint)1327_storage"
					},
					"t_string_storage": {
						"encoding": "bytes",
						"label": "string",
						"numberOfBytes": "32"
					},
					"t_struct(Checkpoint)1327_storage": {
						"encoding": "inplace",
						"label": "struct LINKDAO_Token.Checkpoint",
						"members": [
							{
								"astId": 1324,
								"contract": "contracts/ERC20/LinkDaoPresale.sol:LINKDAO_Token",
								"label": "fromBlock",
								"offset": 0,
								"slot": "0",
								"type": "t_uint32"
							},
							{
								"astId": 1326,
								"contract": "contracts/ERC20/LinkDaoPresale.sol:LINKDAO_Token",
								"label": "votes",
								"offset": 0,
								"slot": "1",
								"type": "t_uint256"
							}
						],
						"numberOfBytes": "64"
					},
					"t_uint256": {
						"encoding": "inplace",
						"label": "uint256",
						"numberOfBytes": "32"
					},
					"t_uint32": {
						"encoding": "inplace",
						"label": "uint32",
						"numberOfBytes": "4"
					},
					"t_uint8": {
						"encoding": "inplace",
						"label": "uint8",
						"numberOfBytes": "1"
					}
				}
			},
			"userdoc": {
				"events": {
					"DelegateChanged(address,address,address)": {
						"notice": "An event thats emitted when an account changes its delegate"
					},
					"DelegateVotesChanged(address,uint256,uint256)": {
						"notice": "An event thats emitted when a delegate account's vote balance changes"
					}
				},
				"kind": "user",
				"methods": {
					"DELEGATION_TYPEHASH()": {
						"notice": "The EIP-712 typehash for the delegation struct used by the contract"
					},
					"DOMAIN_TYPEHASH()": {
						"notice": "The EIP-712 typehash for the contract's domain"
					},
					"checkpoints(address,uint32)": {
						"notice": "A record of votes checkpoints for each account, by index"
					},
					"delegate(address)": {
						"notice": "Delegate votes from `msg.sender` to `delegatee`"
					},
					"delegateBySig(address,uint256,uint256,uint8,bytes32,bytes32)": {
						"notice": "Delegates votes from signatory to `delegatee`"
					},
					"delegates(address)": {
						"notice": "Delegate votes from `msg.sender` to `delegatee`"
					},
					"getCurrentVotes(address)": {
						"notice": "Gets the current votes balance for `account`"
					},
					"getPriorVotes(address,uint256)": {
						"notice": "Determine the prior number of votes for an account as of a block number"
					},
					"mint(address,uint256)": {
						"notice": "Creates `_amount` token to `_to`. Must only be called by the owner (MasterChef)."
					},
					"nonces(address)": {
						"notice": "A record of states for signing / validating signatures"
					},
					"numCheckpoints(address)": {
						"notice": "The number of checkpoints for each account"
					}
				},
				"version": 1
			}
		}
	}
}